:020000040800F2
:1000000000800120653D0008B93D0008B93D0008A9
:10001000B93D0008B93D0008B93D000800000000E6
:10002000000000000000000000000000B93D0008D2
:10003000B93D000800000000B93D0008213D00085E
:10004000B93D0008B93D0008B93D0008B93D0008B8
:10005000B93D0008B93D0008373D00082D3D0008B6
:10006000B93D0008B93D0008B93D0008B93D000898
:10007000B93D0008B93D0008B93D0008B93D000888
:10008000B93D0008B93D0008B93D00080000000076
:10009000000000000000000000000000B93D000862
:1000A000B93D0008B93D0008B93D0008B93D000858
:1000B000B93D0008B93D0008B93D0008B93D000848
:1000C000B93D0008B93D0008B93D0008B93D000838
:1000D000B93D0008B93D0008413D0008000000009E
:1000E000593D0008B93D0008B93D00080000000076
:1000F000000000000000000000000000B93D000802
:1001000000000000B93D0008B93D0008B93D0008F5
:1001100000000000000000000000000000000000DF
:10012000B93D0008B93D0008B93D0008B93D0008D7
:10013000B93D0008000000000000000000000000C1
:10014000000000000000000000000000B93D0008B1
:10015000B93D0008B93D0008B93D0008B93D0008A7
:10016000B93D0008B93D0008000000000000000093
:10017000000000000000000000000000000000007F
:1001800000000000B93D0008000000000000000071
:04019000B93D00086D
:1002000010B5054C237833B9044B13B10448AFF350
:1002100000800123237010BD44070020000000006F
:10022000E43E000808B5034B1BB103490348AFF394
:10023000008008BD0000000048070020E43E0008E0
:10024000002116E001EB410C01EB8C0C00EB0C02E1
:10025000002300F80C3053709370D37013715371F6
:100260009371D371137253729372D37213730131FA
:10027000C9B20129E6D9704700EB400C00EB8C00B5
:1002800001EB000C0A54CCF80130009BCCF805308F
:10029000019BCCF809307047F0B583B005460C4699
:1002A00016461F460A4B1B785BB1099B0193089BBE
:1002B00000933B46324621462846FFF7DDFF03B058
:1002C000F0BD034B01221A700846FFF7B9FFECE7B7
:1002D0008C07002000B583B00B46002101910092ED
:1002E00001220349FFF7D8FF03B05DF804FB00BF0C
:1002F0006007002000B583B00B46002201920092F7
:1003000002220349FFF7C8FF03B05DF804FB00BFFA
:100310006007002000B583B00B46002101910092D8
:1003200003220349FFF7B8FF03B05DF804FB00BFE9
:100330006007002000B583B00B46002201920092B6
:1003400004220349FFF7A8FF03B05DF804FB00BFD8
:100350006007002000B583B00B4600210191009298
:1003600005220349FFF798FF03B05DF804FB00BFC7
:100370006007002000B583B00B4600220192009276
:1003800006220349FFF788FF03B05DF804FB00BFB6
:100390006007002000B583B00B4600210191009258
:1003A00007220349FFF778FF03B05DF804FB00BFA5
:1003B0006007002000B583B0019300920B4608222D
:1003C0000249FFF769FF03B05DF804FB60070020F6
:1003D00000B583B00B460021019100920922034928
:1003E000FFF75AFF03B05DF804FB00BF6007002071
:1003F00000B583B00023019300930A220249FFF75E
:100400004BFF03B05DF804FB6007002000B583B02C
:100410000023019300930B220249FFF73DFF03B035
:100420005DF804FB6007002000B583B00023019352
:1004300000930C220249FFF72FFF03B05DF804FB85
:100440006007002000B583B00023019300930D22C4
:100450000249FFF721FF03B05DF804FB60070020AD
:1004600000B583B00023019300930E220249FFF7E9
:1004700013FF03B05DF804FB6007002000B583B0F4
:100480000023019300930F220249FFF705FF03B0F9
:100490005DF804FB6007002000B583B000230193E2
:1004A000009310220249FFF7F7FE03B05DF804FB4A
:1004B0006007002000B583B0002301930093112250
:1004C0000249FFF7E9FE03B05DF804FB6007002076
:1004D00000B583B000230193009312220249FFF775
:1004E000DBFE03B05DF804FB6007002070B500225E
:1004F00094460DE002F1010E00248C540133DBB26E
:100500005FFA8EF2012BF5D90CF1010C5FFA8CFC2D
:10051000BCF1030F01D80023F4E7002322E0DCF84C
:1005200001507A4E05EBC50E05EB4E05755D2C436B
:10053000CC54DCF8014004EBC40504EB450434441E
:1005400094F80EE00AE0DCF80540AEEB0205ED00A1
:10055000EC4003EB42054C550132D2B27245F2D960
:100560000133DBB2012B00F2D08003EB430203EB3B
:10057000820200EB020C845CC4EBC404644D05EB06
:100580004404247BCC54825C551E082DE8D801A677
:1005900056F825F01F050008B9050008CF0500082A
:1005A0000106000815060008630600086706000833
:1005B00099060008E1060008DCF8012002EBC205FC
:1005C00002EB4502514DAA5C1443CC54C8E7DCF859
:1005D000012002EBC2024F4D2A44127A1443CC543C
:1005E00001220AE0DCF80540C2F10305ED00EC4011
:1005F00003EB42054C550132D2B2032AF2D9AFE7E0
:10060000DCF8012002EBC202424D2A44127A144364
:10061000CC54A5E7DCF8012002EBC2023D4D2A4490
:10062000127A1443CC5401220AE0DCF80540C2F1EE
:100630000305ED00EC4003EB42054C550132D2B20C
:10064000032AF2D98CE7DCF80140C2F10305ED0082
:10065000EC4003EB42054C550132D2B2032AF2D9E9
:100660007EE70122FAE7DCF8012002EBC202294D05
:100670002A44127A1443CC5401220AE0DCF80540E3
:10068000C2F10305ED00EC4003EB42054C5501328D
:10069000D2B2032AF2D963E7DCF8012002EB82022E
:1006A0001D4D2A44127944EAC204E4B2CC54DCF869
:1006B000052002EBC202174D2A44127A1443CC548F
:1006C00001220AE0DCF80940C2F10305ED00EC402C
:1006D00003EB42054C550132D2B2032AF2D93FE76F
:1006E000DCF8012002EB82020B4D2A44127944EA25
:1006F000C204E4B2CC54DCF8052002EBC202054D82
:100700002A44127A1443CC542AE770BD28400008CA
:10071000083F000814400008FC3E0008DFED087A9E
:10072000B4EEE70AF1EE10FA08D89FED067AC0EEB3
:10073000077AFCEEE77A17EE900A704700207047C0
:100740001B2474462A24743CDFED097AB4EEE70AD0
:10075000F1EE10FA09D89FED077AC0EE077AFCEEA9
:10076000E77A17EE903A98B270470020704700BFC2
:1007700071C66847FED46841DFED097AB4EEE70A36
:10078000F1EE10FA09D89FED077AC0EE077AFCEE79
:10079000E77A17EE903A98B270470020704700BF92
:1007A00071C66847FED46841DFED097AB4EEE70A06
:1007B000F1EE10FA09D89FED077AC0EE077AFCEE49
:1007C000E77A17EE903A98B270470020704700BF62
:1007D00002E773460B247441DFED097AB4EEE70AB1
:1007E000F1EE10FA09D89FED077AC0EE077AFCEE19
:1007F000E77A17EE903A98B270470020704700BF32
:10080000BF1474440124743EDFED0B7AB4EEE70AA2
:10081000F1EE10FA0DD89FED097AC0EE077AB6EE28
:10082000007A77EEC77AFCEEE77A17EE903A98B244
:1008300070470020704700BF80E17346000074419C
:10084000DFED097AB4EEE70AF1EE10FA09D89FED70
:10085000077AC0EE077AFCEEE77A17EE903A98B284
:1008600070470020704700BF23207444F423743D78
:10087000DFED0A7AB4EEE70AF1EE10FA0CD882B096
:100880009FED077AC0EE077AFCEEE77ACDED017AAC
:100890009DF8040002B0704700207047D911833BD7
:1008A0006E958337DFED0A7AB4EEE70AF1EE10FABF
:1008B0000CD882B09FED077AC0EE077AFCEEE77A9B
:1008C000CDED017A9DF8040002B07047002070471A
:1008D000D911833B6E958337DFED0A7AB4EEE70AD0
:1008E000F1EE10FA0CD882B09FED077AC0EE077ACD
:1008F000FCEEE77ACDED017A9DF8040002B0704776
:1009000000207047D911833B6E958337DFED127A53
:10091000B4EEE70AF1EE10FA1BD882B09FED0F7A21
:10092000C0EE077ABCEEE77A8DED017A9DF80400FF
:1009300007EE100AB8EEC77A77EEC77AB6EE007AFD
:10094000F4EEC77AF1EE10FA01D50138C0B202B068
:1009500070470020704700BF0080BB450080BB434C
:10096000DFED127AB4EEE70AF1EE10FA1BD882B08E
:100970009FED0F7AC0EE077ABCEEE77A8DED017A33
:100980009DF8040007EE100AB8EEC77A77EEC77A32
:10099000B6EE007AF4EEC77AF1EE10FA01D501381E
:1009A000C0B202B070470020704700BF00007A4517
:1009B0000000FA41012800D87047FF20FCE7000042
:1009C000F0B583B006460D460024154B1C700AE0B6
:1009D00000BF144A137801331370124B1B78132B8A
:1009E000F6D90134E4B2032C18D80F4F002239890C
:1009F000786801F065FA0A230093022305EB4402AC
:100A000006EB4401094802F061F80122398978684F
:100A100001F056FA034B00221A70DEE703B0F0BD76
:100A20008C07002092070020EC070020940700208C
:100A300030B583B00B46094D00210191009201228F
:100A40002946FFF729FC064C21462846FFF74EFDB4
:100A500004492046FFF7B4FF03B030BD6007002013
:100A6000840700207C07002030B583B00B46094D79
:100A700000210191009203222946FFF70DFC064C4C
:100A800021462846FFF732FD04492046FFF798FF2C
:100A900003B030BD60070020840700207C070020E1
:100AA00030B583B00B46094D00220192009204221A
:100AB0002946FFF7F1FB064C21462846FFF716FDB5
:100AC00004492046FFF77CFF03B030BD60070020DB
:100AD000840700207C07002030B583B00B46094D09
:100AE00000210191009205222946FFF7D5FB064C13
:100AF00021462846FFF7FAFC04492046FFF760FF2D
:100B000003B030BD60070020840700207C07002070
:100B1000B1F5800F00D3704730B583B0094D002286
:100B2000019200920B4606222946FFF7B5FB064CC0
:100B300021462846FFF7DAFC04492046FFF740FF2C
:100B400003B030BD60070020840700207C07002030
:100B5000B2F5800F00D3704730B583B0094D002344
:100B6000019300920B4607222946FFF795FB064C9E
:100B700021462846FFF7BAFC04492046FFF720FF2C
:100B800003B030BD60070020840700207C070020F0
:100B900030B583B0094D019300920B4608222946D7
:100BA000FFF77AFB064C21462846FFF79FFC0549D4
:100BB0002046FFF705FF03B030BD00BF60070020EF
:100BC000840700207C07002030B583B00B46094D18
:100BD00000210191009209222946FFF75DFB064C96
:100BE00021462846FFF782FC04492046FFF7E8FE2D
:100BF00003B030BD60070020840700207C07002080
:100C000030B583B0094D0023019300930A22294691
:100C1000FFF742FB064C21462846FFF767FC0549D3
:100C20002046FFF7CDFE03B030BD00BF60070020B7
:100C3000840700207C07002030B583B0094D0023D5
:100C4000019300930B222946FFF726FB064C214611
:100C50002846FFF74BFC05492046FFF7B1FE03B0DD
:100C600030BD00BF60070020840700207C07002003
:100C700030B583B0094D0023019300930C2229461F
:100C8000FFF70AFB064C21462846FFF72FFC0549D3
:100C90002046FFF795FE03B030BD00BF600700207F
:100CA000840700207C07002030B583B0094D002365
:100CB000019300930D222946FFF7EEFA064C2146D8
:100CC0002846FFF713FC05492046FFF779FE03B0DD
:100CD00030BD00BF60070020840700207C07002093
:100CE00030B583B0094D0023019300930E222946AD
:100CF000FFF7D2FA064C21462846FFF7F7FB0549D5
:100D00002046FFF75DFE03B030BD00BF6007002046
:100D1000840700207C07002030B583B0094D0023F4
:100D2000019300930F222946FFF7B6FA064C21469D
:100D30002846FFF7DBFB05492046FFF741FE03B0DD
:100D400030BD00BF60070020840700207C07002022
:100D500030B583B0094D002301930093102229463A
:100D6000FFF79AFA064C21462846FFF7BFFB0549D4
:100D70002046FFF725FE03B030BD00BF600700200E
:100D8000840700207C07002030B583B0094D002384
:100D90000193009311222946FFF77EFA064C214663
:100DA0002846FFF7A3FB05492046FFF709FE03B0DD
:100DB00030BD00BF60070020840700207C070020B2
:100DC00038B5064D29460648FFF790FB054C2146ED
:100DD0002846FFF7F5FD204638BD00BF84070020F8
:100DE000600700207C07002010B504460123002086
:100DF0000DE004EB430C11F80CC0A2EB030E4FEA1C
:100E0000CE0E0CFA0EFC40EA0C000133DBB2032BD1
:100E1000EFD910BDF0B583B005460C460F4E002348
:100E2000019300930B4602223146FFF735FA0C4F2F
:100E300039463046FFF75AFB0A4E31463846FFF72F
:100E4000BFFD04EBC40104EB410407490C44A27B41
:100E500031462846FFF7C8FF03B0F0BD6007002009
:100E6000840700207C0700202840000810B50C46AD
:100E70001821FFF7CFFF344B1B6818800E2C61D868
:100E8000DFE804F0080E141A20262C31373D4349C0
:100E90004F555B002C4B1B68187800F0010010BD0B
:100EA000294B1B681878C0F34000F8E7264B1B68F5
:100EB0001878C0F38000F2E7234B1B681878C0F362
:100EC000C000ECE7204B1B681878C0F30010E6E781
:100ED0001D4B1B681878C0F34110E0E71A4B1B68E4
:100EE0001878C009DBE7184B1B68587800F0010040
:100EF000D5E7154B1B685878C0F34000CFE7124B7D
:100F00001B685878C0F38000C9E70F4B1B685878FE
:100F1000C0F3C000C3E70C4B1B685878C0F3001047
:100F2000BDE7094B1B685878C0F34010B7E7064B84
:100F30001B685878C0F38010B1E7034B1B685878E2
:100F4000C009ACE70020AAE79400002070B582B089
:100F500004460D4D00230193009312222946FFF70A
:100F60009BF90A4E31462846FFF7C0FA084D29463C
:100F70003046FFF725FD022229462046FFF734FFC1
:100F800080B202B070BD00BF60070020840700205F
:100F90007C070020182807D800EBC00300EB4300B3
:100FA000024B184401307047014870472840000840
:100FB000C844000870B504460D464B6900EE103A6F
:100FC000FFF7C2FB0646A4F81700AB6900EE103A23
:100FD000FFF7D2FBA4F81900EB6900EE103AFFF717
:100FE000E3FBA4F81B002B6A00EE103AFFF7F4FBBA
:100FF000A4F81D006B6A00EE103AFFF705FCA4F898
:101000001F00AB6A06EE903ADFED887A66EEA76ABB
:101010002B6807EE103A86EE877ABCEEC77A17EE99
:10102000103A84F82130EB6A06EE903A66EEA76A31
:101030002B6807EE103A86EE877ABCEEC77A17EE79
:10104000103A84F822302B6B06EE903A66EEA76ACF
:101050002B6807EE103A86EE877ABCEEC77A17EE59
:10106000103A84F823306B6B07EE103A67EE277A5C
:101070002B6807EE103A87EE877AFCEEC77A17EEF8
:10108000903A84F82430AB6B00EE103AFFF7D8FBAF
:10109000A4F82500EB6B00EE103AFFF7E9FB84F8AB
:1010A00027002B6C00EE103AFFF7FCFB84F82800B9
:1010B0006B6C00EE103AFFF70FFC84F8290095F8EE
:1010C000483084F82A30D5F8493000EE103AFFF75E
:1010D0001DFC84F82C00D5F84D3000EE103AFFF7D7
:1010E0003FFC84F82D0095F8513084F82E3095F8A7
:1010F000523084F82F30B5F853302386D4F80530B9
:101100001B683246042120789847D4F805301B68C4
:10111000B4F81920052120789847D4F805301B68C9
:10112000B4F81B20062120789847D4F805301B68B6
:10113000B4F81D20072120789847D4F805301B68A3
:10114000B4F81F20082120789847D4F805301B6890
:1011500094F82120092120789847D4F805301B689D
:1011600094F822200A2120789847D4F805301B688B
:1011700094F823200B2120789847D4F805301B6879
:1011800094F824200C2120789847D4F805301B6867
:10119000B4F825200D2120789847D4F805301B6835
:1011A00094F827200E2120789847D4F805301B6842
:1011B00094F828200F2120789847D4F805301B6830
:1011C00094F82920102120789847D4F805301B681E
:1011D00094F82A20112120789847D4F805301B680C
:1011E00094F82C20132120789847D4F805301B68F8
:1011F00094F82D20142120789847D4F805301B68E6
:1012000094F82E20152120789847D4F805301B68D3
:1012100094F82F20162120789847D4F805301B68C1
:10122000228E17212078984770BD00BF00008043B0
:1012300070B586B0054648B90F4B1A6B42F00102F3
:101240001A631B6B03F001030093009B2026019699
:1012500001230293039302230493084C01A954F839
:10126000250000F0DBFC0022314654F8250000F098
:1012700027FE06B070BD00BF003802409C00002071
:1012800008B501222021034B53F8200000F018FE7E
:1012900008BD00BF9C00002008B500222021034BA0
:1012A00053F8200000F00CFE08BD00BF9C00002099
:1012B00030B587B00C46054648B91A4B1A6B42F058
:1012C00004021A631B6B03F004030093009B1CB120
:1012D000012C10D007B030BD4FF400530193002310
:1012E000029302230393049301A90F4B53F82500A3
:1012F00000F094FCECE74FF40053019300240394B6
:101300000A4B029301A9084B53F8250000F086FC14
:1013100022460F21282000F0F5FB282000F038FCA1
:10132000D8E700BF003802409800002000002110DC
:1013300030B595B01B4B1A6C42F080521A641B6C8E
:1013400003F080530193019B174A136823F4404331
:1013500043F400431360136803F440430293029B79
:101360000224089401230B9310230C930E94002560
:101370000F9510934FF4A87311930423129307232E
:10138000139308A800F0C6FD052303930494059564
:101390004FF4805306930795214603A801F006F801
:1013A00015B030BD003802400070004008B5012182
:1013B0000020FFF77DFF0020FFF73AFF08BD000087
:1013C00008B51F4B1F4A1A604FF482725A60002200
:1013D0009A60DA6002211961012159614FF40071AC
:1013E00099611A625A629A6201F012FA164BA3FBD3
:1013F0000030B0F5800F0FD3430D032B0ED9072B10
:1014000012D90F2B12D91F2B12D93F2B12D97F2B98
:1014100012D9FF2B12D9FEE7002300E00823084869
:10142000C36101F07BFA08BD1023F8E71823F6E743
:101430002023F4E72823F2E73023F0E73823EEE710
:1014400094070020003001406BCA5F6B08B5FFF7BE
:10145000B7FF08BD08B51548002303704422427049
:1014600083704022C27003716FF03D02427101220D
:101470008271C371037243728372C37203734373C5
:101480008373C373037443748374C3740C2202752F
:1014900043758375C375037643768376C376037786
:1014A00043778377C37701F0C5FE08BD08080020A5
:1014B00070B506464D0800240DE00020FFF7E0FE61
:1014C000284600F0F3FA0020FFF7E6FE284600F079
:1014D000EDFA0134E4B2B442EFD370BD08B500F0C8
:1014E000BDFAFFF725FFFFF761FFFFF7AFFFFFF73B
:1014F000B1FF40F2EE210320FFF7DAFF08BD000044
:10150000B0B910B403460B4A00EB800102EB410076
:1015100052F8114008490C604068486003EB8303AF
:1015200002EB43031B890B8101205DF8044B7047DC
:10153000002070474C020020EC07002010B50C463C
:10154000FFF7DEFF00B910BD2046FFF7ADFBFAE75D
:1015500010B50C46FFF7D4FF08B9002010BD204697
:10156000FFF7F4FCFAE770B50C4615461E46FFF788
:10157000C7FF00B970BD324629462046FFF758FA2A
:10158000F8E738B50C461546FFF7BAFF08B9FF2053
:1015900038BD29462046FFF73DFCF9E770B50C46FB
:1015A00015461E46FFF7ACFF00B970BD324629460E
:1015B0002046FFF759FAF8E738B50C461546FFF70D
:1015C0009FFF00B938BD29462046FFF769FAF9E7C1
:1015D00070B50C4615461E46FFF792FF00B970BD68
:1015E000324629462046FFF777FAF8E738B50C4629
:1015F0001546FFF785FF00B938BD29462046FFF79D
:1016000087FAF9E770B50C4615461E46FFF778FFD6
:1016100000B970BD324629462046FFF799FAF8E72F
:1016200070B50C4615461E46FFF76AFF00B970BD3F
:10163000049B324629462046FFF7AAFAF7E770B521
:101640000C4615461E46FFF75BFF00B970BD3246DB
:1016500029462046FFF7B8FAF8E710B50C46FFF721
:101660004FFF00B910BD2046FFF7CAFAFAE710B5E0
:101670000C46FFF745FF00B910BD2046FFF7DCFA26
:10168000FAE710B50C46FFF73BFF00B910BD204646
:10169000FFF7EEFAFAE710B50C46FFF731FF00B995
:1016A00010BD2046FFF71CFBFAE710B50C46FFF70C
:1016B00027FF00B910BD2046FFF72EFBFAE710B553
:1016C0000C46FFF71DFF00B910BD2046FFF740FB99
:1016D000FAE710B50C46FFF713FF00B910BD20461E
:1016E000FFF752FBFAE738B50C461546FFF708FF3F
:1016F00008B9FF2038BD29462046FFF7B7FBF9E7B8
:1017000008B501460148FFF755FC08BDA0000020C0
:1017100008B501460148FFF74DFC08BDD400002084
:1017200008B501460148FFF745FC08BD0801002047
:1017300008B501460148FFF73DFC08BD3C0100200B
:1017400008B501460148FFF735FC08BD70010020CF
:1017500008B501460148FFF72DFC08BDA401002093
:1017600008B501460148FFF725FC08BDD801002057
:1017700008B501460148FFF71DFC08BD0C0200201A
:1017800008B5012806D0062000F018FA072000F05E
:1017900015FA08BD062000F0FBF9072000F0F8F963
:1017A000F7E700B97047FF207047000070B586B0BA
:1017B0002D4D2A6B2D4B19680A432A631A89019211
:1017C00011220292002403940322049201A9586872
:1017D00000F024FA2A6B264B19680A432A631A89F7
:1017E0000192244E0296039401A9586800F016FA5B
:1017F00022462146062000F085F92A6B1E4B196807
:101800000A432A631A8901920296039401A958682F
:1018100000F004FA22462146072000F073F9204622
:10182000FFF7BFFF0546044619E00F490A6B134B4B
:1018300004EB840C03EB4C0053F81CC042EA0C028E
:101840000A6302890192012202920022039203227A
:10185000049201A9406800F0E1F90134E4B2AC421D
:10186000E3D906B070BD00BF00380240640200201A
:101870004002002000002110580200204C020020ED
:1018800070B51A4C00222189606800F019FB012212
:101890002189606800F014FB0020FFF782FF0646F4
:1018A00005460EE02046FFF7FFF92046FFF74EFB06
:1018B0000134E4B20120FFF77DF8A042F2D20135F5
:1018C000EDB2B5420DD82846FFF71AFE084B0122AB
:1018D0001989586800F0F4FA0020FFF76BF8044605
:1018E000E8E73046FFF70CFE70BD00BF6402002041
:1018F000EC07002008B50020FFF753FFFFF700FEBC
:10190000FFF754FFFFF7BCFF0120FFF739FF08BDC9
:1019100000BF704700BF704708B5034B002219890C
:10192000586800F0CDFAFEE76402002010B50446C6
:101930000020FFF736FFA04210D00120FFF731FF53
:10194000A0420DD00220FFF72CFFA0420AD00320B6
:10195000FFF727FFA04207D0002010BD0348FCE797
:101960000348FAE70348F8E70348F6E7C002002017
:10197000D5020020EA020020FF02002038B504460C
:101980000D46D0F8113000789847D4F80930D3F8D4
:10199000013028469847D4F80D30D3F8013005F1CE
:1019A0005500984738BD000008B501460148FFF7CB
:1019B000E5FF08BDC002002008B501460148FFF759
:1019C000DDFF08BDD502002008B501460148FFF73C
:1019D000D5FF08BDEA02002008B501460148FFF71F
:1019E000CDFF08BDFF0200200F49D1F8883043F435
:1019F0007003C1F888300D4B1A6842F001021A607A
:101A0000002098601A6822F0847222F480321A60F2
:101A1000074A5A601A6822F480221A60D8604FF090
:101A200000638B60704700BF00ED00E000380240AB
:101A30001030002410B5044600F0BAFE064BA3FB9C
:101A40000030800900F0D0F8002221464FF0FF302E
:101A500000F058F8002010BDD34D621008B50B4BB4
:101A60001A6842F400721A601A6842F480621A60BE
:101A70001A6842F480721A60032000F025F80020F2
:101A8000FFF7D8FF02F09AF8002008BD003C0240A2
:101A9000024A136801331360704700BFF807002043
:101AA000014B1868704700BFF807002010B582B0DE
:101AB0000190FFF7F5FF0446FFF7F2FF001B019BC3
:101AC0009842F9D302B010BD10B50446C31E042BD2
:101AD0000FD80A4AD36823F4E0631B041B0C2402CA
:101AE00004F4E064234343F0BF6343F40033D36062
:101AF00010BDA421024802F05BF8EAE700ED00E027
:101B00000442000870B505460C4616460F2A25D833
:101B10000F2C28D81B4BDB68C3F30223C3F107014A
:101B2000042928BF04211A1D062A21D9033B4FF09E
:101B3000FF3202FA01F124EA01049C4002FA03F3A5
:101B400026EA03063443002D14DB2401E4B205F138
:101B5000604505F5614585F8004370BDBC210A4824
:101B600002F026F8D4E7BD21074802F021F8D1E7BA
:101B70000023DCE705F00F052401E4B2034B5C55BC
:101B8000EBE700BF00ED00E00442000814ED00E0C8
:101B900010B5041E08DB04F01F0264090123934002
:101BA000044A42F8243010BDD021034802F000F866
:101BB000F1E700BF00E100E00442000810B5041E98
:101BC00009DB04F01F026409012393402034044A16
:101BD00042F8243010BDE021024801F0E9FFF0E7AF
:101BE00000E100E0044200080138B0F1807F0BD230
:101BF0004FF0E0235861054AF02182F823100020BD
:101C0000986107221A6170470120704700ED00E0DB
:101C1000704708B5FFF7FCFF08BD00002DE9F0474D
:101C200082B007460E46A04B984217D003F580635A
:101C3000984213D003F5806398420FD003F5806378
:101C400098420BD003F58063984207D003F54063B8
:101C5000984203D0C521954801F0AAFF33689BB292
:101C600033B37368012B1ED9112B1CD0022B1AD051
:101C7000122B18D08E4A934215D002F5801293424F
:101C800011D002F5801293420DD0A2F5F8129342C2
:101C900009D002F58012934205D002F580129342DA
:101CA00001D0032B09D1B368022B0BD8002450E0DC
:101CB000C6217E4801F07CFFD3E7C7217B4801F0B5
:101CC00077FFF0E7C821794801F072FFEEE7D921EC
:101CD000764801F06DFF64E0EC21744801F068FF84
:101CE0008CE0042300E000238B400343023271495F
:101CF00041F82230704B1A686FEA080322EA0801A3
:101D0000706810F4803F01D048EA02016A4A11600D
:101D1000526803EA0201706810F4003F01D048EAFB
:101D20000201654A5160926803EA0201706810F48A
:101D3000801F01D048EA02015F4A9160D2681340D7
:101D4000716811F4001F01D048EA02035A4AD360B7
:101D500001340F2C00F2A5800125A540336803EA69
:101D6000050835EA0303F3D17368022B01D0122B67
:101D700027D13369ABB1092B13D0012B11D0022B22
:101D80000FD0042B0DD0052B0BD0062B09D0072B21
:101D900007D0082B05D00A2B03D00C2B01D00F2B1A
:101DA00095D1E208083257F8220004F007039900A1
:101DB0000F238B4020EA030033698B40034347F82D
:101DC00022303A684FEA440A032303FA0AF36FEA1F
:101DD000030922EA0302736803F0030303FA0AF318
:101DE00013433B6073685A1E012A03D9112B01D09B
:101DF000122B14D1F368032B3FF66EAFBB6809EAD0
:101E00000302F36803FA0AF31343BB607B6823EA17
:101E100005037568C5F30015A5401D437D60FB688B
:101E200009EA0303D6F8089009FA0AFA4AEA03090C
:101E3000C7F80C90736813F0805F89D01F4B5A6C01
:101E400042F480425A645B6C03F480430193019B2B
:101E5000A208911C174B53F8210004F003039900CA
:101E60000F238B4020EA03000F4B9F423FF43BAF10
:101E700003F580639F420ED003F580639F420CD030
:101E800003F580639F420AD003F580639F423FF4CD
:101E900028AF052328E7012326E7022324E70323AD
:101EA00022E702B0BDE8F08700000240504200087F
:101EB0000000111000380140003C01400038024091
:101EC00070B5054614460E4621B1012C08D86CB1F8
:101ED000AE6170BD40F2B111064801F069FEF4E751
:101EE0004FF4D971034801F063FEF0E73604AE61A8
:101EF000EFE700BF5042000808B5054B5B6903429D
:101F000000D108BD024B586101F004FDF9E700BFA4
:101F1000003C014030B583B0044603680F2B4FD816
:101F2000236813F0010F1ED06368012B01D9052B24
:101F30004CD1A84B9B6803F00C03042B0AD0A54B93
:101F40009B6803F00C03082B46D1A24B5B6813F48B
:101F5000800F41D09F4B1B6813F4003F03D0636890
:101F6000002B00F01482236813F0020F00F0988019
:101F7000E368012B6CD823691F2B6FD8954B9B68A6
:101F800013F00C0F75D0934B9B6803F00C03082BD8
:101F90006AD0E368002B00F0AF808F4B01221A60FB
:101FA000FFF77EFD05468B4B1B6813F0020F40F0D8
:101FB0009480FFF775FD401B6428F4D90320EBE102
:101FC0004FF48071854801F0F3FDA9E740F2051157
:101FD000824801F0EDFDACE77E4B00229A70FFF7DE
:101FE0005FFD05467B4B1B6813F4003F08D0FFF7ED
:101FF00057FD401B41F288339842F3D90320CBE1CF
:102000006368DBB2734A9370636883B1FFF748FD7E
:102010000546704B1B6813F4003FA4D1FFF740FD49
:10202000401B41F288339842F3D90320B4E1FFF713
:1020300037FD0546674B1B6813F4003F93D0FFF74D
:102040002FFD401B41F288339842F3D90320A3E1CE
:102050004FF4A371614801F0ABFD8CE740F24711EA
:102060005E4801F0A5FD89E75A4B5B6813F4800FC9
:102070008FD1584B1B6813F0020F03D0E368012B7C
:1020800040F087815348036823F0F8032169F82260
:1020900092FAA2F2B2FA82F201FA02F21343036058
:1020A000236813F0080F52D06369012B36D8636997
:1020B000002B39D0484B0122C3F8802EFFF7F0FCEB
:1020C0000546444B5B6F13F0020F40D1FFF7E8FC6D
:1020D000401B6428F5D903205EE13E48036823F0E5
:1020E000F8032169F82292FAA2F2B2FA82F201FA16
:1020F00002F213430360D3E7374B00221A60FFF765
:10210000CFFC0546334B1B6813F0020FC8D0FFF716
:10211000C7FC401B6428F5D903203DE140F287113C
:102120002E4801F045FDC2E72B4B0022C3F8802E5C
:10213000FFF7B6FC0546274B5B6F13F0020F06D086
:10214000FFF7AEFC401B6428F5D9032024E1236887
:1021500013F0040F6FD0A368012B01D9052B1DD1FB
:102160001C4B1A6C42F080521A641B6C03F08053B3
:102170000193019B1A4A136843F480731360FFF7BD
:102180008FFC0546164B1B6813F4807F0CD1FFF7BC
:1021900087FC401B6428F5D90320FDE040F2B11113
:1021A0000E4801F005FDDBE70A4B002283F87020A2
:1021B000FFF776FC0546074B1B6F13F0020F11D09B
:1021C000FFF76EFC401B41F288339842F3D903209D
:1021D000E2E000BF00380240000047429842000899
:1021E00000700040A368DBB26D4A82F87030A368CB
:1021F00083B1FFF755FC0546694B1B6F13F0020FC7
:1022000019D1FFF74DFC401B41F288339842F3D9B6
:102210000320C1E0FFF744FC0546614B1B6F13F040
:10222000020F08D0FFF73CFC401B41F28833984274
:10223000F3D90320B0E0A369022B38D8A369002B9F
:1022400000F0A980564A926802F00C02082A00F0B9
:10225000A580022B40F08780E36913B1B3F5800FAE
:102260002BD1236A3F2B2ED8636AC03BF02B30D88A
:10227000A36A022B05D0042B03D0062B01D0082B18
:102280002DD1E36A043B0B2B2FD8464B00221A6654
:10229000FFF706FC0546424B1B6813F0007F2AD06F
:1022A000FFF7FEFB401B6428F5D9032074E040F2E1
:1022B000F5113D4801F07CFCC0E74FF4FF713A484E
:1022C00001F076FCCDE740F2FF11374801F070FCD9
:1022D000CAE74FF40071344801F06AFCC8E740F2E5
:1022E0000121314801F064FCCBE740F202212E4885
:1022F00001F05EFCC9E7E369226A1343616A47F6AD
:10230000C07292FAA2F2B2FA82F201FA02F2134316
:10231000A26A5208013A4FF4403191FAA1F1B1FAA0
:1023200081F18A401343E16A4FF0706292FAA2F29F
:10233000B2FA82F201FA02F21343194A5360194BBE
:1023400001221A66FFF7ACFB0446154B1B6813F01D
:10235000007F06D1FFF7A4FB001B6428F5D90320FA
:102360001AE0002018E00F4B00221A66FFF798FBD6
:1023700004460B4B1B6813F0007F06D0FFF790FB61
:10238000001B6428F5D9032006E0002004E00120AA
:1023900002E0012000E0002003B030BD0120FBE797
:1023A00000380240000047429842000870B50446D9
:1023B0000D460368013B0E2B61D8072D65D89E4B57
:1023C0001B6803F00F03AB4280F0AF80EAB29A4B78
:1023D0001A701B6803F00F03AB4240F08E81236834
:1023E00013F0020F18D0A3687BB1802B0DD0902B77
:1023F0000BD0A02B09D0B02B07D0C02B05D0D02BF1
:1024000003D0E02B01D0F02B45D18C4A936823F008
:10241000F003A1680B439360236813F0010F00F0F1
:1024200028816368032B3CD86368012B3FD09A1E38
:10243000012A43D9814A126812F0020F00F05F812D
:102440007E498A6822F0030213438B60FFF728FB62
:1024500005466368012B38D0022B46D0032B54D09D
:10246000764B9B6813F00C0F00F00381FFF718FB0D
:10247000401B41F288339842F2D9032030E14FF4F7
:1024800018716F4801F094FB97E740F261216C48A6
:1024900001F08EFB93E740F27721694801F088FB59
:1024A000B3E740F27E21664801F082FBBCE7634A55
:1024B000126812F4003FC3D1012011E15F4A126893
:1024C00012F0007FBCD101200AE15C4B9B6803F055
:1024D0000C03042B00F0CD80FFF7E2FA431B41F21E
:1024E00088329342F1D90320FAE0544B9B6803F001
:1024F0000C03082B00F0BD80FFF7D2FA401B41F21D
:1025000088339842F1D90320EAE04C4B9B6803F0F2
:102510000C03032B00F0AD80FFF7C2FA401B41F221
:1025200088339842F1D90320DAE0236813F0020FD0
:1025300018D0A3687BB1802B0DD0902B0BD0A02B93
:1025400009D0B02B07D0C02B05D0D02B03D0E02B67
:1025500001D0F02B37D1394A936823F0F003A168FA
:102560000B439360236813F0010F7AD06368032B49
:102570002FD86368012B32D09A1E012A36D92F4AF0
:10258000126812F0020F00F0BC802C498A6822F019
:10259000030213438B60FFF783FA06466368012B3F
:1025A0002BD0022B38D0032B4CD0244B9B6813F03C
:1025B0000C0F56D0FFF774FA801B41F28833984213
:1025C000F3D903208CE040F2D1211D4801F0F0FA4C
:1025D000C1E74FF436711A4801F0EAFAC9E7174A21
:1025E000126812F4003FD0D1012079E0134A12683A
:1025F00012F0007FC9D1012072E0104B9B6803F0FC
:102600000C03042B2DD0FFF74BFA831B41F28832C9
:102610009342F2D9032063E0084B9B6803F00C035C
:10262000082B1ED0FFF73CFA801B41F288339842FA
:10263000F2D9032054E000BF003C024000380240C1
:1026400098420008314B9B6803F00C03032B08D021
:10265000FFF726FA801B41F288339842F2D9032013
:102660003EE0EAB22A4B1A701B6803F00F03AB423C
:1026700049D1236813F0040F14D0E3685BB1B3F5BC
:10268000805F08D0B3F5A05F05D0B3F5C05F02D07E
:10269000B3F5E05F25D11D4A936823F4E053E16868
:1026A0000B439360236813F0080F15D023695BB1C7
:1026B000B3F5805F08D0B3F5A05F05D0B3F5C05F78
:1026C00002D0B3F5E05F12D1104A936823F460435F
:1026D000216943EAC10393600020FFF7ABF90020B2
:1026E00070BD40F232310B4801F062FAD3E740F29C
:1026F0003931084801F05CFAE6E70120F0E70120F3
:10270000EEE70120ECE70120EAE700BF00380240D5
:10271000003C024098420008224B9B6803F00C03E7
:10272000042B3AD0082B3AD11E4A536803F03F03DA
:10273000526812F4800F1FD01B48B0FBF3F0194B06
:102740005A6847F6C0731A4093FAA3F3B3FA83F3B7
:1027500022FA03F303FB00F0124B5B6803F44033EF
:102760004FF4403292FAA2F2B2FA82F2D34001332D
:102770005B00B0FBF3F070470C48B0FBF3F0094B83
:102780005A6847F6C0731A4093FAA3F3B3FA83F377
:1027900022FA03F303FB00F0DEE703487047034827
:1027A000704700BF0038024000127A000024F40095
:1027B00008B5FFF7B1FF084B9B6803F0F003F02268
:1027C00092FAA2F2B2FA82F2D340044AD35CD84021
:1027D000034B186008BD00BF00380240E04200080B
:1027E0001403002008B5FFF7E3FF074B9B6803F4D1
:1027F000E0534FF4E05292FAA2F2B2FA82F2D340DE
:10280000024AD35CD84008BD00380240E0420008CC
:1028100008B5FFF7CDFF074B9B6803F460434FF407
:10282000604292FAA2F2B2FA82F2D340024AD35C38
:10283000D84008BD00380240E04200082DE9F041D0
:1028400005460E4690461C46FFF72AF90746B8F1A2
:10285000000F2ED02B689B6836EA03035BD1B4F1DE
:10286000FF3FF7D024B1FFF71BF9C01BA042F1D9FD
:102870002A68536823F0E00353602A68136823F042
:1028800040031360AB6AB3F5005F39D0012385F8CC
:102890005130002385F8503003202FE02A68136858
:1028A00023F4005313602A68136843F40053136041
:1028B0001BE02B689B6836EA03031ED0B4F1FF3F90
:1028C000F7D024B1FFF7ECF8C01BA042F1D92A6879
:1028D000536823F0E00353602A68136823F0400331
:1028E0001360AB6AB3F5005FD8D0012385F851308F
:1028F000002385F85030032000E04046BDE8F08119
:102900002A68136823F4005313602A68136843F499
:1029100000531360BAE70020F0E70000002800F041
:10292000D08010B5044643681BB1B3F5827F40F0F8
:102930008B80A36833B1B3F5806F03D0B3F5004F3C
:1029400040F08780E368B3F5006F02D0002B40F0C1
:102950008580236913B1022B40F085806369012BC8
:1029600000F28680A369B3F5007F04D01BB1B3F5F4
:10297000802F40F08280E3696BB1082B0BD0102BC5
:1029800009D0182B07D0202B05D0282B03D0302BB3
:1029900001D0382B76D1236A0BB1802B77D1636AB3
:1029A0000BB1102B78D1A36A13B1B3F5005F78D1C6
:1029B000E36A013B4FF6FE72934277D894F85130A8
:1029C000002B78D0022384F851302268136823F05A
:1029D000400313606368A2681343E26813432269EB
:1029E000134362691343A26902F400721343E2695C
:1029F0001343226A1343A16A22680B431360A3693D
:102A00001B0C03F00403616A22680B4353602368C4
:102A1000E26A1A612268D36923F40063D36194F8EF
:102A20005230002084F8520094F8533084F8530058
:102A300094F8543084F8540094F8553084F85500D4
:102A4000012384F8513010BDB8211F4801F0B0F8BF
:102A50006FE7B9211C4801F0ABF873E7BA211A48B7
:102A600001F0A6F875E7BB21174801F0A1F875E75A
:102A7000BC21154801F09CF874E7BD21124801F013
:102A800097F878E7BE21104801F092F883E7BF215C
:102A90000D4801F08DF882E7C0210B4801F088F85D
:102AA00081E7C121084801F083F881E7C221064887
:102AB00001F07EF882E784F85030204601F08AF871
:102AC00080E70120704700BFF04200082DE9F04187
:102AD00082B004460E4690461D46089F90F851303D
:102AE000DBB2012B02D0222B40F0B481002E00F08B
:102AF000B581B8F1000F00F0B381002D00F0B28174
:102B0000A368002B40F0A28094F85030012B00F015
:102B1000AB81012384F8503094F85130DBB2012BA3
:102B200000F09A8094F85230002384F8523094F8E0
:102B3000532084F8533094F8542084F8543094F897
:102B4000552084F85530C4F83880A587E58726637A
:102B5000A586E58684F8483084F8493084F84A3000
:102B600084F84B3084F84C3084F84D3084F84E3083
:102B700084F84F30A36AB3F5005F71D023681A68F8
:102B800012F0400F03D11A6842F040021A60E36865
:102B9000B3F5006F6FD063682BB1B3F5827F0BD1B3
:102BA000E38E012B08D1236B5A1C226322681B7809
:102BB000D360E38E013BE386E38E002B40F0F1808F
:102BC000A36AB3F5005F00F0D5803B4600220121E7
:102BD0002046FFF733FE002840F050812368DA6872
:102BE000A36B1A70E38F013BE387A36AB3F5005F21
:102BF00000F00D813B46012280212046FFF71EFE9A
:102C0000002840F01B81012384F85130226893682A
:102C100003F01003A16AB1F5005F40F01781002BAB
:102C200000F01481D4F8523043F00203C4F852305B
:102C3000136823F4005313602268136843F40053AD
:102C40001360002384F85030012004E14FF4267112
:102C50008E4800F0ADFF57E7322384F8513061E72A
:102C60002268136823F4005313602268136843F446
:102C70000053136082E763682BB1B3F5827F0CD1F8
:102C8000E38E012B09D1226B23681288DA60236B53
:102C900002332363E38E013BE386E38E83BBA36AA7
:102CA000B3F5005F13D03B46002201212046FFF719
:102CB000C5FD002840F0DA802368DA68A36B1A802B
:102CC000A36B0233A363E38F013BE3878DE72268A5
:102CD000136843F480531360E5E73B46002201216B
:102CE0002046FFF7ABFD002840F0C4802368DA6877
:102CF000A36B1A80A36B0233A363E38F013BE387CB
:102D0000E38EFBB13B46002202212046FFF796FDF1
:102D1000002840F0AD80226B23681288DA60236BB4
:102D200002332363E38E013B9AB2E386002AD4D1B7
:102D3000A36AB3F5005FD0D12268136843F48053CF
:102D40001360CAE76368002B7FF44FAF3B46002255
:102D500001212046FFF772FD002840F08D80236896
:102D6000DA68A36B1A80A36B0233A363E38F013B82
:102D7000E3873AE72268136843F48053136024E73B
:102D80003B46002201212046FFF758FD002879D15B
:102D90002368DA68A36B591CA1631A70E38F013BA7
:102DA000E387E38EEBB13B46002202212046FFF78A
:102DB00045FD002864D1236B5A1C226322681B78CE
:102DC000D360E38E013B9AB2E386002AD8D1A36A8E
:102DD000B3F5005FD4D12268136843F480531360C5
:102DE000CEE76368002B7FF400AF3B460022012151
:102DF0002046FFF723FD002846D12368DA68A36B3D
:102E0000591CA1631A70E38F013BE387EDE63B4653
:102E1000002201212046FFF711FD38B92368DB6845
:102E20009BB2ADF80630BDF80630E3E6D4F8523078
:102E300043F00203C4F8523003200CE0D4F85230BF
:102E400043F02003C4F85230032004E0002384F848
:102E5000503000E0022002B0BDE8F0810120FAE726
:102E60000120F8E70120F6E70220F4E70320F2E76B
:102E70000320F0E70320EEE70320ECE70320EAE776
:102E80000320E8E70320E6E70320E4E7F042000838
:102E900090F83930DBB2122B03D0322B01D0022054
:102EA00070478368B3F5805F16D0036A5A1C0262CC
:102EB0001A7803685A60C38C013B9AB2C3844AB93A
:102EC0000268D36823F08003D3600268D36843F0BC
:102ED0004003D36000207047036A1B880268C3F375
:102EE0000803536003691BB9036A02330362E2E714
:102EF000036A01330362DEE7F8B504464268964B85
:102F00009A4275D8E36813B1B3F5005F76D12369AF
:102F10002BB1B3F5806F02D0B3F5C06F74D1636984
:102F20004FF6F372134200D123B940F239718B4846
:102F300000F03EFE21680B6923F44052E36813431E
:102F40000B612168CB6823F4164222F00C02A368BF
:102F50002069034360690343E06903431343CB6083
:102F600021684B6923F44072A36913434B61E36901
:102F7000B3F5004F4ED02368794A934200F0B880F1
:102F800002F58062934200F0B380FFF72BFC00EB68
:102F9000800000EB80006668B600B0FBF6F6714F6B
:102FA000A7FB063676093601FFF71CFC00EB800014
:102FB00000EB80006568AD00B0FBF5F5FFF712FC93
:102FC00000EB800000EB800063689B00B0FBF3F037
:102FD000A7FB00304009642303FB1050000132308E
:102FE000A7FB0037C7F34317236837439F60B1E05F
:102FF00040F23671594800F0DBFD83E740F237714B
:10300000564800F0D5FD82E74FF4E761534800F0E1
:10301000CFFD84E72368524A934236D002F580629E
:10302000934232D0FFF7DEFB00EB800000EB800024
:1030300066687600B0FBF6F64A4FA7FB06367609BF
:103040003601FFF7CFFB00EB800000EB80006568E6
:103050006D00B0FBF5F5FFF7C5FB00EB800000EB62
:10306000800063685B00B0FBF3F3A7FB03235B09FD
:10307000642202FB13531B013233A7FB0337C7F350
:103080004317236837439F6064E0FFF7C1FB00EB01
:10309000800000EB800066687600B0FBF6F6314FEA
:1030A000A7FB063676093601FFF7B2FB00EB80007E
:1030B00000EB800065686D00B0FBF5F5FFF7A8FB3D
:1030C00000EB800000EB800063685B00B0FBF3F373
:1030D000A7FB03235B09642202FB13531B0132335A
:1030E000A7FB0337C7F34317236837439F6031E0DB
:1030F000FFF78EFB00EB800000EB80006668B600F7
:10310000B0FBF6F6174FA7FB063676093601FFF738
:103110007FFB00EB800000EB80006568AD00B0FB3A
:10312000F5F5FFF775FB00EB800000EB80006368AE
:103130009B00B0FBF3F0A7FB00304009642303FBC6
:10314000105000013230A7FB0037C7F34317236844
:1031500037439F60F8BD00BFA037A0003843000888
:10316000001001401F85EB512DE9F04105460E4648
:1031700090461C46FEF794FC0746B8F1000F29D094
:103180002B681B6836EA030351D1B4F1FF3FF7D037
:1031900024B1FEF785FCC01BA042F1D92A68D36890
:1031A00023F08003D3602A68D36823F02003D36020
:1031B0002A68D36823F48073D3602A68536923F0A4
:1031C00001035361012385F83930002385F8383035
:1031D00003202AE02B681B6836EA030324D0B4F1ED
:1031E000FF3FF7D024B1FEF75BFCC01BA042F1D932
:1031F0002A68D36823F08003D3602A68D36823F059
:103200002003D3602A68D36823F48073D3602A68CC
:10321000536923F001035361012385F839300023FA
:1032200085F83830032000E04046BDE8F0810020FA
:10323000FBE70000002800F0838010B50446836996
:10324000FBB103683F4A93420BD0A2F54C42934234
:1032500007D002F55042934203D0FC213A4800F0D7
:10326000A7FCA369F3B1B3F5807F1BD0B3F5007F52
:1032700018D0B3F5407F15D0FD21334800F098FCFD
:1032800010E003682F4A93420CD0A2F54C429342BF
:1032900008D002F55042934204D040F201112A486E
:1032A00000F086FCA36813B1B3F5805F36D1E36903
:1032B00013B1B3F5004F37D194F83930D3B30223AB
:1032C00084F839302268D36823F40053D360204651
:1032D000FFF712FE2268136923F4904313612268FA
:1032E000536923F02A0353612268D36843F40053DF
:1032F000D36094F83A30002084F83A0094F83B30D8
:1033000084F83B0094F83C3084F83C0094F83D305D
:1033100084F83D00012384F8393010BD40F20311D8
:10332000094800F045FCC2E74FF48271064800F0FE
:103330003FFCC1E784F83830204600F0B9FCBEE716
:1033400001207047001001403843000870B5044662
:103350000D461E4690F83930DBB2012B01D0222BEE
:1033600069D1002D69D0002A69D094F83830012B3A
:1033700067D0012384F8383094F83A30002384F879
:103380003A3094F83B1084F83B3094F83C1084F8C1
:103390003C3094F83D1084F83D3094F83930DBB27D
:1033A000222B05D0122384F83930A284E2841AE05B
:1033B000322384F83930F8E7334600228021204652
:1033C000FFF7D2FE00283ED12B882268C3F3080302
:1033D000536023690BB9023505E0013503E015F8A8
:1033E000012B23685A60E28C7AB1013AE284A26828
:1033F000B2F5805FE0D03346002280212046FFF7FF
:10340000B3FE0028EBD0032016E0334640212046CF
:10341000FFF7AAFEC8B994F83930DBB2322B06D0D8
:10342000012384F83930002384F8383004E0222363
:1034300084F83930F7E7022070BD0120FCE7012055
:10344000FAE70220F8E70320F6E70320F4E77047E5
:1034500008B50268D36823F04003D36090F8393090
:10346000DBB2322B10D00268D36823F48073D360B0
:103470000268536923F001035361012380F8393056
:10348000FFF7E5FF002008BD222380F83930F7E779
:10349000704708B590F83930DBB2222B01D0322BBF
:1034A0004ED18368B3F5805F29D00369002B3AD1F0
:1034B00003685A68836A591C81621A70C38D013B84
:1034C0009AB2C385002A3DD10268D36823F0200355
:1034D000D36090F83930DBB2322B2DD00268D3683C
:1034E00023F48073D3600268536923F001035361AE
:1034F000012380F83930FFF7CBFF002023E0826AF8
:10350000036943B903685B68C3F308031380836AE4
:1035100002338362D2E703685B68DBB21380836A9D
:1035200001338362CAE703685B68826A511C816267
:1035300003F07F031370C1E7122380F83930DAE714
:10354000022000E0002008BD704710B584B004469A
:1035500003681968DA6811F0010F0DD002F4807267
:1035600052B11A6800925A680092009AD0F83A2034
:1035700042F00102C0F83A2019685A6902F00102CB
:1035800011F0020F0BD052B11A6801925A680192E1
:10359000019AD4F83A2042F00402C4F83A2019689B
:1035A0005A6902F0010211F0040F0BD052B11A68EF
:1035B00002925A680292029AD4F83A2042F0020229
:1035C000C4F83A2019685A6902F0010211F0080F94
:1035D0000BD052B11A6803925A680392039AD4F836
:1035E0003A2042F00802C4F83A201A68DB6803F077
:1035F000200312F0200F00D0B3B923681A68DB68EB
:1036000003F0800312F0800F00D08BB923681A6892
:10361000DB6803F0400312F0400F00D063B9D4F828
:103620003A306BB904B010BD2046FFF732FFE4E733
:103630002046FFF72DFCE9E72046FFF709FFEEE7FC
:10364000012384F839302046FFF77EFFEAE702467F
:103650000120002303E002FB00F00133DBB28B42C8
:10366000F9D370472DE9F047A749A84800F064F95D
:1036700000F076FA00F09EFA8146002555B1A44983
:10368000A24800F059F900F06BFA0020FEF789F823
:1036900006464BE02846FEF784F8FEF747F9044655
:1036A000D0F80130AA2000FB059098470135EDB213
:1036B000E4E7D4F80530D3F810A0434601222946A8
:1036C0003046D047D4F805309B6C0122294630465D
:1036D00098470028F6D04FF47A70FEF7E7F90137E3
:1036E000FFB2032FE5D90135EDB20120FDF762F9F4
:1036F000A84219D305EB460303EB830303EB031343
:103700004B44D3F8048007EE908AFCEEE77A17EE7C
:10371000908A93F851100220FFF799FF00FB08F8F8
:103720004FEA98080027DCE70136F6B20020FEF7E2
:1037300038F8B04208D33046FEF7F8F804460020C7
:10374000FDF738F90546D0E740F6C410FEF7AEF9AC
:103750000020FEF726F8064624E005EB460303EBBF
:10376000830303EB03134B441B6900EE103AFCF791
:10377000D5FF0246AB1C04EB8303D3F80130D3F82A
:1037800005301B6D0121284698470135EDB2012017
:10379000FDF710F9A842E0D2D4F80530DB6C984769
:1037A0000136F6B20020FDF7FCFFB04204D3002042
:1037B000FDF700F90546EAE742F21070FEF776F9E8
:1037C0000020FDF7EEFF064617E0AB1C04EB830379
:1037D000D3F80130D3F80530D3F880302846984725
:1037E0000135EDB20120FDF7E5F8A842EDD2D4F89D
:1037F0000530DB6C98470136F6B20020FDF7D1FFAB
:10380000B04204D30020FDF7D5F80546EAE70020D2
:10381000FDF7C7FF06463CE0D4F80530D3F810A00A
:103820004346012229463046D047D4F805309B6CE8
:1038300001222946304698470028F6D04FF47A7086
:10384000FEF734F90137FFB2072FE5D90135EDB2A4
:103850000120FDF7AFF8A84219D305EB460303EBAF
:10386000830303EB03134B44D3F8048007EE908AE1
:10387000FCEEE77A17EE908A93F851100220FFF7DA
:10388000E6FE00FB08F84FEAD8080027DCE701361F
:10389000F6B20020FDF785FFB04208D33046FEF7B0
:1038A00045F804460020FDF785F80546D0E70020DE
:1038B000FDF777FF064617E0AB1C04EB8303D3F854
:1038C0000130D3F80530D3F88830284698470135C1
:1038D000EDB20120FDF76EF8A842EDD2D4F8053024
:1038E000DB6C98470136F6B20020FDF75AFFB04274
:1038F00004D30020FDF75EF80546EAE70020FDF757
:10390000BFFCBDE8F08700BF804300080808002026
:10391000A043000808B502280BD0B0F5005F02D024
:10392000012803D008BDFDF7F7FFFBE7FDF7F0FF27
:10393000F8E7FDF7EFFFF5E710B500231A4601336E
:10394000DBB28C5C002CF9D10A23FFF7FFFC10BD21
:1039500010B5134C13492046FFF7EEFF12492046DD
:10396000FFF7EAFF11492046FFF7E6FF104920461E
:10397000FFF7E2FF0F492046FFF7DEFF0E49204622
:10398000FFF7DAFF0D492046FFF7D6FF0C49204626
:10399000FFF7D2FF0B492046FFF7CEFF10BD00BF57
:1039A0000808002000440008C0430008D443000871
:1039B0000444000834440008444400085444000807
:1039C000584400087044000810B5044603685B685A
:1039D000C28D012A03D0DBB20D2B00D010BD013205
:1039E000E285A36A5A1EA262002203F8012C124942
:1039F0002046FFF7A1FF23681A6812F0200FFAD1C2
:103A0000DA6822F02002DA6094F83930DBB2322B27
:103A10000DD02268D36823F48073D3602268536981
:103A200023F001035361012384F83930D6E71223D0
:103A300084F83930D2E700BF00440008032903D8D6
:103A4000DFE801F00E05080B4FF0000C0AE04FF024
:103A5000020C07E04FF0040C04E04FF0080C01E00A
:103A60004FF0010C002204E037330E498B54013231
:103A7000D2B2624511D20B4B002199540CF1FF33A5
:103A80009B1A99000F238B400340CB40DBB2092BDC
:103A9000EAD8303303498B54E9E7024800238354C2
:103AA000704700BFFC070020F8B504460F46FDF73D
:103AB00027FD00B9F8BD244D24492846FFF73CFFF7
:103AC00023492846FFF738FF00213846FFF7B6FFA5
:103AD00001462846FFF730FF1E492846FFF72CFF16
:103AE00000212046FFF7AAFF01462846FFF724FFE2
:103AF00019492846FFF720FF00241EE021463846DA
:103B0000FDF788F906462046FDF744FA0E4D0146BA
:103B10002846FFF711FF11492846FFF70DFF032143
:103B20003046FFF78BFF01462846FFF705FF0749A0
:103B30002846FFF701FF0134E4B2182CDED903490F
:103B40000148FFF7F9FEB5E7080800200044000827
:103B500090440008B4440008C4440008CC44000861
:103B600038B50020FDF71DFE05460CE0214628462D
:103B7000FFF79AFF0134E4B20120FCF71BFFA042DB
:103B8000F4D20135EDB20020FDF70BFEA84204D3BC
:103B90000020FCF70FFF0446EEE738BD08B5FDF73F
:103BA0009DFCFDF7A7FEFFF7D3FEFFF75BFDFEE7E9
:103BB0007047000000487047D044000808B507204F
:103BC000FDF782FF002211464FF0FF30FDF79AFF0C
:103BD00008BD0000F0B58BB00368304A934204D0B2
:103BE0002F4A934236D00BB0F0BD2E4B1A6B42F0E9
:103BF00001021A631A6B02F001020092009A1A6B1A
:103C000042F002021A631A6B02F002020192019A58
:103C10005A6C42F480525A645B6C03F480530293F2
:103C2000029BC023059302270697002607960325CB
:103C300008950524099405A91B48FDF7EFFF082303
:103C40000593069707960895099405A91748FDF767
:103C5000E5FFC8E7134B1A6B42F002021A631A6BB6
:103C600002F002020392039A1A6C42F480421A6430
:103C70001B6C03F480430493049B4FF4604305934F
:103C80000223069300230793032308930523099334
:103C900005A90648FDF7C2FFA5E700BF00300140B7
:103CA000003800400038024000000240000402409A
:103CB0000268194B9A4200D0704710B588B003F5DE
:103CC000FA331A6B42F001021A631A6B02F0010216
:103CD0000192019A1A6C42F400321A641B6C03F4CC
:103CE00000330293029B0C230393022304930024CA
:103CF0000594032306930723079303A90748FDF7B9
:103D00008DFF224621462620FDF7FCFE2620FDF7EA
:103D10003FFF08B010BD00BF00440040000002405B
:103D200008B5FDF7B5FEFDF774FF08BD08B5022024
:103D3000FEF7E2F808BD08B50120FEF7DDF808BD82
:103D400010B5044C2046FFF700FC2046FFF73CFE70
:103D500010BD00BF0808002008B54FF40050FEF762
:103D6000CBF808BD72B6DFF838D0002103E00D4B68
:103D70005B58435004310C480C4B42189A42F6D31E
:103D80000B4A02E0002342F8043B0A4B9A42F9D363
:103D9000FDF72AFE00F012F862B6FFF7FFFE70474B
:103DA0000080012088470008000000204407002010
:103DB000440700204C080020FEE7000070B50D4EBF
:103DC0000D4D761BB61006D0002455F8043B013487
:103DD0009847A642F9D1094E094D761B00F082F8AA
:103DE000B61006D0002455F8043B01349847A6428B
:103DF000F9D170BD7C4700087C4700088447000863
:103E00007C470008024B13B1024800F005B8704728
:103E100000000000253E0008002301461A4618460F
:103E200000F01AB838B5084B084D5B1B9C1007D042
:103E3000043B1D44013C55F804399847002CF9D146
:103E4000BDE8384000F054B88847000884470008AF
:103E5000704700BF704700BF2DE9F047DFF880A032
:103E60000646DAF8000098460F469146FFF7F0FF45
:103E70001A4B1B68D3F8484124B365681F2D26DC14
:103E80005EB96B1C0235DAF80000636044F82570F7
:103E9000FFF7E0FF0020BDE8F08704EB8501012378
:103EA000C1F88890D4F88821AB401A43022EC4F898
:103EB0008821C1F80881E4D1D4F88C211343C4F8D7
:103EC0008C31DEE703F5A674C3F84841D5E7DAF88C
:103ED0000000FFF7BFFF4FF0FF30DCE77847000836
:103EE00040070020F8B500BFF8BC08BC9E467047EC
:0C3EF000F8B500BFF8BC08BC9E46704747
:103EFC005253540000435059000100004E4F5000E3
:103F0C0000000000000000000000534554504152D6
:103F1C00414D000000000002474554504152414DB4
:103F2C0000000000200152554E000000000000006F
:103F3C000000500253544550434C4F434B0000007B
:103F4C0058014D4F56450000000000000000400293
:103F5C00474F544F00000000000000006001474F25
:103F6C00544F5F444952000000006802474F554EC1
:103F7C0054494C0000000000820352454C4541530B
:103F8C004553570000009202474F484F4D450000E3
:103F9C00000000007000474F4D41524B00000000E4
:103FAC00000078005245534554504F530000000018
:103FBC00D800524553455444455649434500C0002A
:103FCC00534F465453544F5000000000B00048412A
:103FDC00524453544F5000000000B800534F465405
:103FEC0048495A0000000000A0004841524448498A
:103FFC005A0000000000A800474554535441545542
:10400C0053000000D0000000524556000000000094
:10401C0000465744000000000001000001414253DB
:10402C005F504F5300000000001603000000000218
:10403C00454C5F504F530000000000000902000087
:10404C000000034D41524B00000000000000001620
:10405C0003000000000453504545440000000000DC
:10406C000000140300000000054143430000000061
:10407C0000000000000C028A0000000644454300CA
:10408C0000000000000000000C028A000000074D38
:10409C0041585F53504545440000000A024100005E
:1040AC0000084D494E5F53504545440000000D0239
:1040BC00000000001546535F535044000000000000
:1040CC00000A0227000000094B56414C5F484F4C38
:1040DC00440000000801290000000A4B56414C5FC7
:1040EC0052554E000000000801290000000B4B56F1
:1040FC00414C5F41434300000000080129000000CF
:10410C000C4B56414C5F444543000000000801290C
:10411C000000000D494E545F5350454544000000CB
:10412C000E02080400000E53545F534C5000000064
:10413C000000000801190000000F464E5F534C5060
:10414C005F414343000008012900000010464E5F08
:10415C00534C505F444543000008012900000011F6
:10416C004B5F544845524D00000000000401000014
:10417C000000124144435F4F5554000000000005FD
:10418C000100000000134F43445F5448000000003E
:10419C000000040108000000145354414C4C5F54BF
:1041AC004800000000070140000000165354455021
:1041BC005F4D4F4445000000080107000000174107
:1041CC004C41524D5F454E000000000801FF0000BD
:1041DC000018434F4E4649470000000000001002F3
:1041EC00882E000019535441545553000000000010
:1041FC0000100200000000002E2E2F2E2E2F2E2E2F
:10420C002F2E2E2F2E2E2F2E2E2F44726976657266
:10421C00732F53544D3332463478785F48414C5F9A
:10422C004472697665722F5372632F73746D3332D7
:10423C00663478785F68616C5F636F727465782E32
:10424C00630000002E2E2F2E2E2F2E2E2F2E2E2FD3
:10425C002E2E2F2E2E2F447269766572732F535487
:10426C004D3332463478785F48414C5F44726976FE
:10427C0065722F5372632F73746D33326634787892
:10428C005F68616C5F6770696F2E63002E2E2F2E36
:10429C002E2F2E2E2F2E2E2F2E2E2F2E2E2F4472D3
:1042AC0069766572732F53544D3332463478785F88
:1042BC0048414C5F4472697665722F5372632F7359
:1042CC00746D3332663478785F68616C5F726363E7
:1042DC002E6300000000000001020304010203042D
:1042EC00060708092E2E2F2E2E2F2E2E2F2E2E2F78
:1042FC002E2E2F2E2E2F447269766572732F5354E7
:10430C004D3332463478785F48414C5F447269765D
:10431C0065722F5372632F73746D333266347878F1
:10432C005F68616C5F7370692E6300002E2E2F2EF8
:10433C002E2F2E2E2F2E2E2F2E2E2F2E2E2F447232
:10434C0069766572732F53544D3332463478785FE7
:10435C0048414C5F4472697665722F5372632F73B8
:10436C00746D3332663478785F68616C5F75617236
:10437C00742E6300496E697469616C2076616C758A
:10438C00657320666F7220726567697374657273EA
:10439C003A0D0A00437573746F6D2076616C756508
:1043AC007320666F72207265676973746572733AF5
:1043BC000D0A000020582D4E55434C454F2D4948B1
:1043CC004D303241310D0A00202D2D2D2D2D2D2D4E
:1043DC002D2D2D2D2D2D2D2D2D2D2D2D2D2D2D2D01
:1043EC002D2D2D2D2D2D2D2D2D2D2D2D2D2D2D2DF1
:1043FC002D2D2D2D0D0A0000204475616C204C369E
:10440C0034373020457870616E73696F6E20426F5F
:10441C0061726420666F722053544D3332204E55B6
:10442C00434C454F0D0A000020537461636B656467
:10443C00206F6E20000000004E55434C454F2D461A
:10444C003430315245000000200D0A0020582D4315
:10445C005542452D53504E322076312E312E310D92
:10446C000A0000002053544D6963726F656C6563DC
:10447C0074726F6E6963732C20323031350D0A0DF6
:10448C000A00000056616C756573206F66207468B5
:10449C006520726567697374657273206F66204C52
:1044AC00363437305F230000206F66204578704229
:1044BC0072645F23000000000D0A0D0A000000006A
:1044CC003A200000000010410000C8439A99D93FDF
:1044DC000AD74340000070430000C8430000C843A3
:1044EC000000A04300000000CDAC16440AD74340A6
:1044FC000AD743400AD743400AD743407B1476423D
:10450C00689ACD393598283A3598283A0000605287
:10451C004500403F4507FF882E000010410000C8B1
:10452C00439A99D93F0AD74340000070430000C812
:10453C00430000C8430000A04300000000CDAC16AF
:10454C00440AD743400AD743400AD743400AD743CB
:10455C00407B147642689ACD393598283A3598289C
:10456C003A000060524500403F4507FF882E00008E
:10457C0010410000C8439A99D93F0AD74340000024
:10458C0070430000C8430000C8430000A043000073
:10459C000000CDAC16440AD743400AD743400AD793
:1045AC0043400AD743407B147642689ACD393598FC
:1045BC00283A3598283A000060524500403F45079C
:1045CC00FF882E000010410000C8439A99D93F0A79
:1045DC00D74340000070430000C8430000C84300AC
:1045EC0000A04300000000CDAC16440AD743400A9B
:1045FC00D743400AD743400AD743407B14764268DE
:10460C009ACD393598283A3598283A0000605245A9
:10461C0000403F4507FF882E000010410000C843B2
:10462C009A99D93F0AD74340000070430000C84311
:10463C000000C8430000A04300000000CDAC1644AD
:10464C000AD743400AD743400AD743400AD74340CE
:10465C007B147642689ACD393598283A3598283AA1
:10466C00000060524500403F4507FF882E000010B7
:10467C00410000C8439A99D93F0AD74340000070C3
:10468C00430000C8430000C8430000A043000000E2
:10469C0000CDAC16440AD743400AD743400AD7434F
:1046AC00400AD743407B147642689ACD3935982816
:1046BC003A3598283A000060524500403F4507FFC4
:1046CC00882E000010410000C8439A99D93F0AD7A0
:1046DC004340000070430000C8430000C843000082
:1046EC00A04300000000CDAC16440AD743400AD7C3
:1046FC0043400AD743400AD743407B147642689A1A
:10470C00CD393598283A3598283A00006052450042
:10471C00403F4507FF882E000010410000C8439A17
:10472C0099D93F0AD74340000070430000C84300AA
:10473C0000C8430000A04300000000CDAC16440AA2
:10474C00D743400AD743400AD743400AD743407B5C
:10475C00147642689ACD393598283A3598283A001B
:10476C000060524500403F4507FF882E180300208B
:08477C00053E000825020008BB
:044784000102000826
:10478800310A0008150E0008690A0008A10A000885
:10479800D90A0008110B0008510B0008910B0008FA
:1047A800C90B0008010C0008390C0008710C00083E
:1047B800A90C0008E10C0008190D0008510D0008AB
:1047C800890D00084D0F0008D5020008F502000801
:1047D8001503000835030008550300087503000891
:1047E80095030008B5030008D1030008F103000889
:1047F8000D040008290400084504000861040008A5
:104808007D04000899040008B5040008D1040008D4
:104818006D0E0008900700200008024000000240CA
:104828000001170008000000200000000000000040
:104838000000000000000000000000000000000070
:104848000000000000000000000000000000000060
:1048580000000000011117000800000020000000FF
:104868000000000000000000000000000000000040
:104878000000000000000000000000000000000030
:1048880000000000000000000021170008000000E0
:1048980020000000000000000000000000000000F0
:1048A8000000000000000000000000000000000000
:1048B80000000000000000000000000001311700A7
:1048C80008000000200000000000000000000000B8
:1048D80000000000000000000000000000000000D0
:1048E80000000000000000000000000000000000C0
:1048F8000041170008000000200000000000000030
:10490800000000000000000000000000000000009F
:10491800000000000000000000000000000000008F
:1049280000000000015117000800000020000000EE
:10493800000000000000000000000000000000006F
:10494800000000000000000000000000000000005F
:1049580000000000000000000061170008000000CF
:10496800200000000000000000000000000000001F
:10497800000000000000000000000000000000002F
:104988000000000000000000000000000171170096
:1049980008000000200000000000000000000000E7
:1049A80000000000000000000000000000000000FF
:1049B80000000000000000000000000000000000EF
:1049C800040000000008024001000000010000008F
:1049D800000002401000000004000000000802402F
:1049E8000200000002000000000402402000000055
:1049F80067150008831500089D150008B9150008FB
:104A0800D1150008ED150008051600082116000844
:104A18003F1600085B1600086F160008831600088A
:104A28003D15000897160008AB160008BF160008C9
:104A3800D316000851150008E7160008C10D000834
:104A480000A919000870020020A0000020D400006E
:104A5800200115000801B91900087002002008019A
:104A680000203C0100200115000802C91900087047
:104A780002002070010020A4010020011500080395
:104A8800D919000870020020D80100200C0200206B
:104A9800011500080024F4000000000004060020AE
:104AA8006C060020D4060020000000000000000072
:104AB80000000000000000000000000000000000EE
:104AC80000000000000000000000000000000000DE
:104AD80000000000000000000000000000000000CE
:104AE80000000000000000000000000000000000BE
:104AF80000000000000000000000000000000000AE
:104B0800000000000000000000000000000000009D
:104B1800000000000000000000000000000000008D
:104B2800000000000000000000000000000000007D
:104B3800000000000000000000000000000000006D
:104B480001000000000000000E33CDAB34126DE60A
:104B5800ECDE05000B000000000000000000000073
:104B6800000000000000000000000000000000003D
:104B7800000000000000000000000000000000002D
:104B8800000000000000000000000000000000001D
:104B9800000000000000000000000000000000000D
:044EC8004808002076
:0400000508003D654D
:00000001FF
