:020000040800F2
:10000000008001203D5100088D5100088D510008ED
:100010008D5100088D5100088D510008000000002E
:100020000000000000000000000000008D510008EA
:100030008D510008000000008D510008E9500008B3
:100040008D5100088D5100088D5100088D51000818
:100050008D5100088D51000807510008F950000823
:100060008D5100088D5100088D5100088D510008F8
:100070008D5100088D5100088D5100088D510008E8
:100080008D5100088D5100088D51000800000000BE
:100090000000000000000000000000008D5100087A
:1000A0008D5100088D5100088D5100088D510008B8
:1000B0008D5100088D5100088D5100088D510008A8
:1000C0008D5100088D5100088D5100088D51000898
:1000D0008D5100088D5100081551000800000000E6
:1000E0002D5100088D5100088D51000800000000BE
:1000F0000000000000000000000000008D5100081A
:10010000000000008D5100088D5100088D5100083D
:1001100000000000000000000000000000000000DF
:100120008D5100088D5100088D5100088D51000837
:100130008D510008000000000000000000000000D9
:100140000000000000000000000000008D510008C9
:100150008D5100088D5100088D5100088D51000807
:100160008D5100088D5100080000000000000000C3
:10017000000000000000000000000000000000007F
:10018000000000008D510008000000000000000089
:040190008D51000885
:1001940010B5054C237833B9044B13B10448AFF3BD
:1001A40000800123237010BD3C00002000000000EB
:1001B400D851000808B5034B1BB103490348AFF3FA
:1001C400008008BD0000000040000020D851000855
:1001D40080B485B000AF78600023FB731AE0FB7B2A
:1001E4001B017A68134400221A70FB7B1B017A6896
:1001F400134400225A60FB7B1B017A6813440022DB
:100204009A60FB7B1B017A6813440022DA60FB7B53
:100214000133FB73FB7B012BE1D900BF00BF143713
:10022400BD465DF8047B704780B485B000AFB9600B
:100234007B600346FB731346BB73FB7B1B01BA68ED
:100244001344BA7B1A70FB7B1B01BA6813447A68A7
:100254005A60FB7B1B01BA681344BA699A60FB7B42
:100264001B01BA681344FA69DA6000BF1437BD464B
:100274005DF8047B7047000080B586B002AFB960BA
:100284007B600346FB731346BB730C4B1B78002B3C
:1002940005D10A4B01221A70B868FFF799FFBA7B9F
:1002A400F87BFB690193BB6900937B68B968FFF72E
:1002B400BBFF00BF1037BD4680BD00BF88000020D3
:1002C40080B485B000AF7860396000237B7300236D
:1002D400BB7313E00023FB730AE07B7B5A1C7A7325
:1002E4001A463B68134400221A70FB7B0133FB73EC
:1002F400FB7B012BF1D9BB7B0133BB73BB7B032B92
:10030400E8D90023FB73F6E1FB7B1B017A681344F5
:100314001B781846FB7B3A681A44A5490346DB0060
:100324001B1A5B000B440C331B781370FB7B1B0103
:100334007A6813441B78122B00F2DA8101A252F876
:1003440023F000BFF5060008950300081B0400080D
:1003540049040008B1040008DF0400084705000848
:1003640083050008F705000893060008F506000851
:10037400F5060008F5060008F5060008F50600086D
:10038400F5060008F5060008F5060008F50600085D
:10039400FB7B3A6813441978FB7B1B017A6813448E
:1003A4005A68844813469B0013449B0003441A78FC
:1003B400FB7B386803440A43D2B21A70FB7B1B01EF
:1003C4007A6813445A687B4913469B0013449B0084
:1003D4000B440E331B783B730123BB7316E0FB7B8A
:1003E4001B017A6813449A68397BBB7BCB1ADB0008
:1003F40022FA03F1BB7B5A00FB7B13441A463B6889
:100404001344CAB21A70BB7B0133BB733A7BBB7B08
:100414009A42E4D26CE1FB7B3A6813441978FB7B83
:100424001B017A6813445A68624813469B001344BC
:100434009B0003441A78FB7B386803440A43D2B216
:100444001A7055E1FB7B3A6813441978FB7B1B0156
:100454007A6813445A6858481346DB00134403442B
:1004640008331A78FB7B386803440A43D2B21A7003
:100474000123BB7316E0FB7B1B017A6813449A6863
:10048400BB7BC3F10303DB0022FA03F1BB7B5A00FD
:10049400FB7B13441A463B681344CAB21A70BB7BF5
:1004A4000133BB73BB7B032BE5D921E1FB7B3A68AA
:1004B40013441978FB7B1B017A6813445A683E483D
:1004C4001346DB001344034408331A78FB7B386873
:1004D40003440A43D2B21A700AE1FB7B3A6813441C
:1004E4001978FB7B1B017A6813445A683248134617
:1004F400DB001344034408331A78FB7B3868034455
:100504000A43D2B21A700123BB7316E0FB7B1B01B2
:100514007A6813449A68BB7BC3F10303DB0022FAB5
:1005240003F1BB7B5A00FB7B13441A463B6813441C
:10053400CAB21A70BB7B0133BB73BB7B032BE5D9F7
:10054400D6E00123BB7316E0FB7B1B017A681344DE
:100554005A68BB7BC3F10303DB0022FA03F1BB7BC4
:100564005A00FB7B13441A463B681344CAB21A7000
:10057400BB7B0133BB73BB7B032BE5D9B8E0FB7BAF
:100584003A6813441978FB7B1B017A6813445A6850
:1005940009481346DB001344034408331A78FB7BF1
:1005A400386803440A43D2B21A700123BB731CE0B7
:1005B400D4580008E0560008E0590008FB7B1B01F2
:1005C4007A6813449A68BB7BC3F10303DB0022FA05
:1005D40003F1BB7B5A00FB7B13441A463B6813446C
:1005E400CAB21A70BB7B0133BB73BB7B032BE5D947
:1005F4007EE0FB7B3A6813441B7859B2FB7B1B01FA
:100604007A6813445A68414813469B0013440344D0
:1006140004331B78DB005BB20B4359B2FB7B3A68B3
:100624001344CAB21A70FB7B3A6813441978FB7BF3
:100634001B017A6813449A6835481346DB00134457
:10064400034408331A78FB7B386803440A43D2B264
:100654001A700123BB7316E0FB7B1B017A681344F9
:10066400DA68BB7BC3F10303DB0022FA03F1BB7B33
:100674005A00FB7B13441A463B681344CAB21A70EF
:10068400BB7B0133BB73BB7B032BE5D930E0FB7B26
:100694003A6813441B7859B2FB7B1B017A681344F4
:1006A4005A681A4813469B001344034404331B78C6
:1006B400DB005BB20B4359B2FB7B3A681344CAB20A
:1006C4001A70FB7B3A6813441978FB7B1B017A6828
:1006D40013449A680E481346DB001344034408335A
:1006E4001A78FB7B386803440A43D2B21A7000BFFD
:1006F400FB7B0133FB73FB7B012B7FF605AE00BF55
:1007040000BF1437BD465DF8047B7047F4590008F8
:10071400E059000880B584B002AF0346FB71F87954
:10072400002301930023009300230D220749FFF7C0
:10073400A3FD07490548FFF7C3FD0649044800F037
:100744004DF800BF0837BD4680BD00BF58000020EB
:10075400780000208000002080B586B002AF0346F8
:10076400FB71F879002301930023009300231222E4
:100774000B49FFF781FD0B490948FFF7A1FD0A4921
:10078400084800F02BF8FB7902220749184600F0CC
:1007940073F80346FB81FB8918461037BD4680BDBC
:1007A40058000020780000208000002080B483B02E
:1007B40000AF0346FB71FB79002B05D0FB79002BBE
:1007C40004D0FB79012B01D8FB7900E0FF23184604
:1007D4000C37BD465DF8047B7047000080B586B0D9
:1007E40002AF78603960204B00221A700023FB733B
:1007F40032E01E4B5B681D4A11890022184601F045
:1008040085F8FB7B5B001A467B689918FB7B5B00D1
:100814001A463B681A440A2300930223144802F040
:100824002BF8124B5B68114A11890122184601F01A
:100834006DF8104B00221A7007E000BF00BF0D4B8B
:100844001B780133DAB20B4B1A700A4B1B78132B4B
:10085400F3D9FB7B0133FB73FB7B032BC9D900BFAB
:1008640000BF1037BD4680BD880000208C000020EA
:10087400980000208900002080B485B000AF0346B2
:100884003960FB711346BB710023FB600123FB72CB
:1008940015E0FB7A5B001A46FB7913443A6813446B
:1008A4001B781946BA79FB7AD31ADB0001FA03F3F1
:1008B4001A46FB681343FB60FB7A0133FB72FB7A35
:1008C400032BE6D9FB6818461437BD465DF8047B54
:1008D4007047000080B588B000AF0346FB71FB7918
:1008E400002B0BD1154B1B6B144A43F0010313630C
:1008F400124B1B6B03F00103BB60BB682023FB603E
:1009040001233B6101237B610223BB61FB790C4A18
:1009140052F8233007F10C021146184600F068FD26
:10092400FB79074A52F8233020210022184600F0B0
:10093400EDFF00BF2037BD4680BD00BF0038024038
:100944000000002080B582B000AF0346FB71FB7944
:10095400054A52F8233020210122184600F0D6FF20
:1009640000BF0837BD4680BD0000002080B582B0BE
:1009740000AF0346FB71FB79054A52F8233020216E
:100984000022184600F0C2FF00BF0837BD4680BDF4
:100994000000002080B588B000AF03460A46FB7112
:1009A4001346BB71FB79002B0BD1234B1B6B224AE3
:1009B40043F004031363204B1B6B03F00403BB607D
:1009C400BB68BB79002B12D14FF40053FB600023AA
:1009D4003B6102237B610223BB61FB79174A52F816
:1009E400233007F10C021146184600F001FDBB79D3
:1009F400012B1CD14FF40053FB6000237B61104B8F
:100A04003B61FB790D4A52F8233007F10C02114681
:100A1400184600F0EDFC28235BB200220F21184693
:100A240000F070FC28235BB2184600F097FC00BF6E
:100A34002037BD4680BD00BF0038024004000020BE
:100A44000000211080B586B000AF464B1A6B464BB0
:100A54001B68444913430B63434B1B893B601123BD
:100A64007B600023BB600323FB603F4B5B683A461B
:100A74001146184600F0BCFC3A4B1A6B3B4B1B6802
:100A8400384913430B63394B1B893B60384B7B60FC
:100A94000023BB60354B5B683A461146184600F0AC
:100AA400A7FC00220021062000F02CFC2D4B1A6B21
:100AB400304B1B682B4913430B632E4B1B893B6044
:100AC4002B4B7B600023BB602A4B5B683A46114684
:100AD400184600F08DFC00220021072000F012FCD3
:100AE400002000F0BCF80346FB752DE01D4B196B8C
:100AF400FA7D214813465B0013449B0003441B68A2
:100B0400184A0B431363FA7D1B4913465B001344D5
:100B14009B000B4408331B883B6001237B6000234C
:100B2400BB600323FB60FA7D134913465B00134447
:100B34009B000B4404331B683A461146184600F0E8
:100B440057FCFB7D0133FB75002000F088F8034659
:100B54001A46FB7D9342C9D900BF00BF1837BD4672
:100B640080BD00BF003802400800002014000020AF
:100B740000002110200000202C00002080B582B04D
:100B840000AF284B5B68274A11890022184600F001
:100B9400BDFE244B5B68234A11890122184600F0EC
:100BA400B5FE002000F05BF80346FB7127E0FB79FB
:100BB400184600F065F81C4B5B681B4A118901223A
:100BC400184600F0A3FE0020FFF7F0FD0346BB71BA
:100BD4000AE0BB791846FFF79DFDBB791846FFF77D
:100BE400BBFDBB790133BB710120FFF7DFFD034679
:100BF4001A46BB799342ECD9FB790133FB7100208F
:100C040000F02DF803461A46FB799342CFD9002011
:100C140000F025F80346184600F032F800BF083704
:100C2400BD4680BD080000208C00002080B582B045
:100C340000AF0346FB71FB79012B06D1062000F0BF
:100C44008DFB072000F08AFB05E0062000F09EFBE8
:100C5400072000F09BFB00BF0837BD4680BD80B471
:100C640083B000AF0346FB71FB79002B01D1FB7904
:100C740000E0FF2318460C37BD465DF8047B70473F
:100C840080B483B000AF0346FB71FB79002B21D104
:100C9400FA79144913465B0013449B000B441B6808
:100CA400114A1360FA790F4913465B0013449B0001
:100CB4000B4404331B680C4A5360FA790949134600
:100CC4005B0013449B000B4408331A88064B1A81BB
:100CD400012300E0002318460C37BD465DF8047B71
:100CE400704700BF2C0000208C00002080B500AFAE
:100CF4000020FFF7B4FF03461846FFF7C1FFFFF7D4
:100D0400A1FEFFF73BFF0120FFF790FF00BF80BD6E
:100D140080B400AF00BF00BF00BFBD465DF8047BD8
:100D2400704780B400AF00BF00BF00BFBD465DF890
:100D3400047B704780B500AF044B5B68034A11899C
:100D44000022184600F0E2FDFEE700BF0800002084
:100D540080B594B000AF234B1B6C224A43F0805300
:100D64001364204B1B6C03F08053BB60BB681E4BA9
:100D74001B6823F440431C4A43F4004313601A4B9A
:100D84001B6803F440437B607B6802233B620123BE
:100D9400FB6210233B630223BB630023FB6310232A
:100DA4003B644FF4A8737B640423BB640723FB6494
:100DB40007F12003184600F0EDFD0523FB60022334
:100DC4003B6100237B614FF48053BB610023FB61D3
:100DD40007F10C030221184601F0D6F800BF503782
:100DE400BD4680BD003802400070004080B500AFB1
:100DF40000210020FFF7CEFD0020FFF76BFD00BFB0
:100E040080BD80B500AF00F003F800BF80BD0000D6
:100E140080B584B000AF324B324A1A60304B4FF485
:100E240082725A602E4B00229A602D4B0022DA60A7
:100E34002B4B02221A612A4B01225A61284B4FF490
:100E440000729A61264B00221A62254B00225A62D4
:100E5400234B00229A6201F0D9FBB860BB68224A96
:100E6400A2FB03235B0DFB80FB88012B02D800232C
:100E7400FB602AE0FB88032B02D80823FB6024E0F4
:100E8400FB88072B02D81023FB601EE0FB880F2B86
:100E940002D81823FB6018E0FB881F2B02D82023FC
:100EA400FB6012E0FB883F2B02D82823FB600CE098
:100EB400FB887F2B02D83023FB6006E0FB88FF2BE6
:100EC40002D83823FB6000E0FEE7054AFB68D361E3
:100ED400034801F0BDFB00BF1037BD4680BD00BF15
:100EE40098000020003001406BCA5F6B80B500AFF2
:100EF4000E4B0F4A1A600D4B4FF4E1325A600B4B04
:100F040000229A60094B0022DA60084B00221A6121
:100F1400064B0C225A61054B00229A61034B0022B6
:100F2400DA61024801F0B2FF00BF80BDF400002086
:100F34000044004080B500AF00F06EF8FFF708FFF2
:100F4400FFF754FFFFF75DFFFFF7D0FF40F2EE21FC
:100F5400032000F002F800BF80BD80B584B000AF6C
:100F640003460A46FB711346BB80BB885B08BB8102
:100F74000023FB7310E00020FFF7E4FCBB89184654
:100F840000F0A2F80020FFF7F1FCBB89184600F03E
:100F94009BF8FB7B0133FB73FA7BFB799A42EAD320
:100FA40000BF00BF1037BD4680BD000080B400AF55
:100FB400164BD3F88830154A43F47003C2F88830CE
:100FC400134B1B68124A43F001031360104B0022B9
:100FD4009A600F4B1B680E4A23F0847323F480330A
:100FE40013600B4B0B4A5A60094B1B68084A23F4E5
:100FF40080231360064B0022DA60044B4FF000623A
:101004009A6000BFBD465DF8047B704700ED00E0C8
:10101400003802401030002480B500AF0E4B1B682E
:101024000D4A43F4007313600B4B1B680A4A43F4E4
:1010340080631360084B1B68074A43F48073136092
:10104400032000F03FF9002000F008F803F06EFFE1
:101054000023184680BD00BF003C024080B582B02A
:1010640000AF786001F088FA0346094AA2FB032323
:101074009B09184600F0A2F9002279684FF0FF306E
:1010840000F040F9002318460837BD4680BD00BF74
:10109400D34D621080B400AF044B1B680133034A84
:1010A400136000BFBD465DF8047B7047F00000206C
:1010B40080B400AF034B1B681846BD465DF8047B43
:1010C400704700BFF000002080B584B000AF7860A6
:1010D4000023FB60FFF7ECFFF86000BFFFF7E8FFB9
:1010E4000246FB68D21A7B689A42F7D300BF00BF5E
:1010F4001037BD4680BD000080B485B000AF786075
:101104007B6803F00703FB600C4BDB68BB60BA68C9
:101114004FF6FF031340BB60FB681A02BB6813431E
:1011240043F0BF6343F40033BB60044ABB68D3603D
:1011340000BF1437BD465DF8047B704700ED00E046
:1011440080B400AF044BDB681B0A03F007031846A6
:10115400BD465DF8047B704700ED00E080B483B0C9
:1011640000AF0346FB71FB7903F01F02074997F9AF
:1011740007305B09012000FA02F241F8232000BF86
:101184000C37BD465DF8047B704700BF00E100E00A
:1011940080B483B000AF0346FB71FB7903F01F02F8
:1011A400074997F907305B09012000FA02F220335E
:1011B40041F8232000BF0C37BD465DF8047B70471F
:1011C40000E100E080B483B000AF03463960FB71F6
:1011D40097F90730002B0BDA3B68DAB20C49FB793C
:1011E40003F00F03043B1201D2B20B441A7609E058
:1011F4003B68DAB2074997F907301201D2B20B44BF
:1012040083F8002300BF0C37BD465DF8047B7047AC
:1012140000ED00E000E100E080B489B000AFF860C8
:10122400B9607A60FB6803F00703FB61FB69C3F1F3
:101234000703042B28BF0423BB61FB690433062B7B
:1012440002D9FB69033B00E000237B614FF0FF32CE
:10125400BB6902FA03F3DA43BB681A407B699A401C
:101264004FF0FF317B6901FA03F3D9437B680B40EC
:10127400134318462437BD465DF8047B70470000CD
:1012840080B582B000AF78607B68013BB3F1807FAA
:1012940001D301230FE00A4A7B68013B53600F210D
:1012A4004FF0FF30FFF78EFF054B00229A60044B8E
:1012B40007221A60002318460837BD4680BD00BFC8
:1012C40010E000E080B582B000AF78607B68072B47
:1012D4000FD07B68062B0CD07B68052B09D07B686C
:1012E400042B06D07B68032B03D0A421044803F00D
:1012F40012FE7868FFF700FF00BF0837BD4680BDC7
:10130400F051000880B586B000AF0346B9607A603A
:10131400FB7300237B617B680F2B03D9BC210E4830
:1013240003F0F9FDBB680F2B03D9BD210A4803F074
:10133400F2FDFFF705FF78617A68B9687869FFF70D
:101344006BFF024697F90F3011461846FFF73AFF34
:1013540000BF1837BD4680BDF051000880B582B08B
:1013640000AF0346FB7197F90730002B03DAD02155
:10137400054803F0D0FD97F907301846FFF7EEFE55
:1013840000BF0837BD4680BDF051000880B582B06B
:1013940000AF0346FB7197F90730002B03DAE02115
:1013A400054803F0B8FD97F907301846FFF7F0FE3B
:1013B40000BF0837BD4680BDF051000880B582B03B
:1013C40000AF78607868FFF75BFF0346184608377C
:1013D400BD4680BD80B500AF00F002F800BF80BDFF
:1013E40080B400AF00BFBD465DF8047B70470000C9
:1013F40080B588B000AF7860396000237B6100233A
:101404003B610023BB617B68384A934217D07B68F9
:10141400374A934213D07B68364A93420FD07B6895
:10142400354A93420BD07B68344A934207D07B6899
:10143400334A934203D0C521324803F06CFD3B6824
:101444001B689BB2002B03D1C6212E4803F063FD19
:101454003B685B68002B35D03B685B68012B31D05F
:101464003B685B68112B2DD03B685B68022B29D04D
:101474003B685B68122B25D03B685B68224A934229
:1014840020D03B685B68214A93421BD03B685B6871
:101494001F4A934216D03B685B681E4A934211D0A0
:1014A4003B685B681C4A93420CD03B685B681B4AF0
:1014B400934207D03B685B68032B03D0C7211148D4
:1014C40003F029FD3B689B68002B0BD03B689B68AD
:1014D400012B07D03B689B68022B03D0C821094825
:1014E40003F019FD0023FB6103E200BF000002408A
:1014F4000004024000080240000C024000100240B8
:10150400001C0240285200080000111000002110A5
:1015140000003110000012100000221000003210F0
:101524000122FB6902FA03F37B613B681B687A6959
:1015340013403B613A697B699A4240F0D7813B682A
:101544005B68022B04D03B685B68122B40F09080F0
:101554003B681B69002B67D03B681B69092B63D070
:101564003B681B69002B5FD03B681B69002B5BD079
:101574003B681B69002B57D03B681B69002B53D079
:101584003B681B69012B4FD03B681B69012B4BD077
:101594003B681B69022B47D03B681B69022B43D075
:1015A4003B681B69022B3FD03B681B69042B3BD073
:1015B4003B681B69042B37D03B681B69042B33D071
:1015C4003B681B69052B2FD03B681B69052B2BD06F
:1015D4003B681B69062B27D03B681B69052B23D06E
:1015E4003B681B69072B1FD03B681B69072B1BD06B
:1015F4003B681B69082B17D03B681B690A2B13D067
:101604003B681B69092B0FD03B681B69092B0BD066
:101614003B681B690C2B07D03B681B690F2B03D05D
:10162400D921784803F077FCFB69DA087B68083233
:1016340053F82230BB61FB6903F007039B000F22C0
:1016440002FA03F3DB43BA691340BB613B681A69CE
:10165400FB6903F007039B0002FA03F3BA6913431F
:10166400BB61FB69DA087B680832B96943F8221068
:101674007B681B68BB61FB695B00032202FA03F30E
:10168400DB43BA691340BB613B685B6803F0030248
:10169400FB695B0002FA03F3BA691343BB617B681D
:1016A400BA691A603B685B68012B0BD03B685B68C6
:1016B400022B07D03B685B68112B03D03B685B6847
:1016C400122B44D13B68DB68002B0FD03B68DB68EE
:1016D400012B0BD03B68DB68022B07D03B68DB682F
:1016E400032B03D0EC21474803F015FC7B689B686F
:1016F400BB61FB695B00032202FA03F3DB43BA69B3
:101704001340BB613B68DA68FB695B0002FA03F3D0
:10171400BA691343BB617B68BA699A607B685B688A
:10172400BB610122FB6902FA03F3DB43BA6913408C
:10173400BB613B685B681B0903F00102FB6902FAA9
:1017440003F3BA691343BB617B68BA695A607B6867
:10175400DB68BB61FB695B00032202FA03F3DB4332
:10176400BA691340BB613B689A68FB695B0002FA83
:1017740003F3BA691343BB617B68BA69DA603B68F7
:101784005B6803F08053002B00F0B0801E4B5B6C51
:101794001D4A43F4804353641B4B5B6C03F4804346
:1017A400FB60FB68194AFB699B08023352F823303B
:1017B400BB61FB6903F003039B000F2202FA03F3EE
:1017C400DB43BA691340BB617B68114A934229D059
:1017D4007B68104A934213D07B680F4A93420DD022
:1017E4007B680E4A934207D07B680D4A934201D12D
:1017F400042318E0052316E0032314E0022312E077
:10180400012310E02852000800380240003801404B
:10181400000002400004024000080240000C0240A4
:10182400001002400023FA6902F003029200934080
:10183400BA691343BB613349FB699B080233BA6934
:1018440041F82320304B1B68BB613B69DB43BA6919
:101854001340BB613B685B6803F48033002B03D007
:10186400BA693B691343BB61274ABB691360264BC2
:101874005B68BB613B69DB43BA691340BB613B688E
:101884005B6803F40033002B03D0BA693B6913434C
:10189400BB611D4ABB6953601B4B9B68BB613B69C1
:1018A400DB43BA691340BB613B685B6803F4801394
:1018B400002B03D0BA693B691343BB61124ABB696D
:1018C4009360114BDB68BB613B69DB43BA6913402E
:1018D400BB613B685B6803F40013002B03D0BA6957
:1018E4003B691343BB61084ABB69D360FB6901339D
:1018F400FB61FB690F2B7FF613AE00BF00BF2037DF
:10190400BD4680BD00380140003C014080B582B036
:1019140000AF78600B467B8013467B707B88002B7E
:1019240004D140F2B1110E4803F0F5FA7B78002B94
:1019340007D07B78012B04D04FF4D971084803F009
:10194400EAFA7B78002B03D07A887B689A6103E0FB
:101954007B881A047B689A6100BF0837BD4680BD46
:101964002852000880B582B000AF0346FB80084BC4
:101974005A69FB881340002B06D0054AFB88536143
:10198400FB88184602F0C8F800BF0837BD4680BD82
:10199400003C014080B58EB000AF786000237B63CB
:1019A4007B681B680F2B04D94FF480719C4803F0AB
:1019B400B2FA7B681B6803F00103002B7DD07B68BF
:1019C4005B68002B0CD07B685B68012B08D07B68BC
:1019D4005B68052B04D040F20511914803F09BFA93
:1019E400904B9B6803F00C03042B0CD08D4B9B682D
:1019F40003F00C03082B12D18A4B5B6803F48003B9
:101A0400B3F5800F0BD1874B1B6803F40033002B15
:101A140052D07B685B68002B4ED10123ABE2824B32
:101A240000221A70FFF744FB78630AE0FFF740FBDB
:101A340002467B6BD31A41F28832934201D90323C5
:101A440099E2784B1B6803F40033002BEED17B68DA
:101A54005A68754BD2B21A707B685B68002B15D03C
:101A6400FFF726FB78630AE0FFF722FB02467B6B55
:101A7400D31A41F28832934201D903237BE2694BA2
:101A84001B6803F40033002BEED016E0FFF710FBC5
:101A940078630AE0FFF70CFB02467B6BD31A41F232
:101AA4008832934201D9032365E25E4B1B6803F439
:101AB4000033002BEED100E000BF7B681B6803F00D
:101AC4000203002B00F08E807B68DB68002B08D0BB
:101AD4007B68DB68012B04D04FF4A371504803F0FA
:101AE4001AFA7B681B691F2B04D940F247114C4832
:101AF40003F011FA4B4B9B6803F00C03002B0BD043
:101B0400484B9B6803F00C03082B26D1454B5B68BC
:101B140003F48003002B20D1424B1B6803F0020323
:101B2400002B05D07B68DB68012B01D0012322E266
:101B34003C4B1B6823F0F8027B681969F8233B636C
:101B44003B6B93FAA3F3FB62FB6AB3FA83F301FAE8
:101B540003F3344913430B6044E07B68DB68002BD8
:101B64002AD0324B01221A60FFF7A2FA786308E008
:101B7400FFF79EFA02467B6BD31A642B01D9032329
:101B8400F9E1284B1B6803F00203002BF0D0254B2E
:101B94001B6823F0F8027B681969F823BB62BB6AEF
:101BA40093FAA3F37B627B6AB3FA83F301FA03F338
:101BB4001C4913430B6015E01C4B00221A60FFF70D
:101BC40077FA786308E0FFF773FA02467B6BD31A5F
:101BD400642B01D90323CEE1124B1B6803F00203EB
:101BE400002BF0D17B681B6803F00803002B47D05F
:101BF4007B685B69002B08D07B685B69012B04D090
:101C040040F28711064803F086F97B685B69002B74
:101C140020D0074B01221A60FFF74AFA786312E0DA
:101C24006052000800380240023802400000474277
:101C3400800E4742FFF73CFA02467B6BD31A642BB3
:101C440001D9032397E18F4B5B6F03F00203002B51
:101C5400F0D015E08C4B00221A60FFF729FA786364
:101C640008E0FFF725FA02467B6BD31A642B01D9EF
:101C7400032380E1834B5B6F03F00203002BF0D15D
:101C84007B681B6803F00403002B00F082807B68F0
:101C94009B68002B0CD07B689B68012B08D07B6869
:101CA4009B68052B04D040F2B111784803F033F956
:101CB400744B1B6C734A43F080531364714B1B6C5D
:101CC40003F08053BB60BB68714B1B68704A43F4DC
:101CD40080731360FFF7ECF9786308E0FFF7E8F925
:101CE40002467B6BD31A642B01D9032343E1684B6F
:101CF4001B6803F48073002BF0D0664B00221A702B
:101D0400FFF7D6F978630AE0FFF7D2F902467B6B56
:101D1400D31A41F28832934201D903232BE1594B60
:101D24001B6F03F00203002BEED17B689A68594BBA
:101D3400D2B21A707B689B68002B15D0FFF7B8F9F4
:101D440078630AE0FFF7B4F902467B6BD31A41F2D9
:101D54008832934201D903230DE14A4B1B6F03F0F0
:101D64000203002BEED014E0FFF7A2F978630AE037
:101D7400FFF79EF902467B6BD31A41F288329342F5
:101D840001D90323F7E03F4B1B6F03F00203002B41
:101D9400EED17B689B69002B0CD07B689B69012B7F
:101DA40008D07B689B69022B04D040F2F5113748B8
:101DB40003F0B1F87B689B69002B00F0DB80314BAA
:101DC4009B6803F00C03082B00F0D2807B689B69AE
:101DD400022B40F0B6807B68DB69002B09D07B685E
:101DE400DB69B3F5800F04D04FF4FF71274803F08B
:101DF40092F87B681B6A3F2B04D940F2FF112348F9
:101E040003F089F87B685B6ABF2B04D97B685B6A43
:101E1400B3F5D87F04D94FF400711C4803F07BF864
:101E24007B689B6A022B10D07B689B6A042B0CD0C6
:101E34007B689B6A062B08D07B689B6A082B04D0BE
:101E440040F20121114803F066F87B68DB6A032B3A
:101E540003D97B68DB6A0F2B04D940F202210B48BB
:101E640003F059F80C4B00221A60FFF721F978634C
:101E740014E0FFF71DF902467B6BD31A642B0DD9CE
:101E8400032378E000380240800E47426052000885
:101E9400007000407038024060004742384B1B68B5
:101EA40003F00073002BE4D17B68DA697B681B6A5A
:101EB4001A437B68596A47F6C0733B613B6993FADE
:101EC400A3F3FB60FB68B3FA83F301FA03F31A4349
:101ED4007B689B6A5B08591E4FF44033BB61BB6946
:101EE40093FAA3F37B617B69B3FA83F301FA03F3F7
:101EF4001A437B68D96A4FF070633B623B6A93FA7A
:101F0400A3F3FB61FB69B3FA83F301FA03F31C49FE
:101F140013434B601B4B01221A60FFF7C9F8786327
:101F240008E0FFF7C5F802467B6BD31A642B01D98E
:101F3400032320E0124B1B6803F00073002BF0D046
:101F440018E0104B00221A60FFF7B2F8786308E03B
:101F5400FFF7AEF802467B6BD31A642B01D9032337
:101F640009E0074B1B6803F00073002BF0D101E07C
:101F7400012300E0002318463837BD4680BD00BF6A
:101F8400003802406000474280B584B000AF7860FA
:101F940039600023FB607B681B68002B03D07B68DF
:101FA4001B680F2B04D94FF41871884802F0B3FF53
:101FB4003B68002B19D03B68012B16D03B68022BE1
:101FC40013D03B68032B10D03B68042B0DD03B6827
:101FD400052B0AD03B68062B07D03B68072B04D09F
:101FE40040F26121794802F096FF794B1B6803F0B7
:101FF4000F033A689A4240F2EF80754B3A68D2B2C6
:102004001A70734B1B6803F00F033A689A4201D0AD
:10201400012325E27B681B6803F00203002B31D007
:102024007B689B68002B24D07B689B68802B20D026
:102034007B689B68902B1CD07B689B68A02B18D076
:102044007B689B68B02B14D07B689B68C02B10D036
:102054007B689B68D02B0CD07B689B68E02B08D0F6
:102064007B689B68F02B04D040F27721574802F03C
:1020740052FF584B9B6823F0F0027B689B685549DC
:1020840013438B607B681B6803F00103002B00F093
:102094008A817B685B68002B10D07B685B68012BAE
:1020A4000CD07B685B68022B08D07B685B68032BD1
:1020B40004D040F27E21454802F02DFF7B685B6826
:1020C400012B07D1434B1B6803F40033002B19D1B8
:1020D4000123C5E17B685B68022B03D07B685B68E6
:1020E400032B07D13B4B1B6803F00073002B09D172
:1020F4000123B5E1374B1B6803F00203002B01D128
:102104000123ADE1334B9B6823F003027B685B68DA
:10211400304913438B60FEF7CBFFF8607B685B6844
:10212400012B12D10AE0FEF7C3FF0246FB68D31A63
:1021340041F28832934201D9032391E1254B9B68F4
:1021440003F00C03042BEED12DE17B685B68022BBA
:1021540012D10AE0FEF7ACFF0246FB68D31A41F243
:102164008832934201D903237AE11A4B9B6803F026
:102174000C03082BEED116E17B685B68032B1DD1A1
:102184000AE0FEF795FF0246FB68D31A41F2883253
:10219400934201D9032363E10E4B9B6803F00C03C4
:1021A400032BEED1FFE0FEF783FF0246FB68D31A50
:1021B40041F28832934201D9032351E1054B9B68D4
:1021C40003F00C03002BEED1EDE000BF60520008D9
:1021D400003C0240003802407B681B6803F00203A5
:1021E400002B31D07B689B68002B24D07B689B68D4
:1021F400802B20D07B689B68902B1CD07B689B68CD
:10220400A02B18D07B689B68B02B14D07B689B688C
:10221400C02B10D07B689B68D02B0CD07B689B684C
:10222400E02B08D07B689B68F02B04D040F2D121CE
:102234008D4802F070FE8D4B9B6823F0F0027B68A2
:102244009B688A4913438B607B681B6803F0010316
:10225400002B00F09B807B685B68002B10D07B68B0
:102264005B68012B0CD07B685B68022B08D07B6811
:102274005B68032B04D04FF436717B4802F04BFEAD
:102284007B685B68012B07D1784B1B6803F4003330
:10229400002B19D10123E3E07B685B68022B03D098
:1022A4007B685B68032B07D1704B1B6803F00073DA
:1022B400002B09D10123D3E06C4B1B6803F002030C
:1022C400002B01D10123CBE0684B9B6823F0030270
:1022D4007B685B68654913438B60FEF7E9FEF86031
:1022E4007B685B68012B12D10AE0FEF7E1FE02462F
:1022F400FB68D31A41F28832934201D90323AFE039
:102304005A4B9B6803F00C03042BEED13EE07B6830
:102314005B68022B12D10AE0FEF7CAFE0246FB6894
:10232400D31A41F28832934201D9032398E04F4BE8
:102334009B6803F00C03082BEED127E07B685B68F5
:10234400032B1DD10AE0FEF7B3FE0246FB68D31A45
:1023540041F28832934201D9032381E0434B9B68C5
:1023640003F00C03032BEED110E0FEF7A1FE0246AE
:10237400FB68D31A41F28832934201D903236FE0F8
:102384003A4B9B6803F00C03002BEED1384B3A68B0
:10239400D2B21A70364B1B6803F00F033A689A42A4
:1023A40001D001235CE07B681B6803F00403002B6D
:1023B40025D07B68DB68002B18D07B68DB68B3F51D
:1023C400805F13D07B68DB68B3F5A05F0ED07B68B9
:1023D400DB68B3F5C05F09D07B68DB68B3F5E05F09
:1023E40004D040F23231204802F095FD1F4B9B6827
:1023F40023F4E0527B68DB681C4913438B607B68E1
:102404001B6803F00803002B26D07B681B69002B94
:1024140018D07B681B69B3F5805F13D07B681B6998
:10242400B3F5A05F0ED07B681B69B3F5C05F09D01C
:102434007B681B69B3F5E05F04D040F239310A4888
:1024440002F069FD094B9B6823F460427B681B69B9
:10245400DB00064913438B600020FEF7FFFD0023D9
:1024640018461037BD4680BD60520008003802404F
:10247400003C024080B48BB000AF0023FB6100231A
:102484007B620023BB6100233B62384B9B6803F0F3
:102494000C03082B0CD0082B5DD8002B02D0042B86
:1024A40003D058E0324B3B6258E0324B3B6255E07C
:1024B4002E4B5B6803F03F03FB612C4B5B6803F41A
:1024C4008003002B17D02B4AFB69B2FBF3F2274B96
:1024D400596847F6C0730B4047F6C0717961796952
:1024E40091FAA1F139613969B1FA81F1CB4002FB6A
:1024F40003F37B6216E01E4AFB69B2FBF3F21B4B4B
:10250400596847F6C0730B4047F6C071F960F96823
:1025140091FAA1F1B960B968B1FA81F1CB4002FB3B
:1025240003F37B62114B5B6803F440324FF4403396
:102534007B607B6893FAA3F33B603B68B3FA83F355
:1025440022FA03F301335B00BB617A6ABB69B2FB15
:10255400F3F33B6202E0064B3B6200BF3B6A184662
:102564002C37BD465DF8047B704700BF003802403D
:102574000024F40000127A0080B582B000AFFFF7A7
:1025840079FF01460D4B9B6803F0F002F0237B605A
:102594007B6893FAA3F33B603B68B3FA83F322FAB4
:1025A40003F3074AD35C21FA03F3064A1360054B8D
:1025B4001B6818460837BD4680BD00BF003802407E
:1025C400005A00083800002080B582B000AFFFF741
:1025D400D3FF01460B4B9B6803F4E0524FF4E053E6
:1025E4007B607B6893FAA3F33B603B68B3FA83F3A5
:1025F40022FA03F3044AD35C21FA03F3184608379A
:10260400BD4680BD00380240005A000880B582B043
:1026140000AFFFF7B1FF01460B4B9B6803F4604228
:102624004FF460437B607B6893FAA3F33B603B68A1
:10263400B3FA83F322FA03F3044AD35C21FA03F3D3
:1026440018460837BD4680BD00380240005A0008CD
:1026540080B582B000AF78607B68002B01D1012384
:1026640004E17B685B68002B08D07B685B68B3F58A
:10267400827F03D0B8217F4802F04DFC7B689B68C1
:10268400002B0DD07B689B68B3F5806F08D07B6806
:102694009B68B3F5004F03D0B921764802F03BFCA8
:1026A4007B68DB68B3F5006F07D07B68DB68002BC1
:1026B40003D0BA216F4802F02EFC7B681B69002B03
:1026C40007D07B681B69022B03D0BB21694802F049
:1026D40022FC7B685B69002B07D07B685B69012B5C
:1026E40003D0BC21634802F016FC7B689B69B3F5F8
:1026F400007F0CD07B689B69002B08D07B689B69AA
:10270400B3F5802F03D0BD215A4802F004FC7B6846
:10271400DB69002B1FD07B68DB69082B1BD07B682F
:10272400DB69102B17D07B68DB69182B13D07B680F
:10273400DB69202B0FD07B68DB69282B0BD07B68EF
:10274400DB69302B07D07B68DB69382B03D0BE21D3
:10275400484802F0E0FB7B681B6A002B07D07B68CB
:102764001B6A802B03D0BF21424802F0D4FB7B6854
:102774005B6A002B07D07B685B6A102B03D0C021F7
:102784003C4802F0C8FB7B689B6A002B08D07B683E
:102794009B6AB3F5005F03D0C121364802F0BBFB4E
:1027A4007B68DB6A002B04D07B68DB6AB3F5803F6F
:1027B40003D3C2212F4802F0AEFB7B6893F851305B
:1027C400DBB2002B06D17B68002283F850207868A6
:1027D40002F0BAFB7B68022283F851207B681B68F5
:1027E4001A687B681B6822F040021A607B685A688A
:1027F4007B689B681A437B68DB681A437B681B69A8
:102804001A437B685B691A437B689B6903F4007312
:102814001A437B68DB691A437B681B6A42EA03013B
:102824007B689A6A7B681B680A431A607B689B69A9
:102834001B0C03F004017B685A6A7B681B680A431B
:102844005A607B681B687A68D26A1A617B681B6865
:10285400DA697B681B6822F40062DA617B68002213
:102864005A657B68012283F85120002318460837F3
:10287400BD4680BD9852000880B588B000AFF860AE
:10288400B9607A607B800023FB610023BB61FB6835
:1028940093F85130DBB2FB61FB69012B03D0FB6978
:1028A400222B40F04982BB68002B05D07B68002BAB
:1028B40002D07B88002B01D101233EE2FB689B6898
:1028C400002B04D04FF426718D4802F024FBFB68E2
:1028D40093F85030012B01D102232EE2FB68012230
:1028E40083F85020FB6893F85130DBB2012B03D1FD
:1028F400FB68322283F85120FB6800225A65FB688A
:102904007A689A63FB687A889A87FB687A88DA8798
:10291400FB68BA681A63FB687A889A86FB687A88C7
:10292400DA86FB6800229A64FB680022DA64FB689A
:102934009B6AB3F5005F0FD1FB681B681A68FB68DC
:102944001B6822F400521A60FB681B681A68FB6853
:102954001B6842F400521A60FB681B681B6803F092
:102964004003402B07D0FB681B681A68FB681B6890
:1029740042F040021A60FB68DB68B3F5006F40F078
:10298400C180FB685B68002B08D0FB685B68B3F50B
:10299400827F14D1FB68DB8E012B10D1FB681B6B8B
:1029A4001A88FB681B68DA60FB681B6B9A1CFB685F
:1029B4001A63FB68DB8E013B9AB2FB68DA86FB681C
:1029C400DB8E002B74D1FB689B6AB3F5005F07D1E3
:1029D400FB681B681A68FB681B6842F480521A6023
:1029E400BB6A00220121F86800F0ACF90346002B11
:1029F40001D00323A1E1FB681B68DA68FB689B6BC9
:102A040092B21A80FB689B6B9A1CFB689A63FB6802
:102A1400DB8F013B9AB2FB68DA8722E1BB6A0022B2
:102A24000221F86800F08EF90346002B01D003233D
:102A340083E1FB681B6B1A88FB681B68DA60FB6820
:102A44001B6B9A1CFB681A63FB68DB8E013B9AB212
:102A5400FB68DA86FB68DB8E002B0CD1FB689B6A73
:102A6400B3F5005F07D1FB681B681A68FB681B6835
:102A740042F480521A60BB6A00220121F86800F017
:102A840061F90346002B01D0032356E1FB681B6860
:102A9400DA68FB689B6B92B21A80FB689B6B9A1C8A
:102AA400FB689A63FB68DB8F013B9AB2FB68DA87A9
:102AB400FB68DB8E002BB1D1FB685B68002B40F018
:102AC400D080BB6A00220121F86800F03BF903467C
:102AD400002B01D0032330E1FB681B68DA68FB6834
:102AE4009B6B92B21A80FB689B6B9A1CFB689A637F
:102AF400FB68DB8F013B9AB2FB68DA87B1E000BF69
:102B040098520008FB685B68002B08D0FB685B6880
:102B1400B3F5827F12D1FB68DB8E012B0ED1FB68EB
:102B24001B6B591CFA6811631A78FB681B68DA601E
:102B3400FB68DB8E013B9AB2FB68DA86FB68DB8EAE
:102B4400002B6BD1FB689B6AB3F5005F07D1FB6870
:102B54001B681A68FB681B6842F480521A60BB6ADF
:102B640000220121F86800F0EDF80346002B01D0A3
:102B74000323E2E0FB681B68DA68FB689B6BD2B254
:102B84001A70FB68DB8F013B9AB2FB68DA8768E056
:102B9400BB6A00220221F86800F0D4F80346002B37
:102BA40001D00323C9E0FB681B6B591CFA6811634D
:102BB4001A78FB681B68DA60FB68DB8E013B9AB20B
:102BC400FB68DA86FB68DB8E002B0CD1FB689B6A02
:102BD400B3F5005F07D1FB681B681A68FB681B68C4
:102BE40042F480521A60BB6A00220121F86800F0A6
:102BF400A9F80346002B01D003239EE0FB681B6861
:102C0400D868FB689B6B591CFA689163C2B21A704E
:102C1400FB68DB8F013B9AB2FB68DA87FB68DB8ECB
:102C2400002BB5D1FB685B68002B1AD1BB6A00226C
:102C34000121F86800F086F80346002B01D0032335
:102C44007BE0FB681B68D868FB689B6B591CFA68BF
:102C54009163C2B21A70FB68DB8F013B9AB2FB68C6
:102C6400DA87FB689B6AB3F5005F16D1BB6A002262
:102C74000121F86800F066F80346002B07D0FB68D2
:102C84005B6D43F00202FB685A65032355E0FB6861
:102C94001B68DB689BB2FB82FB8ABB6A0122802132
:102CA400F86800F04FF80346002B07D0FB685B6D13
:102CB40043F02002FB685A6503233EE0FB680122CF
:102CC40083F85120FB681B689B6803F01003102BEA
:102CD4000CBF01230023DBB2BB61FB689B6AB3F525
:102CE400005F23D1BB69002B20D0FB685B6D43F0F0
:102CF4000202FB685A65FB689B6AB3F5005F0FD15B
:102D0400FB681B681A68FB681B6822F400521A608F
:102D1400FB681B681A68FB681B6842F400521A605F
:102D2400FB68002283F85020012306E0FB680022A0
:102D340083F85020002300E0022318462037BD46C4
:102D440080BD00BF80B586B000AFF860B9603B605D
:102D54001346FB7100237B61FEF7AAF97861FB79C6
:102D6400002B40F086803DE03B68B3F1FF3F39D053
:102D74003B68002B07D0FEF79BF902467B69D31A08
:102D84003A689A422ED2FB681B685A68FB681B6833
:102D940022F0E0025A60FB681B681A68FB681B6833
:102DA40022F040021A60FB689B6AB3F5005F0FD102
:102DB400FB681B681A68FB681B6822F400521A60DF
:102DC400FB681B681A68FB681B6842F400521A60AF
:102DD400FB68012283F85120FB68002283F850200D
:102DE40003234FE0FB681B689A68BB681340BA680A
:102DF4009A42B9D145E03B68B3F1FF3F39D03B6813
:102E0400002B07D0FEF754F902467B69D31A3A68BF
:102E14009A422ED2FB681B685A68FB681B6822F032
:102E2400E0025A60FB681B681A68FB681B6822F0A2
:102E340040021A60FB689B6AB3F5005F0FD1FB6820
:102E44001B681A68FB681B6822F400521A60FB684E
:102E54001B681A68FB681B6842F400521A60FB681E
:102E6400012283F85120FB68002283F850200323B9
:102E740008E0FB681B689A68BB681340BA689A420A
:102E8400B9D0002318461837BD4680BD80B582B03E
:102E940000AF78607B68002B01D101239AE07B6846
:102EA4009B69002B2AD07B681B684C4A93420DD047
:102EB4007B681B684A4A934208D07B681B68494A6E
:102EC400934203D0FC21484802F025F87B689B69B3
:102ED400002B27D07B689B69B3F5807F22D07B6869
:102EE4009B69B3F5007F1DD07B689B69B3F5407F78
:102EF40018D0FD213C4802F00EF813E07B681B68F3
:102F0400364A93420ED07B681B68354A934209D0F7
:102F14007B681B68334A934204D040F20111324863
:102F240001F0F9FF7B689B68002B09D07B689B68E4
:102F3400B3F5805F04D040F203112B4801F0EBFF9E
:102F44007B68DB69002B09D07B68DB69B3F5004F34
:102F540004D04FF48271244801F0DDFF7B6893F8BC
:102F64003930DBB2002B06D17B68002283F838208D
:102F7400786802F073F87B68022283F839207B6852
:102F84001B68DA687B681B6822F40052DA60786890
:102F940000F014FC7B681B681A697B681B6822F4C8
:102FA40090421A617B681B685A697B681B6822F02F
:102FB4002A025A617B681B68DA687B681B6842F4E2
:102FC4000052DA607B680022DA637B68012283F8AE
:102FD4003920002318460837BD4680BD0010014043
:102FE4000044004000140140D052000880B586B06F
:102FF40000AFF860B9603B601346FB8000237B613F
:10300400FB6893F83930DBB27B617B69012B03D019
:103014007B69222B40F08E80BB68002B02D0FB889A
:10302400002B01D1012386E0FB6893F83830012B93
:1030340001D102237FE0FB68012283F83820FB687A
:103044000022DA63FB6893F83930DBB2222B04D117
:10305400FB68322283F8392003E0FB68122283F8EC
:103064003920FB68FA889A84FB68FA88DA843DE0A0
:10307400FB68DB8C013B9AB2FB68DA84FB689B68D3
:10308400B3F5805F20D13B6800228021F86800F00E
:10309400D8F90346002B01D003234CE0BB683B6105
:1030A4003B691B881A46FB681B68C2F308025A6016
:1030B400FB681B69002B03D1BB680233BB6015E0BE
:1030C400BB680133BB6011E03B6800228021F868D3
:1030D40000F0B7F90346002B01D003232BE0BB68B3
:1030E4005A1CBA601A78FB681B685A60FB68DB8C50
:1030F400002BBDD13B6800224021F86800F0A1F903
:103104000346002B01D0032315E0FB6893F8393004
:10311400DBB2322B04D1FB68222283F8392003E08E
:10312400FB68012283F83920FB68002283F83820E9
:10313400002300E0022318461837BD4680BD80B442
:1031440087B000AFF860B9601346FB8000237B6151
:10315400FB6893F83930DBB27B617B69012B02D0C9
:103164007B69122B4BD1BB68002B02D0FB88002B50
:1031740001D1012344E0FB6893F83830012B01D1DD
:1031840002233DE0FB68012283F83820FB68BA681B
:103194009A62FB68FA889A85FB68FA88DA85FB6884
:1031A4000022DA63FB6893F83930DBB2122B04D1C6
:1031B400FB68322283F8392003E0FB68222283F87B
:1031C4003920FB681B68DA68FB681B6842F480726C
:1031D400DA60FB681B685A69FB681B6842F00102ED
:1031E4005A61FB68002283F83820FB681B68DA68A0
:1031F400FB681B6842F02002DA60002300E002232F
:1032040018461C37BD465DF8047B704780B588B00E
:1032140000AF78600023FB610023BB617B681B68FF
:103224001B6803F00103012B0CBF01230023DBB255
:10323400FB617B681B68DB6803F48073BB61FB691B
:10324400002B11D0BB69002B0ED07B681B681B6858
:103254007B617B681B685B687B617B697B68DB6B7C
:1032640043F001027B68DA637B681B681B6803F028
:103274000203022B0CBF01230023DBB2FB617B683A
:103284001B685B6903F00103BB61FB69002B11D070
:10329400BB69002B0ED07B681B681B683B617B6895
:1032A4001B685B683B613B697B68DB6B43F0040232
:1032B4007B68DA637B681B681B6803F00403042BD8
:1032C4000CBF01230023DBB2FB617B681B685B69D5
:1032D40003F00103BB61FB69002B11D0BB69002B18
:1032E4000ED07B681B681B68FB607B681B685B688F
:1032F400FB60FB687B68DB6B43F002027B68DA638C
:103304007B681B681B6803F00803082B0CBF0123B0
:103314000023DBB2FB617B681B685B6903F001037C
:10332400BB61FB69002B11D0BB69002B0ED07B68FD
:103334001B681B68BB607B681B685B68BB60BB6801
:103344007B68DB6B43F008027B68DA637B681B688D
:103354001B6803F02003202B0CBF01230023DBB2E6
:10336400FB617B681B68DB6803F02003BB61FB69BE
:10337400002B05D0BB69002B02D0786800F08AF9D5
:103384007B681B681B6803F08003802B0CBF012340
:103394000023DBB2FB617B681B68DB6803F08003FE
:1033A400BB61FB69002B05D0BB69002B02D0786898
:1033B40000F0E0F87B681B681B6803F04003402BB7
:1033C4000CBF01230023DBB2FB617B681B68DB6855
:1033D40003F04003BB61FB69002B05D0BB69002BE4
:1033E40002D0786800F023F97B68DB6B002B06D0F1
:1033F4007B68012283F83920786800F018F800BF50
:103404002037BD4680BD80B483B000AF786000BF74
:103414000C37BD465DF8047B704780B483B000AFC1
:10342400786000BF0C37BD465DF8047B704780B4FC
:1034340083B000AF786000BF0C37BD465DF8047BF5
:10344400704780B586B000AFF860B9603B60134642
:10345400FB7100237B61FDF72BFE7861FB79002B68
:103464007BD138E03B68B3F1FF3F34D03B68002B9D
:1034740007D0FDF71DFE02467B69D31A3A689A42CB
:1034840029D2FB681B68DA68FB681B6822F080029B
:10349400DA60FB681B68DA68FB681B6822F02002AC
:1034A400DA60FB681B68DA68FB681B6822F48072C8
:1034B400DA60FB681B685A69FB681B6822F001022A
:1034C4005A61FB68012283F83920FB68002283F8E3
:1034D400382003234AE0FB681B681A68BB68134062
:1034E400BA689A42BED140E03B68B3F1FF3F34D0A2
:1034F4003B68002B07D0FDF7DBFD02467B69D31A3E
:103504003A689A4229D2FB681B68DA68FB681B6830
:1035140022F08002DA60FB681B68DA68FB681B68CB
:1035240022F02002DA60FB681B68DA68FB681B681B
:1035340022F48072DA60FB681B685A69FB681B68B6
:1035440022F001025A61FB68012283F83920FB68EA
:10355400002283F83820032308E0FB681B681A68FC
:10356400BB681340BA689A42BED000231846183785
:10357400BD4680BD80B485B000AF78600023FB6099
:103584007B6893F83930DBB2FB60FB68122B02D006
:10359400FB68322B44D17B689B68B3F5805F1AD1FA
:1035A4007B681B6ABB60BB681B881A467B681B6808
:1035B400C2F308025A607B681B69002B05D17B6843
:1035C4001B6A9A1C7B681A620EE07B681B6A5A1C91
:1035D4007B681A6208E07B681B6A591C7A6811626E
:1035E4001A787B681B685A607B68DB8C013B9AB253
:1035F4007B68DA847B68DB8C002B0FD17B681B68CB
:10360400DA687B681B6822F08002DA607B681B68DA
:10361400DA687B681B6842F04002DA60002300E04D
:10362400022318461437BD465DF8047B704780B505
:1036340082B000AF78607B681B68DA687B681B68BF
:1036440022F04002DA607B6893F83930DBB2322B27
:1036540004D17B68222283F8392013E07B681B683D
:10366400DA687B681B6822F48072DA607B681B6806
:103674005A697B681B6822F001025A617B68012247
:1036840083F839207868FFF7BEFE00231846083710
:10369400BD4680BD80B584B000AF78600023FB6078
:1036A4007B6893F83930DBB2FB60FB68222B02D0D5
:1036B400FB68322B7CD17B689B68B3F5805F23D198
:1036C4007B689B6ABB607B681B69002B0ED17B689F
:1036D4001B685B689BB2C3F308039AB2BB681A8089
:1036E4007B689B6A9A1C7B689A6229E07B681B68EA
:1036F4005B689BB2DBB29AB2BB681A807B689B6A38
:103704005A1C7B689A621BE07B681B69002B0AD1F8
:103714007B681B6858687B689B6A591C7A6891624D
:10372400C2B21A700CE07B681B685B68DAB27B6813
:103734009B6A581C7968886202F07F02D2B21A70C0
:103744007B68DB8D013B9AB27B68DA857B68DB8D15
:10375400002B2BD17B681B68DA687B681B6822F01E
:103764002002DA607B6893F83930DBB2322B04D163
:103774007B68122283F8392013E07B681B68DA68BF
:103784007B681B6822F48072DA607B681B685A6964
:103794007B681B6822F001025A617B68012283F86E
:1037A40039207868FFF739FE002302E0002300E0A7
:1037B400022318461037BD4680BD0000B0B584B062
:1037C40000AF78600023FB607B685B68A94A934282
:1037D40004D940F23671A84801F09DFB7B68DB6890
:1037E400002B09D07B68DB68B3F5005F04D040F29E
:1037F4003771A14801F08FFB7B681B69002B0ED049
:103804007B681B69B3F5806F09D07B681B69B3F5CE
:10381400C06F04D04FF4E761974801F07CFB7B68EC
:103824005A694FF6F3731340002B03D17B685B692D
:10383400002B04D140F239718F4801F06CFB7B6896
:103844001B681B69FB60FB6823F44053FB607B68C7
:10385400DB68FA681343FB607B681B68FA681A61CB
:103864007B681B68DB68FB60FB6823F4164323F06A
:103874000C03FB607B689A687B681B691A437B684E
:103884005B691A437B68DB691343FA681343FB6083
:103894007B681B68FA68DA607B681B685B69FB609D
:1038A400FB6823F44073FB607B689B69FA681343ED
:1038B400FB607B681B68FA685A617B68DB69B3F557
:1038C400004F40F08C807B681B686C4A934204D0A4
:1038D4007B681B686A4A934240D1FEF797FE024612
:1038E40013469B0013449A001A447B685B685B0090
:1038F400B2FBF3F3634AA2FB03235B091C01FEF74B
:1039040085FE024613469B0013449A001A447B68C2
:103914005B685B00B2FBF3F5FEF778FE02461346E4
:103924009B0013449A001A447B685B685B00B2FBFB
:10393400F3F3544AA2FB03235B09642202FB03F35F
:10394400EB1A1B0132334F4AA2FB03235B0903F03A
:103954000F027B681B6822439A60D6E0FEF734FEB0
:10396400024613469B0013449A001A447B685B6822
:103974005B00B2FBF3F3434AA2FB03235B091C0184
:10398400FEF722FE024613469B0013449A001A4493
:103994007B685B685B00B2FBF3F5FEF715FE02463D
:1039A40013469B0013449A001A447B685B685B00CF
:1039B400B2FBF3F3334AA2FB03235B09642202FB49
:1039C40003F3EB1A1B0132332E4AA2FB03235B09D8
:1039D40003F00F027B681B6822439A6095E07B68C2
:1039E4001B68264A934204D07B681B68244A93428E
:1039F4004AD1FEF70BFE024613469B0013449A007D
:103A04001A447B685B689B00B2FBF3F31D4AA2FB7C
:103A140003235B091C01FEF7F9FD024613469B00D4
:103A240013449A001A447B685B689B00B2FBF3F56D
:103A3400FEF7ECFD024613469B0013449A001A4419
:103A44007B685B689B00B2FBF3F30E4AA2FB032383
:103A54005B09642202FB03F3EB1A1B013233094AAC
:103A6400A2FB03235B0903F00F027B681B6822435C
:103A74009A604AE0A037A000D0520008001001402C
:103A8400001401401F85EB51FEF79EFD02461346CC
:103A94009B0013449A001A447B685B689B00B2FB4A
:103AA400F3F31C4AA2FB03235B091C01FEF78CFD04
:103AB400024613469B0013449A001A447B685B68D1
:103AC4009B00B2FBF3F5FEF77FFD024613469B0015
:103AD40013449A001A447B685B689B00B2FBF3F3BF
:103AE4000C4AA2FB03235B09642202FB03F3EB1AD7
:103AF4001B013233074AA2FB03235B0903F00F02C5
:103B04007B681B6822439A60FFE700BF1037BD46FD
:103B1400B0BD00BF1F85EB5180B582B000AF034636
:103B2400FB80FB88B3F5005F07D0B3F5005F0DDCC5
:103B3400012B05D0022B06D008E0FDF7FBF805E0C9
:103B4400FDF7E6F802E0FDF7ECF800BF00BF083728
:103B5400BD4680BD80B584B000AF78603960002375
:103B6400FB7335E0FA7B13465B0013441B011A46D2
:103B74003B68134400221A70FA7B13465B0013441B
:103B84001B011A463B6813440022DA70FA7B134681
:103B94005B0013441B011A463B6813440022DA738A
:103BA400FA7B13465B0013441B011A463B6813441B
:103BB40000229A76FA7B13465B0013441B011A46D3
:103BC4003B681344002283F82520FB7B0133FB73FD
:103BD400FB7B012BC6D90023BB73BB7B7A681344E0
:103BE4001B787B7300233B730223FB720023FB735C
:103BF4000023BB72E9E07B7B2C2B10D02E2B1FD132
:103C0400BB7A042B05D0BB7A0133BB7200233B7310
:103C1400D3E07249724800F0A7FF0023DAE0FB7B8F
:103C24000133FB73FB7B022B04D00023BB72002304
:103C34003B73C2E06B496A4800F096FF0023C9E079
:103C44003A7BFB7A9A4200F0B280BB7A042B00F2F2
:103C5400A98001A252F823F0713C0008AD3C000891
:103C6400E93C0008293D0008693D00080223FB7275
:103C7400FA7B13465B0013441B011A463B6813444A
:103C84001A463B7B13447A7B1A70FA7B13465B001B
:103C940013441B011A463B6813441A463B7B013309
:103CA400134400221A707EE00B23FB72FA7B134646
:103CB4005B0013441B011A463B681344DA1C3B7B2C
:103CC40013447A7B1A70FA7B13465B0013441B017E
:103CD4001A463B681344DA1C3B7B0133134400222D
:103CE4001A7060E00A23FB72FA7B13465B001344EC
:103CF4001B011A463B68134403F10F023B7B134438
:103D04007A7B1A70FA7B13465B0013441B011A4634
:103D14003B68134403F10F023B7B0133134400223D
:103D24001A7040E00723FB72FA7B13465B001344CE
:103D34001B011A463B68134403F11A023B7B1344EC
:103D44007A7B1A70FA7B13465B0013441B011A46F4
:103D54003B68134403F11A023B7B013313440022F2
:103D64001A7020E00723FB72FA7B13465B001344AE
:103D74001B011A463B68134403F125023B7B1344A1
:103D84007A7B1A70FA7B13465B0013441B011A46B4
:103D94003B68134403F125023B7B013313440022A7
:103DA4001A7000E000BF3B7B01333B7305E00E4912
:103DB4000B4800F0D9FE00230CE0BB7B0133BB733E
:103DC400BB7B7A6813441B787B737B7B002B7FF46B
:103DD40012AF012318461037BD4680BD08530008B2
:103DE400F40000202C5300084C53000880B588B020
:103DF40000AF786039600023FB6007F10C03BB61FE
:103E040000237B770023BB7713E00023FB770AE0D2
:103E14007B7F5A1C7A771A463B68134400221A7037
:103E2400FB7F0133FB77FB7F012BF1D9BB7F013390
:103E3400BB77BB7F032BE8D9BB6900221A70002330
:103E44003B7700237B770CE07B7F01337B777B7FA1
:103E5400022B06D1B349B44800F086FE002300F0DB
:103E6400D7BC3A7F13465B0013441B011A467B6898
:103E7400134418467A7F13465B0013449B00134493
:103E84000833AA4A13440133194600F0BFFD034620
:103E9400002BD9D07B7F1846FCF788FC0346FB74C3
:103EA4007A7F13465B0013449B00134408339F4AF4
:103EB40013440133B969184600F0A8FD0346002BEA
:103EC40040F05C847A7F13465B0013449B001344E8
:103ED4000833964A13440133BB610023FB750CE09D
:103EE400FB7D0133FB75FB7D132B06D190498E4876
:103EF40000F03AFE002300F08BBC3A7F13465B00CF
:103F040013441B011A467B681344D81CFA7D1346DC
:103F1400DB009B1A5B00874A1344194600F076FDC8
:103F24000346002BDCD0FA7D82491346DB009B1A42
:103F34005B000B440D331B78BB7400237B771CE0C0
:103F44003A7F13465B0013441B011A467B68991899
:103F54007A7F13469B0013445B0013440B440F33D6
:103F64001B78002B06D174496F4800F0FDFD002337
:103F740000F04EBC7B7F01337B777A7FBB7C9A4217
:103F8400DED37B7F022B19D83A7F13465B001344A0
:103F94001B011A467B6899187A7F13469B001344C9
:103FA4005B0013440B440F331B78002B06D062498B
:103FB4005D4800F0D9FD002300F02ABCFB7D122BE4
:103FC40000F2E28301A252F823F000BF1D40000872
:103FD4002940000809410008D7410008954200081B
:103FE400F1420008AF4300081D440008F1440008F2
:103FF40015460008D7460008E3460008EF460008C7
:10400400FB46000807470008134700081F4700083D
:104014002B47000851470008FB7C3A6813440022F0
:104024001A70B1E30023BB750BE0BB7D0133BB7594
:10403400BB7D192B05D141493B4800F095FD002378
:10404400E6E33A7F13465B0013441B011A467B6880
:10405400134403F10F00BA7D13469B0013449B00E5
:10406400374A13440133194600F0D0FC0346002BB1
:10407400DBD0BA7DFB7C39681944314813469B0078
:1040840013449B0003441B780B70BA7D2C491346E0
:104094009B0013449B000B440E331B787B743A7FC4
:1040A40013465B0013441B011A467B6813441A33FE
:1040B40007F108021146184600F0CFFC0346002B16
:1040C40005D12049184800F04FFD0023A0E3012347
:1040D400BB7712E0BA68797CBB7FCB1ADB0022FA8B
:1040E40003F1BB7F5A00FB7C13441A463B6813441C
:1040F400CAB21A70BB7F0133BB777A7CBB7F9A420A
:10410400E8D241E30023BB751EE0BB7D0133BB75E0
:10411400BB7D192B18D10949034800F025FD002364
:1041240076E300BF6C530008F40000203401002043
:104134009C530008D4580008E05300083054000889
:10414400E0560008705400083A7F13465B0013449D
:104154001B011A467B68134403F10F00BA7D134612
:104164009B0013449B00B44A13440133194600F0E6
:104174004DFC0346002BC8D0BA7DAF4913469B00C3
:1041840013449B000B441A78FB7C39680B4442F0BF
:104194002002D2B21A70BA7DA74913469B00134479
:1041A4009B000B440E331B787B740123BB770BE01D
:1041B400BB7F5A00FB7C13441A463B68134400221D
:1041C4001A70BB7F0133BB777A7CBB7F9A42EFD2F4
:1041D400DAE200237B750BE07B7D01337B757B7D0D
:1041E400022B05D19549964800F0BEFC00230FE34D
:1041F4003A7F13465B0013441B011A467B68134441
:1042040003F10F007A7D1346DB0013448D4A1344F7
:10421400194600F0FBFB0346002BDDD0FB7C3A681B
:1042240013447A7D42F05002D2B21A703A7F134698
:104234005B0013441B011A467B6813441A3307F1CD
:1042440008021146184600F008FC0346002B05D16D
:104254007D497B4800F088FC0023D9E20123BB7729
:1042640012E0BA68BB7FC3F10303DB0022FA03F157
:10427400BB7F5A00FB7C13441A463B681344CAB202
:104284001A70BB7F0133BB77BB7F032BE9D97BE279
:1042940000237B750BE07B7D01337B757B7D022BDB
:1042A40005D16649664800F05FFC0023B0E23A7F1E
:1042B40013465B0013441B011A467B68134403F145
:1042C4000F007A7D1346DB0013445E4A13441946FB
:1042D40000F09CFB0346002BDDD0FB7C3A681344C2
:1042E4007A7D42F05802D2B21A704DE200237B75F7
:1042F4000BE07B7D01337B757B7D022B05D14F4920
:104304004F4800F031FC002382E23A7F13465B0001
:1043140013441B011A467B68134403F10F007A7D92
:104324001346DB001344474A1344194600F06EFB5E
:104334000346002BDDD0FB7C3A6813447A7D42F0BF
:104344004002D2B21A703A7F13465B0013441B0139
:104354001A467B6813441A3307F1080211461846BB
:1043640000F07BFB0346002B05D13749344800F0AD
:10437400FBFB00234CE20123BB7712E0BA68BB7F4E
:10438400C3F10303DB0022FA03F1BB7F5A00FB7C79
:1043940013441A463B681344CAB21A70BB7F0133F4
:1043A400BB77BB7F032BE9D9EEE1FB7C3A6813446E
:1043B40060221A703A7F13465B0013441B011A46AD
:1043C4007B6813440F3307F108021146184600F0C6
:1043D40044FB0346002B05D11B49194800F0C4FBDC
:1043E400002315E20123BB7712E0BA68BB7FC3F157
:1043F4000303DB0022FA03F1BB7F5A00FB7C134466
:104404001A463B681344CAB21A70BB7F0133BB77A8
:10441400BB7F032BE9D9B7E100237B7516E07B7DD5
:1044240001337B757B7D022B10D10449044800F0D5
:104434009BFB0023ECE100BFE0560008A8540008F1
:10444400F4000020E0590008705400083A7F134635
:104454005B0013441B011A467B68134403F10F00ED
:104464007A7D1346DB001344B24A1344194600F024
:10447400CDFA0346002BD2D0FB7C3A6813447A7DF4
:1044840042F06802D2B21A703A7F13465B001344BA
:104494001B011A467B6813441A3307F108021146BC
:1044A400184600F0DAFA0346002B05D1A249A348C6
:1044B40000F05AFB0023ABE10123BB7712E0BA689A
:1044C400BB7FC3F10303DB0022FA03F1BB7F5A0075
:1044D400FB7C13441A463B681344CAB21A70BB7F70
:1044E4000133BB77BB7F032BE9D94DE100233B7537
:1044F4000BE03B7D01333B753B7D022B05D190499D
:104504008E4800F031FB002382E13A7F13465B00C2
:1045140013441B011A467B68134403F10F003A7DD0
:1045240013469B001344874A1344194600F06EFA5D
:104534000346002BDDD03B7DDB005BB263F07D03E3
:1045440059B2FB7C3A681344CAB21A7000237B75D3
:104554000BE07B7D01337B757B7D022B05D17A4992
:10456400764800F001FB002352E13A7F13465B00DA
:1045740013441B011A467B68134403F11A007A7D25
:104584001346DB0013446B4A1344194600F03EFA09
:104594000346002BDDD0FB7C3A6813441978FB7C7E
:1045A4003A6813447A7D0A43D2B21A703A7F1346AA
:1045B4005B0013441B011A467B681344253307F13F
:1045C40008021146184600F048FA0346002B05D1AC
:1045D40059495A4800F0C8FA002319E10123BB776E
:1045E40012E0BA68BB7FC3F10303DB0022FA03F1D4
:1045F400BB7F5A00FB7C13441A463B681344CAB27F
:104604001A70BB7F0133BB77BB7F032BE9D9BBE0B7
:1046140000233B750BE03B7D01333B753B7D022B57
:1046240005D14749454800F09FFA0023F0E03A7F5E
:1046340013465B0013441B011A467B68134403F1C1
:104644000F003A7D13469B0013443E4A1344194617
:1046540000F0DCF90346002BDDD03B7DDB005BB2D0
:1046640063F06D0359B2FB7C3A681344CAB21A7002
:1046740000237B750BE07B7D01337B757B7D022BF7
:1046840005D131492D4800F06FFA0023C0E03A7F8C
:1046940013465B0013441B011A467B68134403F161
:1046A4001A007A7D1346DB001344224A1344194648
:1046B40000F0ACF90346002BDDD0FB7C3A681344D0
:1046C4001978FB7C3A6813447A7D0A43D2B21A7093
:1046D4005AE0FB7C3A68134470221A7054E0FB7C65
:1046E4003A68134478221A704EE0FB7C3A6813440B
:1046F400D8221A7048E0FB7C3A681344C0221A702E
:1047040042E0FB7C3A681344B0221A703CE0FB7C24
:104714003A681344B8221A7036E0FB7C3A681344B2
:10472400A0221A7030E0FB7C3A681344A8221A7065
:104734002AE000BFE059000870540008F40000208B
:10474400DC540008F4590008A8540008FB7C3A68BB
:104754001344D0221A700123BB770BE0BB7F5A00AD
:10476400FB7C13441A463B68134400221A70BB7F37
:104774000133BB77BB7F022BF0D905E026492748DC
:1047840000F0F2F9002343E03B7F01333B773B7FAA
:10479400012B3CD83A7F13465B0013441B011A4695
:1047A4007B6813441B78002B7FF44BAB3A7F134692
:1047B4005B0013441B011A467B681344DB78002B0F
:1047C4007FF43FAB3A7F13465B0013441B011A4648
:1047D4007B681344DB7B002B7FF433AB3A7F1346B7
:1047E4005B0013441B011A467B6813449B7E002B19
:1047F4007FF427AB3A7F13465B0013441B011A4630
:104804007B68134493F82530002B7FF41AAB012303
:1048140018462037BD4680BD0C550008F400002022
:1048240090B587B000AFF860B9607A603B60B96852
:10483400F868FFF78FF90346002B00F0CA80796807
:10484400B868FFF7D3FA0346002B00F0C28065492D
:10485400654800F089F939687868FBF7BFFF0023E1
:10486400FB75ADE0FB7D614A002142F82310FB7D1E
:104874007A6813441B7803F0E003202B6BD10023E8
:10488400BB7502E0BB7D0133BB75FB7D7A681344C5
:104894001B7803F01F01BA7D554813469B0013444F
:1048A4009B0003441B789942ECD1BA7D50491346CE
:1048B4009B0013449B000B440E331B783B753B7DDC
:1048C400012B02D0022B03D005E001237B7505E008
:1048D40002237B7502E003237B7500BFFC7D3A7DD8
:1048E400FB7D39681846FBF7C7FF03463F4A42F889
:1048F4002430FA7D13465B0013449B0013443D4A65
:1049040013441946384800F02FF93B49364800F063
:104914002BF9BA7D13469B0013449B00344A13447D
:1049240001331946304800F01FF934492E4800F08D
:104934001BF9FB7D2D4A52F823307A7D1146184627
:1049440000F07CFA03461946274800F00DF92C497B
:10495400254800F009F9FB7D7A6813441B78D02BB5
:104964002BD1FC7DFB7D022239681846FBF784FFBE
:1049740003461E4A42F82430FA7D13465B00134472
:104984009B0013441B4A13441946174800F0ECF8E3
:104994001C49154800F0E8F8FB7D144A52F823300E
:1049A4000221184600F04AFA034619460E4800F060
:1049B400DBF813490C4800F0D7F8FB7D0133FB7595
:1049C400FB7D012B7FF64EAF0D49074800F0CCF874
:1049D40003E00D49044800F0C7F8044B18461C379F
:1049E400BD4690BD48550008F4000020F0010020A9
:1049F400E0560008340100207C550008805500086A
:104A04009055000894550008A855000880B485B056
:104A140000AF786039600023FB73FB7B7A68134432
:104A24001B78BB73FB7B3A6813441B787B73BA7B9C
:104A34007B7B9A4201D0002309E0FB7B0133FB73AB
:104A4400BB7B002B02D07B7B002BE6D101231846D5
:104A54001437BD465DF8047B704780B487B000AF5F
:104A6400786039600023FB7514E0FB7D7A68134499
:104A74001B782F2B09D9FB7D7A6813441B78392BBB
:104A840003D8FB7D0133FB7504E03B6800221A6008
:104A9400002327E0FB7D7A6813441B78002BE4D1C4
:104AA40001233B610023FB60FB7D013BFB75FB7D28
:104AB4007A6813441B78FB72FB7A303B1A463B69D5
:104AC40002FB03F3FA681344FB603A6913469B0044
:104AD40013445B003B61FB7D002BE5D13B68FA6826
:104AE4001A60012318461C37BD465DF8047B7047E5
:104AF40080B500AF1249134800F036F81249114846
:104B040000F032F811490F4800F02EF810490D4812
:104B140000F02AF80F490B4800F026F80E4909481E
:104B240000F022F80D49074800F01EF80C4905482A
:104B340000F01AF80B49034800F016F800BF80BDD6
:104B440090550008F4000020D0550008E4550008F2
:104B540014560008445600085456000864560008C9
:104B6400685600088056000880B584B000AF7860AD
:104B740039600023FB7300BFFB7B5A1CFA731A468F
:104B84003B6813441B78002BF6D1FB7B013BFB7382
:104B9400FB7B9AB20A2339687868FEF727FA00BFCC
:104BA4001037BD4680BD000080B500AF0B4B93F8B5
:104BB4003930DBB2012B0ED1094B1B78002B05D009
:104BC400084B094A09490648FFF72AFE40220449CE
:104BD4000248FEF7B4FA00BF80BD00BFF400002015
:104BE4005001002080000020780000209001002067
:104BF40080B584B000AF78607B681B685B68FB732A
:104C04007B68DB8D012B02D0FB7B0D2B41D17B68B4
:104C1400DB8D01339AB27B68DA857B689B6A5A1E06
:104C24007B689A627B689B6A00221A701B497868C9
:104C3400FFF79AFF00BF7B681B681B6803F0200323
:104C4400002BF8D17B681B68DA687B681B6822F04C
:104C54002002DA607B6893F83930DBB2322B04D15E
:104C64007B68122283F8392013E07B681B68DA68BA
:104C74007B681B6822F48072DA607B681B685A695F
:104C84007B681B6822F001025A617B68012283F869
:104C9400392000BF1037BD4680BD00BF90550008C5
:104CA40080B483B000AF3023BB7130237B71002309
:104CB400FB71B3E0FB79092B05D8FB7930337B71A9
:104CC4000023BB7119E0FB795A4AA2FB0323DB08DA
:104CD400DBB230337B71FB79564AA2FB0323DB083A
:104CE400DBB21A465201D21A9200D31A5B00DAB22E
:104CF400FB791344DBB23033BB71FA794E49134666
:104D04005B0013449B0013440B444C221A70FA7941
:104D1400494913465B0013449B0013440B4401337D
:104D240036221A70FA79444913465B0013449B00F7
:104D340013440B44023334221A70FA793E49134661
:104D44005B0013449B0013440B44033337221A7053
:104D5400FA79394913465B0013449B0013440B440E
:104D6400043330221A70FA79334913465B00134432
:104D74009B0013440B44053323221A70FA792E49FD
:104D840013465B0013449B0013440B4406337A79A7
:104D94001A70FA79284913465B0013449B001344A4
:104DA4000B440733BA791A70FA79234913465B0026
:104DB40013449B0013440B44083300221A70FA79FD
:104DC4001D4913465B0013449B0013440B440933F1
:104DD4004D221A70FA79184913465B0013449B005C
:104DE40013440B440A337A791A70FA791249134638
:104DF4005B0013449B0013440B440B33BA791A70C1
:104E0400FA790D4913465B0013449B0013440B4489
:104E14000C3300221A70FB790133FB71FB79012BEF
:104E24007FF648AF00BF00BF0C37BD465DF8047B7A
:104E3400704700BFCDCCCCCC3401002080B485B009
:104E440000AF78600B46FB700023BB73FB78032B29
:104E540016D801A252F823F06D4E0008734E0008D4
:104E6400794E00087F4E00080123BB7308E002233B
:104E7400BB7305E00423BB7302E00823BB7300BFCC
:104E84000023FB7329E0FB7B1B4A0021D154BB7B2D
:104E94005A1EFB7BD31A9B000F2202FA03F31A4615
:104EA4007B681A40BB7B591EFB7BCB1A9B0022FA02
:104EB40003F37B737B7B092B06D8FB7B7A7B303235
:104EC400D1B20D4AD15405E0FB7B7A7B3732D1B2A3
:104ED400094AD154FB7B0133FB73FA7BBB7B9A42B7
:104EE400D1D3FB7B044A0021D154034B1846143719
:104EF400BD465DF8047B7047F801002080B500AF23
:104F0400FCF718F8FBF7F2FEFFF7F2FDFFF7C8FE17
:104F1400FFF74AFEFCE780B483B000AF78603960E5
:104F240000BF0C37BD465DF8047B704780B500AF09
:104F34000720FCF7C7F9002200214FF0FF30FCF7EF
:104F4400E1F900BF80BD000080B58CB000AF78608F
:104F54007B681B683C4A934244D13C4B1B6B3B4AE5
:104F640043F001031363394B1B6B03F00103BB6173
:104F7400BB69364B1B6B354A43F002031363334B57
:104F84001B6B03F002037B617B69304B5B6C2F4A24
:104F940043F4805353642D4B5B6C03F480533B61A7
:104FA4003B69C023FB6102233B6200237B62032332
:104FB400BB620523FB6207F11C0319462448FCF776
:104FC40017FA0823FB6102233B6200237B6203235D
:104FD400BB620523FB6207F11C0319461D48FCF75D
:104FE40007FA2DE07B681B681B4A934228D1174BB4
:104FF4001B6B164A43F002031363144B1B6B03F041
:105004000203FB60FB68114B1B6C104A43F48043A2
:1050140013640E4B1B6C03F48043BB60BB684FF4FA
:105024006043FB6102233B6200237B620323BB6278
:105034000523FB6207F11C0319460648FCF7D8F95F
:1050440000BF3037BD4680BD00300140003802400B
:1050540000000240000402400038004080B58AB0DD
:1050640000AF78607B681B681B4A93422FD11B4BAF
:105074001B6B1A4A43F001031363184B1B6B03F0B9
:1050840001033B613B69154B1B6C144A43F4003329
:105094001364124B1B6C03F40033FB60FB680C239A
:1050A4007B610223BB610023FB6103233B62072373
:1050B4007B6207F1140319460948FCF799F90022A9
:1050C40000212620FCF71EF92620FCF747F900BF33
:1050D4002837BD4680BD00BF004400400038024070
:1050E4000000024080B500AFFBF7D4FFFCF772F973
:1050F40000BF80BD80B500AF0220FCF733FC00BFC9
:1051040080BD80B500AF0120FCF72CFC00BF80BD42
:1051140080B500AF0348FEF779F80248FFF768FD51
:1051240000BF80BDF400002080B500AF4FF40050F4
:10513400FCF718FC00BF80BDDFF834D0002103E089
:105144000C4B5B58435004310B480C4B42189A42A9
:10515400F6D30B4A02E0002342F8043B094B9A427F
:10516400F9D3FBF723FF00F011F8FFF7C7FE7047F0
:1051740000800120185A0008000000203C00002094
:105184003C00002004020020FEE7000070B50D4D35
:105194000D4C641BA4100026A64209D10B4D0C4CE7
:1051A40000F018F8641BA4100026A64205D170BDB7
:1051B40055F8043B98470136EEE755F8043B984709
:1051C4000136F2E7105A0008105A0008105A000875
:1051D400145A0008F8B500BFF8BC08BC9E467047D6
:0C51E400F8B500BFF8BC08BC9E46704740
:1051F000447269766572732F53544D333246347856
:10520000785F48414C5F4472697665722F537263D0
:105210002F73746D3332663478785F68616C5F63C6
:105220006F727465782E6300447269766572732FAD
:1052300053544D3332463478785F48414C5F447262
:10524000697665722F5372632F73746D33326634CF
:1052500078785F68616C5F6770696F2E630000002B
:10526000447269766572732F53544D3332463478E5
:10527000785F48414C5F4472697665722F53726360
:105280002F73746D3332663478785F68616C5F7247
:1052900063632E6300000000447269766572732FA9
:1052A00053544D3332463478785F48414C5F4472F2
:1052B000697665722F5372632F73746D333266345F
:1052C00078785F68616C5F7370692E63000000001E
:1052D000447269766572732F53544D333246347875
:1052E000785F48414C5F4472697665722F537263F0
:1052F0002F73746D3332663478785F68616C5F75D4
:105300006172742E63000000546F6F206D756368C6
:1053100020656E746572656420706172616D65747C
:105320006572732E0D0A0D0A00000000546F6F2085
:105330006D75636820616464726573736564204C85
:10534000363437302E0D0A0D0A000000546F6F20DE
:105350006D75636820656E7465726564206368614D
:105360007261637465722E0D0A0D0A00497420691A
:1053700073206E6F7420706F737369626C65207434
:105380006F206964656E7469667920746865204C65
:10539000363437302E0D0A0D0A000000497420699A
:1053A00073206E6F7420706F737369626C65207404
:1053B0006F207265636F676E697A6520616E792010
:1053C0004C36343730206170706C69636174696F7A
:1053D0006E20636F6D6D616E642E0D0A0D0A000004
:1053E000546865206E756D626572206F662070610D
:1053F00072616D65746572732072656C6174656449
:1054000020746F20746865206170706C69636174CA
:10541000696F6E20636F6D6D616E64206973206EBD
:105420006F742072696768742E0D0A0D0A000000FF
:105430004974206973206E6F7420706F7373696292
:105440006C6520746F207265636F676E697A652082
:10545000616E79204C363437302072656769737419
:105460006572206E616D652E0D0A0D0A0000000048
:105470004974206973206E6F7420706F7373696252
:105480006C6520746F207265636F676E697A652042
:10549000616E79206E756D657269632076616C75D9
:1054A000652E0D0A0D0A00004974206973206E6F85
:1054B0007420706F737369626C6520746F207265FD
:1054C000636F676E697A6520616E792064697265C1
:1054D0006374696F6E2E0D0A0D0A0000497420690D
:1054E00073206E6F7420706F737369626C652074C3
:1054F0006F207265636F676E697A6520616E7920CF
:10550000616374696F6E2E0D0A0D0A00426F746834
:1055100020656E746572656420636F6D6D616E6485
:1055200073206172652061646472657373696E676C
:10553000207468652073616D65204C363437302ED9
:105540000D0A0D0A00000000506572666F726D2032
:1055500074686520656E7465726564204C363437F6
:1055600030204170706C69636174696F6E20436FA5
:105570006D6D616E642E2E2E0D0A0000200000005D
:105580002076616C7565206973203078000000001A
:105590000D0A0000205354415455532076616C7518
:1055A0006520697320307800506C656173652C202C
:1055B000656E7465722061206E657720636F6D6D16
:1055C000616E6420737472696E67210D0A0D0A00A2
:1055D00020582D4E55434C454F2D49484D303241B2
:1055E000310D0A00202D2D2D2D2D2D2D2D2D2D2D64
:1055F0002D2D2D2D2D2D2D2D2D2D2D2D2D2D2D2DDB
:105600002D2D2D2D2D2D2D2D2D2D2D2D2D2D2D2DCA
:105610000D0A0000204475616C204C363437302070
:10562000457870616E73696F6E20426F617264209D
:10563000666F722053544D3332204E55434C454FC4
:105640000D0A000020537461636B6564206F6E2047
:10565000000000004E55434C454F2D46343031522A
:1056600045000000200D0A0020582D435542452DCD
:1056700053504E322076312E312E310D0A0000006B
:105680002053544D6963726F656C656374726F6EFD
:105690006963732C20323031350D0A0D0A00000089
:1056A00056616C756573206F66207468652072653D
:1056B00067697374657273206F66204C36343730B7
:1056C0005F230000206F66204578704272645F237C
:1056D000000000000D0A0D0A000000003A20000042
:1056E000014142535F504F53000000000016030079
:1056F0000000000002454C5F504F530000000000C6
:105700000009020000000000034D41524B00000060
:105710000000000000160300000000000453504584
:1057200045440000000000000014030000000000D9
:10573000054143430000000000000000000C02008F
:105740008A000000064445430000000000000000FD
:10575000000C02008A000000074D41585F5350457D
:1057600045440000000A020041000000084D494E77
:105770005F53504545440000000D0200000000004A
:105780001546535F5350440000000000000A020019
:1057900027000000094B56414C5F484F4C44000025
:1057A00000080100290000000A4B56414C5F525589
:1057B0004E00000000080100290000000B4B56417C
:1057C0004C5F414343000000000801002900000035
:1057D0000C4B56414C5F444543000000000801005B
:1057E000290000000D494E545F53504545440000C8
:1057F000000E0200080400000E53545F534C50008A
:105800000000000000080100190000000F464E5F74
:10581000534C505F41434300000801002900000041
:1058200010464E5F534C505F444543000008010052
:1058300029000000114B5F544845524D0000000004
:105840000004010000000000124144435F4F555422
:10585000000000000005010000000000134F434459
:105860005F54480000000000000401000800000030
:10587000145354414C4C5F54480000000007010091
:105880004000000016535445505F4D4F4445000002
:10589000000801000700000017414C41524D5F45D0
:1058A0004E00000000080100FF00000018434F4EAA
:1058B000464947000000000000100200882E00004A
:1058C00019535441545553000000000000100200C9
:1058D000000000004E4F50000000000000000000DB
:1058E0000000534554504152414D00000000000259
:1058F000474554504152414D00000000200152558F
:105900004E000000000000000000500253544550BB
:10591000434C4F434B00000058014D4F564500008B
:105920000000000000004002474F544F00000000FC
:10593000000000006001474F544F5F44495200008F
:1059400000006802474F554E54494C0000000000CB
:10595000820352454C454153455357000000920283
:10596000474F484F4D450000000000007000474F72
:105970004D41524B00000000000078005245534555
:1059800054504F5300000000D80052455345544432
:10599000455649434500C000534F465453544F5059
:1059A00000000000B0004841524453544F500000E2
:1059B0000000B800534F465448495A000000000008
:1059C000A0004841524448495A0000000000A80085
:1059D000474554535441545553000000D000000033
:1059E00052455600000000000046574400000000E9
:1059F00000010000525354000043505900010000C0
:105A00000000000001020304010203040607080964
:045A1000B9010008D0
:045A140095010008F0
:105A180000000240000802400200000000040240AA
:105A280020000000040000000008024001000000FF
:105A3800040000000008024002000000010000000D
:0C5A480000000240100000000024F400E8
:040000050800513D61
:00000001FF
