:020000040800F2
:100000000080012079560008C9560008C95600082A
:10001000C9560008C9560008C9560008000000006B
:10002000000000000000000000000000C9560008A9
:10003000C956000800000000C956000825560008EF
:10004000C9560008C9560008C9560008C956000814
:10005000C9560008C956000843560008355600081E
:10006000C9560008C9560008C9560008C9560008F4
:10007000C9560008C9560008C9560008C9560008E4
:10008000C9560008C9560008C956000800000000FB
:10009000000000000000000000000000C956000839
:1000A000C9560008C9560008C9560008C9560008B4
:1000B000C9560008C9560008C9560008C9560008A4
:1000C000C9560008C9560008C9560008C956000894
:1000D000C9560008C9560008515600080000000023
:1000E00069560008C9560008C956000800000000FB
:1000F000000000000000000000000000C9560008D9
:1001000000000000C9560008C9560008C95600087A
:1001100000000000000000000000000000000000DF
:10012000C9560008C9560008C9560008C956000833
:10013000C956000800000000000000000000000098
:10014000000000000000000000000000C956000888
:10015000C9560008C9560008C9560008C956000803
:10016000C9560008C9560008000000000000000041
:10017000000000000000000000000000000000007F
:1001800000000000C9560008000000000000000048
:04019000C956000844
:1001940010B5054C237833B9044B13B10448AFF3BD
:1001A40000800123237010BD6803002000000000BC
:1001B4001457000808B5034B1BB103490348AFF3B8
:1001C400008008BD000000006C03002014570008E4
:1001D40080B485B000AF78600023FB731AE0FB7B2A
:1001E4001B017A68134400221A70FB7B1B017A6896
:1001F400134400225A60FB7B1B017A6813440022DB
:100204009A60FB7B1B017A6813440022DA60FB7B53
:100214000133FB73FB7B012BE1D900BF00BF143713
:10022400BD465DF8047B704780B485B000AFB9600B
:100234007B600346FB731346BB73FB7B1B01BA68ED
:100244001344BA7B1A70FB7B1B01BA6813447A68A7
:100254005A60FB7B1B01BA681344BA699A60FB7B42
:100264001B01BA681344FA69DA6000BF1437BD464B
:100274005DF8047B7047000080B586B002AFB960BA
:100284007B600346FB731346BB730C4B1B78002B3C
:1002940005D10A4B01221A70B868FFF799FFBA7B9F
:1002A400F87BFB690193BB6900937B68B968FFF72E
:1002B400BBFF00BF1037BD4680BD00BFB4030020A4
:1002C40080B485B000AF7860396000237B7300236D
:1002D400BB7313E00023FB730AE07B7B5A1C7A7325
:1002E4001A463B68134400221A70FB7B0133FB73EC
:1002F400FB7B012BF1D9BB7B0133BB73BB7B032B92
:10030400E8D90023FB73F6E1FB7B1B017A681344F5
:100314001B781846FB7B3A681A44A5490346DB0060
:100324001B1A5B000B440C331B781370FB7B1B0103
:100334007A6813441B78122B00F2DA8101A252F876
:1003440023F000BFF5060008950300081B0400080D
:1003540049040008B1040008DF0400084705000848
:1003640083050008F705000893060008F506000851
:10037400F5060008F5060008F5060008F50600086D
:10038400F5060008F5060008F5060008F50600085D
:10039400FB7B3A6813441978FB7B1B017A6813448E
:1003A4005A68844813469B0013449B0003441A78FC
:1003B400FB7B386803440A43D2B21A70FB7B1B01EF
:1003C4007A6813445A687B4913469B0013449B0084
:1003D4000B440E331B783B730123BB7316E0FB7B8A
:1003E4001B017A6813449A68397BBB7BCB1ADB0008
:1003F40022FA03F1BB7B5A00FB7B13441A463B6889
:100404001344CAB21A70BB7B0133BB733A7BBB7B08
:100414009A42E4D26CE1FB7B3A6813441978FB7B83
:100424001B017A6813445A68624813469B001344BC
:100434009B0003441A78FB7B386803440A43D2B216
:100444001A7055E1FB7B3A6813441978FB7B1B0156
:100454007A6813445A6858481346DB00134403442B
:1004640008331A78FB7B386803440A43D2B21A7003
:100474000123BB7316E0FB7B1B017A6813449A6863
:10048400BB7BC3F10303DB0022FA03F1BB7B5A00FD
:10049400FB7B13441A463B681344CAB21A70BB7BF5
:1004A4000133BB73BB7B032BE5D921E1FB7B3A68AA
:1004B40013441978FB7B1B017A6813445A683E483D
:1004C4001346DB001344034408331A78FB7B386873
:1004D40003440A43D2B21A700AE1FB7B3A6813441C
:1004E4001978FB7B1B017A6813445A683248134617
:1004F400DB001344034408331A78FB7B3868034455
:100504000A43D2B21A700123BB7316E0FB7B1B01B2
:100514007A6813449A68BB7BC3F10303DB0022FAB5
:1005240003F1BB7B5A00FB7B13441A463B6813441C
:10053400CAB21A70BB7B0133BB73BB7B032BE5D9F7
:10054400D6E00123BB7316E0FB7B1B017A681344DE
:100554005A68BB7BC3F10303DB0022FA03F1BB7BC4
:100564005A00FB7B13441A463B681344CAB21A7000
:10057400BB7B0133BB73BB7B032BE5D9B8E0FB7BAF
:100584003A6813441978FB7B1B017A6813445A6850
:1005940009481346DB001344034408331A78FB7BF1
:1005A400386803440A43D2B21A700123BB731CE0B7
:1005B400105E00081C5C00081C5F0008FB7B1B012C
:1005C4007A6813449A68BB7BC3F10303DB0022FA05
:1005D40003F1BB7B5A00FB7B13441A463B6813446C
:1005E400CAB21A70BB7B0133BB73BB7B032BE5D947
:1005F4007EE0FB7B3A6813441B7859B2FB7B1B01FA
:100604007A6813445A68414813469B0013440344D0
:1006140004331B78DB005BB20B4359B2FB7B3A68B3
:100624001344CAB21A70FB7B3A6813441978FB7BF3
:100634001B017A6813449A6835481346DB00134457
:10064400034408331A78FB7B386803440A43D2B264
:100654001A700123BB7316E0FB7B1B017A681344F9
:10066400DA68BB7BC3F10303DB0022FA03F1BB7B33
:100674005A00FB7B13441A463B681344CAB21A70EF
:10068400BB7B0133BB73BB7B032BE5D930E0FB7B26
:100694003A6813441B7859B2FB7B1B017A681344F4
:1006A4005A681A4813469B001344034404331B78C6
:1006B400DB005BB20B4359B2FB7B3A681344CAB20A
:1006C4001A70FB7B3A6813441978FB7B1B017A6828
:1006D40013449A680E481346DB001344034408335A
:1006E4001A78FB7B386803440A43D2B21A7000BFFD
:1006F400FB7B0133FB73FB7B012B7FF605AE00BF55
:1007040000BF1437BD465DF8047B7047305F0008B6
:100714001C5F000880B483B000AF87ED010AD7EDF9
:10072400017A9FED0D7AF4EEC77AF1EE10FA0BD848
:1007340097ED017ADFED096AC7EE267AFCEEE77AD7
:1007440017EE903A9BB200E0002318460C37BD46E2
:100754005DF8047B704700BF71C66847FED46841EA
:1007640080B483B000AF87ED010AD7ED017A9FED25
:100774000D7AF4EEC77AF1EE10FA0BD897ED017A00
:10078400DFED096AC7EE267AFCEEE77A17EE903AB7
:100794009BB200E0002318460C37BD465DF8047B8D
:1007A400704700BF71C66847FED4684180B483B007
:1007B40000AF87ED010AD7ED017A9FED0D7AF4EED3
:1007C400C77AF1EE10FA0BD897ED017ADFED096ADA
:1007D400C7EE267AFCEEE77A17EE903A9BB200E079
:1007E400002318460C37BD465DF8047B704700BFF4
:1007F40002E773460B24744180B483B000AF87EDE5
:10080400010AD7ED017A9FED0D7AF4EEC77AF1EE85
:1008140010FA0BD897ED017ADFED096AC7EE267A54
:10082400FCEEE77A17EE903A9BB200E000231846FC
:100834000C37BD465DF8047B704700BFBF14744499
:100844000124743E80B483B000AF87ED010AD7ED74
:10085400017A9FED0F7AF4EEC77AF1EE10FA0FD811
:1008640097ED017ADFED0B6AC7EE267AB6EE007AD1
:1008740077EEC77AFCEEE77A17EE903A9BB200E087
:10088400002318460C37BD465DF8047B704700BF53
:1008940080E173460000744180B483B000AF87EDFB
:1008A400010AD7ED017A9FED0D7AF4EEC77AF1EEE5
:1008B40010FA0BD897ED017ADFED096AC7EE267AB4
:1008C400FCEEE77A17EE903A9BB200E0002318465C
:1008D4000C37BD465DF8047B704700BF2320744489
:1008E400F423743D80B483B000AF87ED010AD7EDE3
:1008F400017A9FED0D7AF4EEC77AF1EE10FA0CD876
:1009040097ED017ADFED096AC7EE267AFCEEE77A05
:10091400C7ED007A3B78DBB200E0002318460C37C1
:10092400BD465DF8047B7047D911833B6E958337D0
:1009340080B483B000AF87ED010AD7ED017A9FED53
:100944000D7AF4EEC77AF1EE10FA0CD897ED017A2D
:10095400DFED096AC7EE267AFCEEE77AC7ED007A86
:100964003B78DBB200E0002318460C37BD465DF847
:10097400047B7047D911833B6E95833780B483B071
:1009840000AF87ED010AD7ED017A9FED0D7AF4EE01
:10099400C77AF1EE10FA0CD897ED017ADFED096A07
:1009A400C7EE267AFCEEE77AC7ED007A3B78DBB235
:1009B40000E0002318460C37BD465DF8047B704701
:1009C400D911833B6E95833780B485B000AF87ED32
:1009D400010AD7ED017A9FED227AF4EEC77AF1EE9F
:1009E40010FA36D897ED017ADFED1E6AC7EE267A43
:1009F400C7ED037AD7ED037AFCEEE77AC7ED007A08
:100A04003B78DBB207EE903AF8EEE77A97ED037A9B
:100A140077EE677AC7ED027AD7ED027AB6EE007AFE
:100A2400F4EEC77AF1EE10FA0AD5D7ED037AFCEEAC
:100A3400E77AC7ED007A3B78DBB2013BDBB209E031
:100A4400D7ED037AFCEEE77AC7ED007A3B78DBB2A8
:100A540000E0002318461437BD465DF8047B704758
:100A64000080BB450080BB4380B485B000AF87EDF8
:100A7400010AD7ED017A9FED227AF4EEC77AF1EEFE
:100A840010FA36D897ED017ADFED1E6AC7EE267AA2
:100A9400C7ED037AD7ED037AFCEEE77AC7ED007A67
:100AA4003B78DBB207EE903AF8EEE77A97ED037AFB
:100AB40077EE677AC7ED027AD7ED027AB6EE007A5E
:100AC400F4EEC77AF1EE10FA0AD5D7ED037AFCEE0C
:100AD400E77AC7ED007A3B78DBB2013BDBB209E091
:100AE400D7ED037AFCEEE77AC7ED007A3B78DBB208
:100AF40000E0002318461437BD465DF8047B7047B8
:100B040000007A450000FA4180B584B002AF034684
:100B14003A60FB710B46BB71BA79F87900230193F3
:100B24003B680093134601220749FFF7A5FB0749D9
:100B34000548FFF7C5FB0649044800F061FC00BF07
:100B44000837BD4680BD00BF84030020A4030020F5
:100B5400AC03002080B586B002AF03460A46FB71A1
:100B64001346BB71BB79F8790022019200220092EE
:100B740002221049FFF780FB0F490E48FFF7A0FB44
:100B84000E490D4800F03CFCBA790D4913469B0010
:100B940013449B000B440E331B78FB73FA7BFB79E5
:100BA4000649184600F07AFCB860BB68184610374E
:100BB400BD4680BD84030020A4030020AC030020B4
:100BC4001C5C000880B584B002AF03463A60FB7138
:100BD4000B46BB71BA79F879002301933B68009303
:100BE400134603220749FFF747FB07490548FFF768
:100BF40067FB0649044800F003FC00BF0837BD4604
:100C040080BD00BF84030020A4030020AC030020A7
:100C140080B584B002AF03460A46FB711346BB712C
:100C2400BB79F8790022019200220092042207493C
:100C3400FFF722FB06490548FFF742FB0549044834
:100C440000F0DEFB00BF0837BD4680BD84030020F2
:100C5400A4030020AC03002080B584B002AF034697
:100C64003A60FB710B46BB71BA79F87900230193A2
:100C74003B680093134605220749FFF7FDFA07492D
:100C84000548FFF71DFB0649044800F0B9FB00BF07
:100C94000837BD4680BD00BF84030020A4030020A4
:100CA400AC03002080B584B002AF03463960FB7109
:100CB4003B68B3F5800F11D2F87900230193002328
:100CC40000933B6806220749FFF7D6FA0649054810
:100CD400FFF7F6FA0549044800F092FB00BF083715
:100CE400BD4680BD84030020A4030020AC03002083
:100CF40080B584B002AF03463A60FB710B46BB710A
:100D04003B68B3F5800F12D2BA79F87900230193C6
:100D14003B680093134607220749FFF7ADFA0749DA
:100D24000548FFF7CDFA0649044800F069FB00BF07
:100D34000837BD4680BD00BF84030020A403002003
:100D4400AC03002080B584B002AF3B600346FB7166
:100D54000B46BB7113467B71B9797B79F8793A6894
:100D6400019200930B4608220749FFF785FA0749C9
:100D74000548FFF7A5FA0649044800F041FB00BF07
:100D84000837BD4680BD00BF84030020A4030020B3
:100D9400AC03002080B584B002AF0346FB710B4660
:100DA400BB7113467B71BA797B79F8790021019183
:100DB4000093134609220749FFF75EFA06490548DE
:100DC400FFF77EFA0549044800F01AFB00BF083714
:100DD400BD4680BD84030020A4030020AC03002092
:100DE40080B584B002AF0346FB71F8790023019308
:100DF4000023009300230A220749FFF73DFA07491D
:100E04000548FFF75DFA0649044800F0F9FA00BF07
:100E14000837BD4680BD00BF84030020A403002022
:100E2400AC03002080B584B002AF0346FB71F879AF
:100E3400002301930023009300230B220749FFF7AB
:100E44001BFA07490548FFF73BFA0649044800F036
:100E5400D7FA00BF0837BD4680BD00BF8403002019
:100E6400A4030020AC03002080B584B002AF034685
:100E7400FB71F879002301930023009300230C22D3
:100E84000749FFF7F9F907490548FFF719FA064931
:100E9400044800F0B5FA00BF0837BD4680BD00BF66
:100EA40084030020A4030020AC03002080B584B098
:100EB40002AF0346FB71F8790023019300230093EA
:100EC40000230D220749FFF7D7F907490548FFF723
:100ED400F7F90649044800F093FA00BF0837BD4605
:100EE40080BD00BF84030020A4030020AC030020C5
:100EF40080B584B002AF0346FB71F87900230193F7
:100F04000023009300230E220749FFF7B5F9074990
:100F14000548FFF7D5F90649044800F071FA00BF07
:100F24000837BD4680BD00BF84030020A403002011
:100F3400AC03002080B584B002AF0346FB71F8799E
:100F4400002301930023009300230F220749FFF796
:100F540093F907490548FFF7B3F90649044800F037
:100F64004FFA00BF0837BD4680BD00BF8403002090
:100F7400A4030020AC03002080B584B002AF034674
:100F8400FB71F879002301930023009300231022BE
:100F94000749FFF771F907490548FFF791F9064931
:100FA400044800F02DFA00BF0837BD4680BD00BFDD
:100FB40084030020A4030020AC03002080B584B087
:100FC40002AF0346FB71F8790023019300230093D9
:100FD400002311220749FFF74FF907490548FFF796
:100FE4006FF90649044800F00BFA00BF0837BD4604
:100FF40080BD00BF84030020A4030020AC030020B4
:1010040080B586B002AF0346FB71F87900230193E3
:1010140000230093002312220B49FFF72DF90B49FB
:101024000948FFF74DF90A49084800F0E9F9FB7946
:1010340002220749184600F031FA0346FB81FB8976
:1010440018461037BD4680BD84030020A403002049
:10105400AC03002080B584B002AF03463A60FB7154
:101064000B46BB71BA79F879002301933B6800936E
:10107400134601220349FFF7FFF800BF0837BD46B6
:1010840080BD00BF8403002080B584B002AF034656
:101094000A46FB711346BB71BB79F87900220192B1
:1010A4000022009202220349FFF7E6F800BF083746
:1010B400BD4680BD8403002080B584B002AF0346E2
:1010C4003A60FB710B46BB71BA79F879002301933E
:1010D4003B680093134603220349FFF7CDF800BF92
:1010E4000837BD4680BD00BF8403002080B584B0AE
:1010F40002AF03460A46FB711346BB71BB79F8790C
:10110400002201920022009204220349FFF7B4F85E
:1011140000BF0837BD4680BD8403002080B584B07D
:1011240002AF03463A60FB710B46BB71BA79F8799A
:10113400002301933B680093134605220349FFF7FC
:101144009BF800BF0837BD4680BD00BF8403002064
:1011540080B584B002AF03463960FB71F87900238F
:101164000193002300933B6806220349FFF784F8A8
:1011740000BF0837BD4680BD8403002080B584B01D
:1011840002AF03463A60FB710B46BB71BA79F8793A
:10119400002301933B680093134607220349FFF79A
:1011A4006BF800BF0837BD4680BD00BF8403002034
:1011B40080B584B002AF3B600346FB710B46BB7144
:1011C40013467B71B9797B79F8793A680192009377
:1011D4000B4608220349FFF74FF800BF0837BD4606
:1011E40080BD00BF8403002080B584B002AF0346F5
:1011F400FB710B46BB7113467B71BA797B79F87925
:10120400002101910093134609220349FFF734F8A2
:1012140000BF0837BD4680BD8403002080B584B07C
:1012240002AF0346FB71F879002301930023009376
:1012340000230A220349FFF71FF800BF0837BD4601
:1012440080BD00BF8403002080B584B002AF034694
:10125400FB71F879002301930023009300230B22F0
:101264000349FFF709F800BF0837BD4680BD00BF3A
:101274008403002080B584B002AF0346FB71F87983
:10128400002301930023009300230C220349FEF75B
:10129400F3FF00BF0837BD4680BD00BF84030020B4
:1012A40080B584B002AF0346FB71F8790023019343
:1012B4000023009300230D220349FEF7DDFF00BF46
:1012C4000837BD4680BD00BF8403002080B584B0CC
:1012D40002AF0346FB71F8790023019300230093C6
:1012E40000230E220349FEF7C7FF00BF0837BD469F
:1012F40080BD00BF8403002080B584B002AF0346E4
:10130400FB71F879002301930023009300230F223B
:101314000349FEF7B1FF00BF0837BD4680BD00BFDB
:101324008403002080B584B002AF0346FB71F879D2
:101334000023019300230093002310220349FEF7A6
:101344009BFF00BF0837BD4680BD00BF840300205B
:1013540080B584B002AF0346FB71F8790023019392
:1013640000230093002311220349FEF785FF00BFE9
:101374000837BD4680BD00BF8403002080B584B01B
:1013840002AF0346FB71F879002301930023009315
:10139400002312220349FEF76FFF00BF0837BD4642
:1013A40080BD00BF8403002080B500AF0549064816
:1013B400FEF786FF0549034800F022F8034B184660
:1013C40080BD00BFA403002084030020AC030020E0
:1013D40080B483B000AF0346FB71FB79002B05D0CA
:1013E400FB79002B04D0FB79012B01D8FB7900E0B9
:1013F400FF2318460C37BD465DF8047B7047000098
:1014040080B586B002AF78603960204B00221A7034
:101414000023FB7332E01E4B5B681D4A11890022D6
:10142400184601F00BFEFB7B5B001A467B6899189B
:10143400FB7B5B001A463B681A440A230093022391
:10144400144802F0B1FD124B5B68114A1189012264
:10145400184601F0F3FD104B00221A7007E000BF9C
:1014640000BF0D4B1B780133DAB20B4B1A700A4BD9
:101474001B78132BF3D9FB7B0133FB73FB7B032B0F
:10148400C9D900BF00BF1037BD4680BDB4030020DA
:10149400BC030020C8030020BA03002080B485B038
:1014A40000AF03463960FB711346BB710023FB6038
:1014B4000123FB7215E0FB7A5B001A46FB791344A7
:1014C4003A6813441B781946BA79FB7AD31ADB00BD
:1014D40001FA03F31A46FB681343FB60FB7A0133FA
:1014E400FB72FB7A032BE6D9FB6818461437BD461A
:1014F4005DF8047B7047000080B584B000AF0346FC
:101504000A46FB711346BB710023FB73FB79182158
:101514001846FFF71FFB0246534B1B6892B21A8012
:10152400BB790E2B00F29A8001A252F823F000BF7F
:10153400711500088115000891150008A11500080F
:10154400B1150008C1150008D1150008E1150008FF
:10155400F1150008011600081116000821160008EC
:101564003116000841160008511600083E4B1B684E
:101574001B78C3F30003DBB2FB736FE03A4B1B68C9
:101584001B78C3F34003DBB2FB7367E0364B1B6885
:101594001B78C3F38003DBB2FB735FE0324B1B6841
:1015A4001B78C3F3C003DBB2FB7357E02E4B1B68FD
:1015B4001B78C3F30013DBB2FB734FE02A4B1B68A9
:1015C4001B78C3F34113DBB2FB7347E0264B1B6864
:1015D4001B78C3F3C013DBB2FB733FE0224B1B68E1
:1015E4005B78C3F30003DBB2FB7337E01E4B1B686D
:1015F4005B78C3F34003DBB2FB732FE01A4B1B6829
:101604005B78C3F38003DBB2FB7327E0164B1B68E4
:101614005B78C3F3C003DBB2FB731FE0124B1B68A0
:101624005B78C3F30013DBB2FB7317E00E4B1B684C
:101634005B78C3F34013DBB2FB730FE00A4B1B6808
:101644005B78C3F38013DBB2FB7307E0064B1B68C4
:101654005B78C3F3C013DBB2FB7300BFFB7B18469C
:101664001037BD4680BD00BF9400002080B584B013
:1016740000AFF860B960BB68D3ED057AB0EE670AD5
:10168400FFF748F803461A46FB689A83BB68D3ED14
:10169400067AB0EE670AFFF763F803461A46FB685A
:1016A400DA83BB68D3ED077AB0EE670AFFF77EF8FA
:1016B40003461A46FB681A84BB68D3ED087AB0EE79
:1016C400670AFFF799F803461A46FB685A84BB6811
:1016D400D3ED097AB0EE670AFFF7B4F803461A4669
:1016E400FB689A84BB68D3ED0A7A9FEDAB7A67EE08
:1016F400876ABB6893ED007AC6EE877AFCEEE77AD8
:10170400C7ED017A3B79DAB2FB6883F82620BB681F
:10171400D3ED0B7A9FEDA07A67EE876ABB6893EDF1
:10172400007AC6EE877AFCEEE77AC7ED017A3B7958
:10173400DAB2FB6883F82720BB68D3ED0C7A9FEDFF
:10174400967A67EE876ABB6893ED007AC6EE877A6D
:10175400FCEEE77AC7ED017A3B79DAB2FB6883F8ED
:101764002820BB68D3ED0D7A9FED8B7A67EE876AEC
:10177400BB6893ED007AC6EE877AFCEEE77AC7ED94
:10178400017A3B79DAB2FB6883F82920BB68D3ED90
:101794000E7AB0EE670AFFF77FF803461A46FB6835
:1017A4005A85BB68D3ED0F7AB0EE670AFFF79AF853
:1017B40003461A46FB6883F82C20BB68D3ED107AE5
:1017C400B0EE670AFFF7B4F803461A46FB6883F8DD
:1017D4002D20BB68D3ED117AB0EE670AFFF7CEF87F
:1017E40003461A46FB6883F82E20BB6893F848200A
:1017F400FB6883F82F20BB68D3ED137AB0EE670A39
:10180400FFF7E2F803461A46FB6883F83120BB6809
:10181400D3ED147AB0EE670AFFF726F903461A46A9
:10182400FB6883F83220BB6893F85420FB6883F884
:101834003320BB6893F85520FB6883F83420BB68D9
:10184400B3F85620FB68DA86FB689B681B68FA6865
:101854001078FA68928B04219847FB689B681B6890
:10186400FA681078FA68D28B05219847FB689B6860
:101874001B68FA681078FA68128C06219847FB688E
:101884009B681B68FA681078FA68528C072198479D
:10189400FB689B681B68FA681078FA68928C0821C8
:1018A4009847FB689B681B68FA681078FA6892F896
:1018B400262009219847FB689B681B68FA68107802
:1018C400FA6892F827200A219847FB689B681B68EE
:1018D400FA681078FA6892F828200B219847FB6878
:1018E4009B681B68FA681078FA6892F829200C2122
:1018F4009847FB689B681B68FA681078FA68528DF1
:101904000D219847FB689B681B68FA681078FA6891
:1019140092F82C200E219847FB689B681B68FA6894
:101924001078FA6892F82D200F219847FB689B687D
:101934001B68FA681078FA6892F82E2010219847EC
:10194400FB689B681B68FA681078FA6892F82F2085
:1019540011219847FB689B681B68FA681078FA683D
:1019640092F8312013219847FB689B681B68FA683A
:101974001078FA6892F8322014219847FB689B6823
:101984001B68FA681078FA6892F833201521984792
:10199400FB689B681B6801E000008043FA681078CC
:1019A400FA6892F8342016219847FB689B681B68F4
:1019B400FA681078FA68D28E1721984700BF10375A
:1019C400BD4680BD80B588B000AF0346FB71FB798E
:1019D400002B0BD1154B1B6B144A43F0010313630B
:1019E400124B1B6B03F00103BB60BB682023FB603D
:1019F40001233B6101237B610223BB61FB790C4A18
:101A040052F8233007F10C021146184601F068F829
:101A1400FB79074A52F8233020210022184601F0AE
:101A24000DFB00BF2037BD4680BD00BF003802401B
:101A34009800002080B582B000AF0346FB71FB79AB
:101A4400054A52F8233020210122184601F0F6FA03
:101A540000BF0837BD4680BD9800002080B582B025
:101A640000AF0346FB71FB79054A52F8233020216D
:101A74000022184601F0E2FA00BF0837BD4680BDD7
:101A84009800002080B588B000AF03460A46FB7179
:101A94001346BB71FB79002B0BD1234B1B6B224AE2
:101AA40043F004031363204B1B6B03F00403BB607C
:101AB400BB68BB79002B12D14FF40053FB600023A9
:101AC4003B6102237B610223BB61FB79174A52F815
:101AD400233007F10C021146184601F001F8BB79D6
:101AE400012B1CD14FF40053FB6000237B61104B8E
:101AF4003B61FB790D4A52F8233007F10C02114681
:101B0400184600F0EDFF28235BB200220F2118468F
:101B140000F070FF28235BB2184600F097FF00BF67
:101B24002037BD4680BD00BF003802409C00002025
:101B34000000211080B586B000AF464B1A6B464BAF
:101B44001B68444913430B63434B1B893B601123BC
:101B54007B600023BB600323FB603F4B5B683A461A
:101B64001146184600F0BCFF3A4B1A6B3B4B1B68FE
:101B7400384913430B63394B1B893B60384B7B60FB
:101B84000023BB60354B5B683A461146184600F0AB
:101B9400A7FF00220021062000F02CFF2D4B1A6B1A
:101BA400304B1B682B4913430B632E4B1B893B6043
:101BB4002B4B7B600023BB602A4B5B683A46114683
:101BC400184600F08DFF00220021072000F012FFCC
:101BD400002000F0A6FA0346FB752DE01D4B196B9F
:101BE400FA7D214813465B0013449B0003441B68A1
:101BF400184A0B431363FA7D1B4913465B001344D5
:101C04009B000B4408331B883B6001237B6000234B
:101C1400BB600323FB60FA7D134913465B00134446
:101C24009B000B4404331B683A461146184600F0E7
:101C340057FFFB7D0133FB75002000F072FA034669
:101C44001A46FB7D9342C9D900BF00BF1837BD4671
:101C540080BD00BF00380240300300203C03002058
:101C640000002110480300205403002080B582B0F6
:101C740000AF284B5B68274A11890022184601F0FF
:101C8400DDF9244B5B68234A11890122184601F0CF
:101C9400D5F9002000F045FA0346FB7127E0FB79F3
:101CA400184600F04FFA1C4B5B681B4A118901224D
:101CB400184601F0C3F90020FFF78AFB0346BB7105
:101CC4000AE0BB791846FFF7F1F8BB791846FFF72D
:101CD40097F9BB790133BB710120FFF779FB034608
:101CE4001A46BB799342ECD9FB790133FB7100208E
:101CF40000F017FA03461A46FB799342CFD9002025
:101D040000F00FFA0346184600F01CFA00BF08372B
:101D1400BD4680BD30030020BC03002080B582B0E6
:101D240000AF0346FB71FB79012B06D1062000F0BE
:101D34008DFE072000F08AFE05E0062000F09EFEDE
:101D4400072000F09BFE00BF0837BD4680BD80B56C
:101D540082B000AF3B600346FB710B46BB71134678
:101D64007B71FB79184600F0EDF90346002B05D092
:101D74007979BB793A681846FEF7C6FE00BF083782
:101D8400BD4680BD80B582B000AF0346FB710B46F3
:101D9400BB7113467B71FB79184600F0D3F90346F7
:101DA400002B07D07A79BB7911461846FEF7D2FE8C
:101DB400034600E0FF2318460837BD4680BD80B5C2
:101DC40082B000AF3B600346FB710B46BB71134608
:101DD4007B71FB79184600F0B5F90346002B05D05A
:101DE4007979BB793A681846FEF7ECFE00BF0837EC
:101DF400BD4680BD80B582B000AF0346FB710B4683
:101E0400BB7113467B71FB79184600F09BF90346BE
:101E1400002B05D07A79BB7911461846FEF7F8FEF7
:101E240000BF0837BD4680BD80B582B000AF3B60BF
:101E34000346FB710B46BB7113467B71FB79184655
:101E440000F080F90346002B05D07979BB793A6814
:101E54001846FEF701FF00BF0837BD4680BD80B5B8
:101E640082B000AF03463A60FB710B46BB71FB794D
:101E7400184600F067F90346002B04D0BB79396893
:101E84001846FEF70FFF00BF0837BD4680BD80B57A
:101E940082B000AF3B600346FB710B46BB71134637
:101EA4007B71FB79184600F04DF90346002B05D0F1
:101EB4007979BB793A681846FEF71AFF00BF0837EC
:101EC400BD4680BD90B583B000AF044608461146B8
:101ED4001A462346FB710346BB710B467B711346BE
:101EE4003B71FB79184600F02DF90346002B05D011
:101EF4003A797979B879BB69FEF724FF00BF0C37CA
:101F0400BD4690BD90B583B000AF04460846114667
:101F14001A462346FB710346BB710B467B7113467D
:101F24003B71FB79184600F00DF90346002B05D0F0
:101F34003A797979BB791846FEF72CFF00BF0C3744
:101F4400BD4690BD80B582B000AF03460A46FB7122
:101F54001346BB71FB79184600F0F4F80346002BD6
:101F640003D0BB791846FEF73BFF00BF0837BD46D8
:101F740080BD80B582B000AF03460A46FB711346AC
:101F8400BB71FB79184600F0DDF80346002B03D043
:101F9400BB791846FEF746FF00BF0837BD4680BD33
:101FA40080B582B000AF03460A46FB711346BB718D
:101FB400FB79184600F0C6F80346002B03D0BB7922
:101FC4001846FEF751FF00BF0837BD4680BD80B5F7
:101FD40082B000AF03460A46FB711346BB71FB791E
:101FE400184600F0AFF80346002B03D0BB7918461F
:101FF400FEF75CFF00BF0837BD4680BD80B582B0E8
:1020040000AF03460A46FB711346BB71FB791846C1
:1020140000F098F80346002B03D0BB791846FEF76E
:1020240067FF00BF0837BD4680BD80B582B000AFF2
:1020340003460A46FB711346BB71FB79184600F050
:1020440081F80346002B03D0BB791846FEF772FFD4
:1020540000BF0837BD4680BD80B582B000AF0346DF
:102064000A46FB711346BB71FB79184600F06AF807
:102074000346002B03D0BB791846FEF77DFF00BF53
:102084000837BD4680BD80B582B000AF03460A461E
:10209400FB711346BB71FB79184600F053F80346F5
:1020A400002B03D0BB791846FEF788FF00BF083722
:1020B400BD4680BD80B582B000AF03460A46FB71C1
:1020C4001346BB71FB79184600F03CF80346002B1D
:1020D40005D0BB791846FEF793FF034600E00023C2
:1020E40018460837BD4680BD80B582B000AF0346B0
:1020F400FB710B46BB7113467B71FB79184600F0EC
:1021040021F80346002B07D07A79BB79114618468B
:10211400FFF7F2F9034600E0FF2318460837BD46EF
:1021240080BD80B483B000AF0346FB71FB79002B04
:1021340001D1FB7900E0FF2318460C37BD465DF85A
:10214400047B704780B483B000AF0346FB71FB7916
:10215400002B21D1FA79144913465B0013449B00E8
:102164000B441B68114A1360FA790F4913465B004C
:1021740013449B000B4404331B680C4A5360FA79E4
:10218400094913465B0013449B000B4408331A8827
:10219400064B1A81012300E0002318460C37BD4684
:1021A4005DF8047B704700BF54030020BC0300208B
:1021B40080B500AF0020FFF7B4FF03461846FFF7D1
:1021C400C1FFFFF7B7FCFFF751FD0120FFF7A6FDA4
:1021D40000BF80BD80B400AF00BF00BF00BFBD46DC
:1021E4005DF8047B704780B400AF00BF00BF00BF40
:1021F400BD465DF8047B704780B500AF044B5B6857
:10220400034A11890022184600F018FFFEE700BFB8
:102214003003002080B584B000AF7860044BFB60CD
:102224007968F86800F0F0F800BF1037BD4680BD4B
:10223400D002002080B584B000AF7860044BFB600E
:102244007968F86800F0E0F800BF1037BD4680BD3B
:10225400E802002080B584B000AF7860044BFB60D6
:102264007968F86800F0D0F800BF1037BD4680BD2B
:102274000003002080B584B000AF7860044BFB609D
:102284007968F86800F0C0F800BF1037BD4680BD1B
:102294001803002080B584B000AF7860044BFB6065
:1022A4007968F868FFF7E2F900BF1037BD4680BDD2
:1022B400F000002080B584B000AF7860044BFB6070
:1022C4007968F868FFF7D2F900BF1037BD4680BDC2
:1022D4002C01002080B584B000AF7860044BFB6013
:1022E4007968F868FFF7C2F900BF1037BD4680BDB2
:1022F4006801002080B584B000AF7860044BFB60B7
:102304007968F868FFF7B2F900BF1037BD4680BDA1
:10231400A401002080B584B000AF7860044BFB605A
:102324007968F868FFF7A2F900BF1037BD4680BD91
:10233400E001002080B584B000AF7860044BFB60FE
:102344007968F868FFF792F900BF1037BD4680BD81
:102354001C02002080B584B000AF7860044BFB60A1
:102364007968F868FFF782F900BF1037BD4680BD71
:102374005802002080B584B000AF7860044BFB6045
:102384007968F868FFF772F900BF1037BD4680BD61
:102394009402002080B582B000AF0346FB71002098
:1023A400FFF7BFFE03461A46FB79934201D1124B55
:1023B4001EE00120FFF7B5FE03461A46FB7993425F
:1023C40001D10E4B14E00220FFF7ABFE03461A4680
:1023D400FB79934201D10A4B0AE00320FFF7A1FEE7
:1023E40003461A46FB79934201D1064B00E00023D1
:1023F40018460837BD4680BDD0020020E802002000
:10240400000300201803002080B582B000AF78607C
:1024140039607B685B697A681278104698477B68F4
:10242400DB685B68386898477B681B695B683A6857
:1024340058321046984700BF0837BD4680BD00009B
:1024440080B594B000AF234B1B6C224A43F08053F9
:102454001364204B1B6C03F08053BB60BB681E4BA2
:102464001B6823F440431C4A43F4004313601A4B93
:102474001B6803F440437B607B6802233B620123B7
:10248400FB6210233B630223BB630023FB63102323
:102494003B644FF4A8737B640423BB640723FB648D
:1024A40007F12003184600F00DFE0523FB6002230C
:1024B4003B6100237B614FF48053BB610023FB61CC
:1024C40007F10C030221184601F0F6F800BF50375B
:1024D400BD4680BD003802400070004080B500AFAA
:1024E40000210020FFF7CEFA0020FFF76BFA00BFAF
:1024F40080BD80B500AF00F003F800BF80BD0000D0
:1025040080B584B000AF324B324A1A60304B4FF47E
:1025140082725A602E4B00229A602D4B0022DA60A0
:102524002B4B02221A612A4B01225A61284B4FF489
:1025340000729A61264B00221A62254B00225A62CD
:10254400234B00229A6201F0F9FBB860BB68224A6F
:10255400A2FB03235B0DFB80FB88012B02D8002325
:10256400FB602AE0FB88032B02D80823FB6024E0ED
:10257400FB88072B02D81023FB601EE0FB880F2B7F
:1025840002D81823FB6018E0FB881F2B02D82023F5
:10259400FB6012E0FB883F2B02D82823FB600CE091
:1025A400FB887F2B02D83023FB6006E0FB88FF2BDF
:1025B40002D83823FB6000E0FEE7054AFB68D361DC
:1025C400034801F0DDFB00BF1037BD4680BD00BFEE
:1025D400C8030020003001406BCA5F6B80B500AFB8
:1025E4000E4B0F4A1A600D4B4FF4E1325A600B4BFD
:1025F40000229A60094B0022DA60084B00221A611B
:10260400064B0C225A61054B00229A61034B0022AF
:10261400DA61024801F0D2FF00BF80BD2804002027
:102624000044004080B500AF00F06EF8FFF708FFEB
:10263400FFF754FFFFF75DFFFFF7D0FF40F2EE21F5
:10264400032000F002F800BF80BD80B584B000AF65
:1026540003460A46FB711346BB80BB885B08BB81FB
:102664000023FB7310E00020FFF7E4F9BB89184650
:1026740000F0A2F80020FFF7F1F9BB89184600F03A
:102684009BF8FB7B0133FB73FA7BFB799A42EAD319
:1026940000BF00BF1037BD4680BD000080B400AF4E
:1026A400164BD3F88830154A43F47003C2F88830C7
:1026B400134B1B68124A43F001031360104B0022B2
:1026C4009A600F4B1B680E4A23F0847323F4803303
:1026D40013600B4B0B4A5A60094B1B68084A23F4DE
:1026E40080231360064B0022DA60044B4FF0006233
:1026F4009A6000BFBD465DF8047B704700ED00E0C2
:10270400003802401030002480B500AF0E4B1B6827
:102714000D4A43F4007313600B4B1B680A4A43F4DD
:1027240080631360084B1B68074A43F4807313608B
:10273400032000F03FF9002000F008F802F094FEB6
:102744000023184680BD00BF003C024080B582B023
:1027540000AF786001F0A8FA0346094AA2FB0323FC
:102764009B09184600F0A2F9002279684FF0FF3067
:1027740000F040F9002318460837BD4680BD00BF6D
:10278400D34D621080B400AF044B1B680133034A7D
:10279400136000BFBD465DF8047B70472004002031
:1027A40080B400AF034B1B681846BD465DF8047B3C
:1027B400704700BF2004002080B584B000AF78606B
:1027C4000023FB60FFF7ECFFF86000BFFFF7E8FFB2
:1027D4000246FB68D21A7B689A42F7D300BF00BF57
:1027E4001037BD4680BD000080B485B000AF78606E
:1027F4007B6803F00703FB600C4BDB68BB60BA68C3
:102804004FF6FF031340BB60FB681A02BB68134317
:1028140043F0BF6343F40033BB60044ABB68D36036
:1028240000BF1437BD465DF8047B704700ED00E03F
:1028340080B400AF044BDB681B0A03F0070318469F
:10284400BD465DF8047B704700ED00E080B483B0C2
:1028540000AF0346FB71FB7903F01F02074997F9A8
:1028640007305B09012000FA02F241F8232000BF7F
:102874000C37BD465DF8047B704700BF00E100E003
:1028840080B483B000AF0346FB71FB7903F01F02F1
:10289400074997F907305B09012000FA02F2203357
:1028A40041F8232000BF0C37BD465DF8047B704718
:1028B40000E100E080B483B000AF03463960FB71EF
:1028C40097F90730002B0BDA3B68DAB20C49FB7935
:1028D40003F00F03043B1201D2B20B441A7609E051
:1028E4003B68DAB2074997F907301201D2B20B44B8
:1028F40083F8002300BF0C37BD465DF8047B7047A6
:1029040000ED00E000E100E080B489B000AFF860C1
:10291400B9607A60FB6803F00703FB61FB69C3F1EC
:102924000703042B28BF0423BB61FB690433062B74
:1029340002D9FB69033B00E000237B614FF0FF32C7
:10294400BB6902FA03F3DA43BB681A407B699A4015
:102954004FF0FF317B6901FA03F3D9437B680B40E5
:10296400134318462437BD465DF8047B70470000C6
:1029740080B582B000AF78607B68013BB3F1807FA3
:1029840001D301230FE00A4A7B68013B53600F2106
:102994004FF0FF30FFF78EFF054B00229A60044B87
:1029A40007221A60002318460837BD4680BD00BFC1
:1029B40010E000E080B582B000AF78607B68072B40
:1029C4000FD07B68062B0CD07B68052B09D07B6865
:1029D400042B06D07B68032B03D0A421044802F007
:1029E4002EFD7868FFF700FF00BF0837BD4680BDA5
:1029F4002C57000880B586B000AF0346B9607A60F2
:102A0400FB7300237B617B680F2B03D9BC210E4829
:102A140002F015FDBB680F2B03D9BD210A4802F053
:102A24000EFDFFF705FF78617A68B9687869FFF7EA
:102A34006BFF024697F90F3011461846FFF73AFF2D
:102A440000BF1837BD4680BD2C57000880B582B042
:102A540000AF0346FB7197F90730002B03DAD0214E
:102A6400054802F0ECFC97F907301846FFF7EEFE34
:102A740000BF0837BD4680BD2C57000880B582B022
:102A840000AF0346FB7197F90730002B03DAE0210E
:102A9400054802F0D4FC97F907301846FFF7F0FE1A
:102AA40000BF0837BD4680BD2C57000880B582B0F2
:102AB40000AF78607868FFF75BFF03461846083775
:102AC400BD4680BD80B500AF00F002F800BF80BDF8
:102AD40080B400AF00BFBD465DF8047B70470000C2
:102AE40080B588B000AF7860396000237B61002333
:102AF4003B610023BB617B68384A934217D07B68F3
:102B0400374A934213D07B68364A93420FD07B688E
:102B1400354A93420BD07B68344A934207D07B6892
:102B2400334A934203D0C521324802F088FC3B6803
:102B34001B689BB2002B03D1C6212E4802F07FFCF8
:102B44003B685B68002B35D03B685B68012B31D058
:102B54003B685B68112B2DD03B685B68022B29D046
:102B64003B685B68122B25D03B685B68224A934222
:102B740020D03B685B68214A93421BD03B685B686A
:102B84001F4A934216D03B685B681E4A934211D099
:102B94003B685B681C4A93420CD03B685B681B4AE9
:102BA400934207D03B685B68032B03D0C7211148CD
:102BB40002F045FC3B689B68002B0BD03B689B688C
:102BC400012B07D03B689B68022B03D0C82109481E
:102BD40002F035FC0023FB6103E200BF0000024069
:102BE4000004024000080240000C024000100240B1
:102BF400001C02406457000800001110000021105E
:102C040000003110000012100000221000003210E9
:102C14000122FB6902FA03F37B613B681B687A6952
:102C240013403B613A697B699A4240F0D7813B6823
:102C34005B68022B04D03B685B68122B40F09080E9
:102C44003B681B69002B67D03B681B69092B63D069
:102C54003B681B69002B5FD03B681B69002B5BD072
:102C64003B681B69002B57D03B681B69002B53D072
:102C74003B681B69012B4FD03B681B69012B4BD070
:102C84003B681B69022B47D03B681B69022B43D06E
:102C94003B681B69022B3FD03B681B69042B3BD06C
:102CA4003B681B69042B37D03B681B69042B33D06A
:102CB4003B681B69052B2FD03B681B69052B2BD068
:102CC4003B681B69062B27D03B681B69052B23D067
:102CD4003B681B69072B1FD03B681B69072B1BD064
:102CE4003B681B69082B17D03B681B690A2B13D060
:102CF4003B681B69092B0FD03B681B69092B0BD060
:102D04003B681B690C2B07D03B681B690F2B03D056
:102D1400D921784802F093FBFB69DA087B68083212
:102D240053F82230BB61FB6903F007039B000F22B9
:102D340002FA03F3DB43BA691340BB613B681A69C7
:102D4400FB6903F007039B0002FA03F3BA69134318
:102D5400BB61FB69DA087B680832B96943F8221061
:102D64007B681B68BB61FB695B00032202FA03F307
:102D7400DB43BA691340BB613B685B6803F0030241
:102D8400FB695B0002FA03F3BA691343BB617B6816
:102D9400BA691A603B685B68012B0BD03B685B68BF
:102DA400022B07D03B685B68112B03D03B685B6840
:102DB400122B44D13B68DB68002B0FD03B68DB68E7
:102DC400012B0BD03B68DB68022B07D03B68DB6828
:102DD400032B03D0EC21474802F031FB7B689B684E
:102DE400BB61FB695B00032202FA03F3DB43BA69AC
:102DF4001340BB613B68DA68FB695B0002FA03F3CA
:102E0400BA691343BB617B68BA699A607B685B6883
:102E1400BB610122FB6902FA03F3DB43BA69134085
:102E2400BB613B685B681B0903F00102FB6902FAA2
:102E340003F3BA691343BB617B68BA695A607B6860
:102E4400DB68BB61FB695B00032202FA03F3DB432B
:102E5400BA691340BB613B689A68FB695B0002FA7C
:102E640003F3BA691343BB617B68BA69DA603B68F0
:102E74005B6803F08053002B00F0B0801E4B5B6C4A
:102E84001D4A43F4804353641B4B5B6C03F480433F
:102E9400FB60FB68194AFB699B08023352F8233034
:102EA400BB61FB6903F003039B000F2202FA03F3E7
:102EB400DB43BA691340BB617B68114A934229D052
:102EC4007B68104A934213D07B680F4A93420DD01B
:102ED4007B680E4A934207D07B680D4A934201D126
:102EE400042318E0052316E0032314E0022312E070
:102EF400012310E064570008003802400038014004
:102F0400000002400004024000080240000C02409D
:102F1400001002400023FA6902F003029200934079
:102F2400BA691343BB613349FB699B080233BA692D
:102F340041F82320304B1B68BB613B69DB43BA6912
:102F44001340BB613B685B6803F48033002B03D000
:102F5400BA693B691343BB61274ABB691360264BBB
:102F64005B68BB613B69DB43BA691340BB613B6887
:102F74005B6803F40033002B03D0BA693B69134345
:102F8400BB611D4ABB6953601B4B9B68BB613B69BA
:102F9400DB43BA691340BB613B685B6803F480138D
:102FA400002B03D0BA693B691343BB61124ABB6966
:102FB4009360114BDB68BB613B69DB43BA69134027
:102FC400BB613B685B6803F40013002B03D0BA6950
:102FD4003B691343BB61084ABB69D360FB69013396
:102FE400FB61FB690F2B7FF613AE00BF00BF2037D8
:102FF400BD4680BD00380140003C014080B584B02E
:1030040000AF78600B467B807B88002B04D14FF4A3
:10301400C871094802F013FA7B681A697B88134067
:10302400002B02D00123FB7301E00023FB73FB7B25
:1030340018461037BD4680BD6457000880B582B07D
:1030440000AF78600B467B8013467B707B88002B37
:1030540004D140F2B1110E4802F0F1F97B78002B53
:1030640007D07B78012B04D04FF4D971084802F0C3
:10307400E6F97B78002B03D07A887B689A6103E0B9
:103084007B881A047B689A6100BF0837BD4680BDFF
:103094006457000880B582B000AF0346FB80084B3C
:1030A4005A69FB881340002B06D0054AFB885361FC
:1030B400FB88184602F0E6F800BF0837BD4680BD1D
:1030C400003C014080B58EB000AF786000237B6384
:1030D4007B681B680F2B04D94FF480719C4802F065
:1030E400AEF97B681B6803F00103002B7DD07B687D
:1030F4005B68002B0CD07B685B68012B08D07B6875
:103104005B68052B04D040F20511914802F097F951
:10311400904B9B6803F00C03042B0CD08D4B9B68E5
:1031240003F00C03082B12D18A4B5B6803F4800371
:10313400B3F5800F0BD1874B1B6803F40033002BCE
:1031440052D07B685B68002B4ED10123ABE2824BEB
:1031540000221A70FFF724FB78630AE0FFF720FBD4
:1031640002467B6BD31A41F28832934201D903237E
:1031740099E2784B1B6803F40033002BEED17B6893
:103184005A68754BD2B21A707B685B68002B15D0F5
:10319400FFF706FB78630AE0FFF702FB02467B6B4E
:1031A400D31A41F28832934201D903237BE2694B5B
:1031B4001B6803F40033002BEED016E0FFF7F0FA9F
:1031C40078630AE0FFF7ECFA02467B6BD31A41F20C
:1031D4008832934201D9032365E25E4B1B6803F4F2
:1031E4000033002BEED100E000BF7B681B6803F0C6
:1031F4000203002B00F08E807B68DB68002B08D074
:103204007B68DB68012B04D04FF4A371504802F0B3
:1032140016F97B681B691F2B04D940F247114C48EF
:1032240002F00DF94B4B9B6803F00C03002B0BD001
:10323400484B9B6803F00C03082B26D1454B5B6875
:1032440003F48003002B20D1424B1B6803F00203DC
:10325400002B05D07B68DB68012B01D0012322E21F
:103264003C4B1B6823F0F8027B681969F8233B6325
:103274003B6B93FAA3F3FB62FB6AB3FA83F301FAA1
:1032840003F3344913430B6044E07B68DB68002B91
:103294002AD0324B01221A60FFF782FA786308E0E1
:1032A400FFF77EFA02467B6BD31A642B01D9032302
:1032B400F9E1284B1B6803F00203002BF0D0254BE7
:1032C4001B6823F0F8027B681969F823BB62BB6AA8
:1032D40093FAA3F37B627B6AB3FA83F301FA03F3F1
:1032E4001C4913430B6015E01C4B00221A60FFF7C6
:1032F40057FA786308E0FFF753FA02467B6BD31A58
:10330400642B01D90323CEE1124B1B6803F00203A3
:10331400002BF0D17B681B6803F00803002B47D017
:103324007B685B69002B08D07B685B69012B04D048
:1033340040F28711064802F082F87B685B69002B33
:1033440020D0074B01221A60FFF72AFA786312E0B3
:103354009C570008003802400238024000004742EF
:10336400800E4742FFF71CFA02467B6BD31A642B8C
:1033740001D9032397E18F4B5B6F03F00203002B0A
:10338400F0D015E08C4B00221A60FFF709FA78633D
:1033940008E0FFF705FA02467B6BD31A642B01D9C8
:1033A400032380E1834B5B6F03F00203002BF0D116
:1033B4007B681B6803F00403002B00F082807B68A9
:1033C4009B68002B0CD07B689B68012B08D07B6822
:1033D4009B68052B04D040F2B111784802F02FF815
:1033E400744B1B6C734A43F080531364714B1B6C16
:1033F40003F08053BB60BB68714B1B68704A43F495
:1034040080731360FFF7CCF9786308E0FFF7C8F91D
:1034140002467B6BD31A642B01D9032343E1684B27
:103424001B6803F48073002BF0D0664B00221A70E3
:10343400FFF7B6F978630AE0FFF7B2F902467B6B4F
:10344400D31A41F28832934201D903232BE1594B19
:103454001B6F03F00203002BEED17B689A68594B73
:10346400D2B21A707B689B68002B15D0FFF798F9CD
:1034740078630AE0FFF794F902467B6BD31A41F2B2
:103484008832934201D903230DE14A4B1B6F03F0A9
:103494000203002BEED014E0FFF782F978630AE010
:1034A400FFF77EF902467B6BD31A41F288329342CE
:1034B40001D90323F7E03F4B1B6F03F00203002BFA
:1034C400EED17B689B69002B0CD07B689B69012B38
:1034D40008D07B689B69022B04D040F2F511374871
:1034E40001F0ADFF7B689B69002B00F0DB80314B62
:1034F4009B6803F00C03082B00F0D2807B689B6967
:10350400022B40F0B6807B68DB69002B09D07B6816
:10351400DB69B3F5800F04D04FF4FF71274801F045
:103524008EFF7B681B6A3F2B04D940F2FF112348AE
:1035340001F085FF7B685B6ABF2B04D97B685B6AFB
:10354400B3F5D87F04D94FF400711C4801F077FF1C
:103554007B689B6A022B10D07B689B6A042B0CD07F
:103564007B689B6A062B08D07B689B6A082B04D077
:1035740040F20121114801F062FF7B68DB6A032BF2
:1035840003D97B68DB6A0F2B04D940F202210B4874
:1035940001F055FF0C4B00221A60FFF701F9786324
:1035A40014E0FFF7FDF802467B6BD31A642B0DD9A8
:1035B400032378E000380240800E47429C570008FD
:1035C400007000407038024060004742384B1B686E
:1035D40003F00073002BE4D17B68DA697B681B6A13
:1035E4001A437B68596A47F6C0733B613B6993FA97
:1035F400A3F3FB60FB68B3FA83F301FA03F31A4302
:103604007B689B6A5B08591E4FF44033BB61BB69FE
:1036140093FAA3F37B617B69B3FA83F301FA03F3AF
:103624001A437B68D96A4FF070633B623B6A93FA32
:10363400A3F3FB61FB69B3FA83F301FA03F31C49B7
:1036440013434B601B4B01221A60FFF7A9F8786300
:1036540008E0FFF7A5F802467B6BD31A642B01D967
:10366400032320E0124B1B6803F00073002BF0D0FF
:1036740018E0104B00221A60FFF792F8786308E014
:10368400FFF78EF802467B6BD31A642B01D9032310
:1036940009E0074B1B6803F00073002BF0D101E035
:1036A400012300E0002318463837BD4680BD00BF23
:1036B400003802406000474280B584B000AF7860B3
:1036C40039600023FB607B681B68002B03D07B6898
:1036D4001B680F2B04D94FF41871884801F0AFFE12
:1036E4003B68002B19D03B68012B16D03B68022B9A
:1036F40013D03B68032B10D03B68042B0DD03B68E0
:10370400052B0AD03B68062B07D03B68072B04D057
:1037140040F26121794801F092FE794B1B6803F075
:103724000F033A689A4240F2EF80754B3A68D2B27E
:103734001A70734B1B6803F00F033A689A4201D066
:10374400012325E27B681B6803F00203002B31D0C0
:103754007B689B68002B24D07B689B68802B20D0DF
:103764007B689B68902B1CD07B689B68A02B18D02F
:103774007B689B68B02B14D07B689B68C02B10D0EF
:103784007B689B68D02B0CD07B689B68E02B08D0AF
:103794007B689B68F02B04D040F27721574801F0F6
:1037A4004EFE584B9B6823F0F0027B689B6855499A
:1037B40013438B607B681B6803F00103002B00F04C
:1037C4008A817B685B68002B10D07B685B68012B67
:1037D4000CD07B685B68022B08D07B685B68032B8A
:1037E40004D040F27E21454801F029FE7B685B68E5
:1037F400012B07D1434B1B6803F40033002B19D171
:103804000123C5E17B685B68022B03D07B685B689E
:10381400032B07D13B4B1B6803F00073002B09D12A
:103824000123B5E1374B1B6803F00203002B01D1E0
:103834000123ADE1334B9B6823F003027B685B6893
:10384400304913438B60FEF7ABFFF8607B685B681D
:10385400012B12D10AE0FEF7A3FF0246FB68D31A3C
:1038640041F28832934201D9032391E1254B9B68AD
:1038740003F00C03042BEED12DE17B685B68022B73
:1038840012D10AE0FEF78CFF0246FB68D31A41F21C
:103894008832934201D903237AE11A4B9B6803F0DF
:1038A4000C03082BEED116E17B685B68032B1DD15A
:1038B4000AE0FEF775FF0246FB68D31A41F288322C
:1038C400934201D9032363E10E4B9B6803F00C037D
:1038D400032BEED1FFE0FEF763FF0246FB68D31A29
:1038E40041F28832934201D9032351E1054B9B688D
:1038F40003F00C03002BEED1EDE000BF9C57000851
:10390400003C0240003802407B681B6803F002035D
:10391400002B31D07B689B68002B24D07B689B688C
:10392400802B20D07B689B68902B1CD07B689B6885
:10393400A02B18D07B689B68B02B14D07B689B6845
:10394400C02B10D07B689B68D02B0CD07B689B6805
:10395400E02B08D07B689B68F02B04D040F2D12187
:103964008D4801F06CFD8D4B9B6823F0F0027B6861
:103974009B688A4913438B607B681B6803F00103CF
:10398400002B00F09B807B685B68002B10D07B6869
:103994005B68012B0CD07B685B68022B08D07B68CA
:1039A4005B68032B04D04FF436717B4801F047FD6C
:1039B4007B685B68012B07D1784B1B6803F40033E9
:1039C400002B19D10123E3E07B685B68022B03D051
:1039D4007B685B68032B07D1704B1B6803F0007393
:1039E400002B09D10123D3E06C4B1B6803F00203C5
:1039F400002B01D10123CBE0684B9B6823F0030229
:103A04007B685B68654913438B60FEF7C9FEF86009
:103A14007B685B68012B12D10AE0FEF7C1FE024607
:103A2400FB68D31A41F28832934201D90323AFE0F1
:103A34005A4B9B6803F00C03042BEED13EE07B68E9
:103A44005B68022B12D10AE0FEF7AAFE0246FB686D
:103A5400D31A41F28832934201D9032398E04F4BA1
:103A64009B6803F00C03082BEED127E07B685B68AE
:103A7400032B1DD10AE0FEF793FE0246FB68D31A1E
:103A840041F28832934201D9032381E0434B9B687E
:103A940003F00C03032BEED110E0FEF781FE024687
:103AA400FB68D31A41F28832934201D903236FE0B1
:103AB4003A4B9B6803F00C03002BEED1384B3A6869
:103AC400D2B21A70364B1B6803F00F033A689A425D
:103AD40001D001235CE07B681B6803F00403002B26
:103AE40025D07B68DB68002B18D07B68DB68B3F5D6
:103AF400805F13D07B68DB68B3F5A05F0ED07B6872
:103B0400DB68B3F5C05F09D07B68DB68B3F5E05FC1
:103B140004D040F23231204801F091FC1F4B9B68E5
:103B240023F4E0527B68DB681C4913438B607B6899
:103B34001B6803F00803002B26D07B681B69002B4D
:103B440018D07B681B69B3F5805F13D07B681B6951
:103B5400B3F5A05F0ED07B681B69B3F5C05F09D0D5
:103B64007B681B69B3F5E05F04D040F239310A4841
:103B740001F065FC094B9B6823F460427B681B6978
:103B8400DB00064913438B600020FEF7DFFD0023B2
:103B940018461037BD4680BD9C57000800380240C7
:103BA400003C024080B48BB000AF0023FB610023D3
:103BB4007B620023BB6100233B62384B9B6803F0AC
:103BC4000C03082B0CD0082B5DD8002B02D0042B3F
:103BD40003D058E0324B3B6258E0324B3B6255E035
:103BE4002E4B5B6803F03F03FB612C4B5B6803F4D3
:103BF4008003002B17D02B4AFB69B2FBF3F2274B4F
:103C0400596847F6C0730B4047F6C071796179690A
:103C140091FAA1F139613969B1FA81F1CB4002FB22
:103C240003F37B6216E01E4AFB69B2FBF3F21B4B03
:103C3400596847F6C0730B4047F6C071F960F968DC
:103C440091FAA1F1B960B968B1FA81F1CB4002FBF4
:103C540003F37B62114B5B6803F440324FF440334F
:103C64007B607B6893FAA3F33B603B68B3FA83F30E
:103C740022FA03F301335B00BB617A6ABB69B2FBCE
:103C8400F3F33B6202E0064B3B6200BF3B6A18461B
:103C94002C37BD465DF8047B704700BF00380240F6
:103CA4000024F40000127A0080B582B000AFFFF760
:103CB40079FF01460D4B9B6803F0F002F0237B6013
:103CC4007B6893FAA3F33B603B68B3FA83F322FA6D
:103CD40003F3074AD35C21FA03F3064A1360054B46
:103CE4001B6818460837BD4680BD00BF0038024037
:103CF4003C5F00086003002080B582B000AFFFF78E
:103D0400D3FF01460B4B9B6803F4E0524FF4E0539E
:103D14007B607B6893FAA3F33B603B68B3FA83F35D
:103D240022FA03F3044AD35C21FA03F31846083752
:103D3400BD4680BD003802403C5F000880B582B0BB
:103D440000AFFFF7B1FF01460B4B9B6803F46042E1
:103D54004FF460437B607B6893FAA3F33B603B685A
:103D6400B3FA83F322FA03F3044AD35C21FA03F38C
:103D740018460837BD4680BD003802403C5F000845
:103D840080B582B000AF78607B68002B01D101233D
:103D940004E17B685B68002B08D07B685B68B3F543
:103DA400827F03D0B8217F4801F049FB7B689B6880
:103DB400002B0DD07B689B68B3F5806F08D07B68BF
:103DC4009B68B3F5004F03D0B921764801F037FB67
:103DD4007B68DB68B3F5006F07D07B68DB68002B7A
:103DE40003D0BA216F4801F02AFB7B681B69002BC2
:103DF40007D07B681B69022B03D0BB21694801F003
:103E04001EFB7B685B69002B07D07B685B69012B19
:103E140003D0BC21634801F012FB7B689B69B3F5B6
:103E2400007F0CD07B689B69002B08D07B689B6962
:103E3400B3F5802F03D0BD215A4801F000FB7B6805
:103E4400DB69002B1FD07B68DB69082B1BD07B68E8
:103E5400DB69102B17D07B68DB69182B13D07B68C8
:103E6400DB69202B0FD07B68DB69282B0BD07B68A8
:103E7400DB69302B07D07B68DB69382B03D0BE218C
:103E8400484801F0DCFA7B681B6A002B07D07B688A
:103E94001B6A802B03D0BF21424801F0D0FA7B6813
:103EA4005B6A002B07D07B685B6A102B03D0C021B0
:103EB4003C4801F0C4FA7B689B6A002B08D07B68FD
:103EC4009B6AB3F5005F03D0C121364801F0B7FA0D
:103ED4007B68DB6A002B04D07B68DB6AB3F5803F28
:103EE40003D3C2212F4801F0AAFA7B6893F851301A
:103EF400DBB2002B06D17B68002283F8502078685F
:103F040001F0C0FA7B68022283F851207B681B68A9
:103F14001A687B681B6822F040021A607B685A6842
:103F24007B689B681A437B68DB681A437B681B6960
:103F34001A437B685B691A437B689B6903F40073CB
:103F44001A437B68DB691A437B681B6A42EA0301F4
:103F54007B689A6A7B681B680A431A607B689B6962
:103F64001B0C03F004017B685A6A7B681B680A43D4
:103F74005A607B681B687A68D26A1A617B681B681E
:103F8400DA697B681B6822F40062DA617B680022CC
:103F94005A657B68012283F85120002318460837AC
:103FA400BD4680BDD457000880B588B000AFF86026
:103FB400B9607A607B800023FB610023BB61FB68EE
:103FC40093F85130DBB2FB61FB69012B03D0FB6931
:103FD400222B40F04982BB68002B05D07B68002B64
:103FE40002D07B88002B01D101233EE2FB689B6851
:103FF400002B04D04FF426718D4801F020FAFB68A1
:1040040093F85030012B01D102232EE2FB680122E8
:1040140083F85020FB6893F85130DBB2012B03D1B5
:10402400FB68322283F85120FB6800225A65FB6842
:104034007A689A63FB687A889A87FB687A88DA8751
:10404400FB68BA681A63FB687A889A86FB687A8880
:10405400DA86FB6800229A64FB680022DA64FB6853
:104064009B6AB3F5005F0FD1FB681B681A68FB6895
:104074001B6822F400521A60FB681B681A68FB680C
:104084001B6842F400521A60FB681B681B6803F04B
:104094004003402B07D0FB681B681A68FB681B6849
:1040A40042F040021A60FB68DB68B3F5006F40F031
:1040B400C180FB685B68002B08D0FB685B68B3F5C4
:1040C400827F14D1FB68DB8E012B10D1FB681B6B44
:1040D4001A88FB681B68DA60FB681B6B9A1CFB6818
:1040E4001A63FB68DB8E013B9AB2FB68DA86FB68D5
:1040F400DB8E002B74D1FB689B6AB3F5005F07D19C
:10410400FB681B681A68FB681B6842F480521A60DB
:10411400BB6A00220121F86800F0ACF90346002BC9
:1041240001D00323A1E1FB681B68DA68FB689B6B81
:1041340092B21A80FB689B6B9A1CFB689A63FB68BB
:10414400DB8F013B9AB2FB68DA8722E1BB6A00226B
:104154000221F86800F08EF90346002B01D00323F6
:1041640083E1FB681B6B1A88FB681B68DA60FB68D9
:104174001B6B9A1CFB681A63FB68DB8E013B9AB2CB
:10418400FB68DA86FB68DB8E002B0CD1FB689B6A2C
:10419400B3F5005F07D1FB681B681A68FB681B68EE
:1041A40042F480521A60BB6A00220121F86800F0D0
:1041B40061F90346002B01D0032356E1FB681B6819
:1041C400DA68FB689B6B92B21A80FB689B6B9A1C43
:1041D400FB689A63FB68DB8F013B9AB2FB68DA8762
:1041E400FB68DB8E002BB1D1FB685B68002B40F0D1
:1041F400D080BB6A00220121F86800F03BF9034635
:10420400002B01D0032330E1FB681B68DA68FB68EC
:104214009B6B92B21A80FB689B6B9A1CFB689A6337
:10422400FB68DB8F013B9AB2FB68DA87B1E000BF21
:10423400D4570008FB685B68002B08D0FB685B68F8
:10424400B3F5827F12D1FB68DB8E012B0ED1FB68A4
:104254001B6B591CFA6811631A78FB681B68DA60D7
:10426400FB68DB8E013B9AB2FB68DA86FB68DB8E67
:10427400002B6BD1FB689B6AB3F5005F07D1FB6829
:104284001B681A68FB681B6842F480521A60BB6A98
:1042940000220121F86800F0EDF80346002B01D05C
:1042A4000323E2E0FB681B68DA68FB689B6BD2B20D
:1042B4001A70FB68DB8F013B9AB2FB68DA8768E00F
:1042C400BB6A00220221F86800F0D4F80346002BF0
:1042D40001D00323C9E0FB681B6B591CFA68116306
:1042E4001A78FB681B68DA60FB68DB8E013B9AB2C4
:1042F400FB68DA86FB68DB8E002B0CD1FB689B6ABB
:10430400B3F5005F07D1FB681B681A68FB681B687C
:1043140042F480521A60BB6A00220121F86800F05E
:10432400A9F80346002B01D003239EE0FB681B6819
:10433400D868FB689B6B591CFA689163C2B21A7007
:10434400FB68DB8F013B9AB2FB68DA87FB68DB8E84
:10435400002BB5D1FB685B68002B1AD1BB6A002225
:104364000121F86800F086F80346002B01D00323EE
:104374007BE0FB681B68D868FB689B6B591CFA6878
:104384009163C2B21A70FB68DB8F013B9AB2FB687F
:10439400DA87FB689B6AB3F5005F16D1BB6A00221B
:1043A4000121F86800F066F80346002B07D0FB688B
:1043B4005B6D43F00202FB685A65032355E0FB681A
:1043C4001B68DB689BB2FB82FB8ABB6A01228021EB
:1043D400F86800F04FF80346002B07D0FB685B6DCC
:1043E40043F02002FB685A6503233EE0FB68012288
:1043F40083F85120FB681B689B6803F01003102BA3
:104404000CBF01230023DBB2BB61FB689B6AB3F5DD
:10441400005F23D1BB69002B20D0FB685B6D43F0A8
:104424000202FB685A65FB689B6AB3F5005F0FD113
:10443400FB681B681A68FB681B6822F400521A6048
:10444400FB681B681A68FB681B6842F400521A6018
:10445400FB68002283F85020012306E0FB68002259
:1044640083F85020002300E0022318462037BD467D
:1044740080BD00BF80B586B000AFF860B9603B6016
:104484001346FB7100237B61FEF78AF97861FB799F
:10449400002B40F086803DE03B68B3F1FF3F39D00C
:1044A4003B68002B07D0FEF77BF902467B69D31AE1
:1044B4003A689A422ED2FB681B685A68FB681B68EC
:1044C40022F0E0025A60FB681B681A68FB681B68EC
:1044D40022F040021A60FB689B6AB3F5005F0FD1BB
:1044E400FB681B681A68FB681B6822F400521A6098
:1044F400FB681B681A68FB681B6842F400521A6068
:10450400FB68012283F85120FB68002283F85020C5
:1045140003234FE0FB681B689A68BB681340BA68C2
:104524009A42B9D145E03B68B3F1FF3F39D03B68CB
:10453400002B07D0FEF734F902467B69D31A3A6898
:104544009A422ED2FB681B685A68FB681B6822F0EB
:10455400E0025A60FB681B681A68FB681B6822F05B
:1045640040021A60FB689B6AB3F5005F0FD1FB68D9
:104574001B681A68FB681B6822F400521A60FB6807
:104584001B681A68FB681B6842F400521A60FB68D7
:10459400012283F85120FB68002283F85020032372
:1045A40008E0FB681B689A68BB681340BA689A42C3
:1045B400B9D0002318461837BD4680BD80B582B0F7
:1045C40000AF78607B68002B01D101239AE07B68FF
:1045D4009B69002B2AD07B681B684C4A93420DD000
:1045E4007B681B684A4A934208D07B681B68494A27
:1045F400934203D0FC21484800F021FF7B689B696B
:10460400002B27D07B689B69B3F5807F22D07B6821
:104614009B69B3F5007F1DD07B689B69B3F5407F30
:1046240018D0FD213C4800F00AFF13E07B681B68AA
:10463400364A93420ED07B681B68354A934209D0B0
:104644007B681B68334A934204D040F2011132481C
:1046540000F0F5FE7B689B68002B09D07B689B68A3
:10466400B3F5805F04D040F203112B4800F0E7FE5D
:104674007B68DB69002B09D07B68DB69B3F5004FED
:1046840004D04FF48271244800F0D9FE7B6893F87B
:104694003930DBB2002B06D17B68002283F8382046
:1046A400786800F079FF7B68022283F839207B6800
:1046B4001B68DA687B681B6822F40052DA60786849
:1046C40000F0ACFB7B681B681A697B681B6822F4EA
:1046D40090421A617B681B685A697B681B6822F0E8
:1046E4002A025A617B681B68DA687B681B6842F49B
:1046F4000052DA607B680022DA637B68012283F867
:104704003920002318460837BD4680BD00100140FB
:1047140000440040001401400C58000880B586B0E5
:1047240000AFF860B9603B601346FB8000237B61F7
:10473400FB6893F83930DBB27B617B69012B03D0D2
:104744007B69222B40F08E80BB68002B02D0FB8853
:10475400002B01D1012386E0FB6893F83830012B4C
:1047640001D102237FE0FB68012283F83820FB6833
:104774000022DA63FB6893F83930DBB2222B04D1D0
:10478400FB68322283F8392003E0FB68122283F8A5
:104794003920FB68FA889A84FB68FA88DA843DE059
:1047A400FB68DB8C013B9AB2FB68DA84FB689B688C
:1047B400B3F5805F20D13B6800228021F86800F0C7
:1047C40071F90346002B01D003234CE0BB683B6125
:1047D4003B691B881A46FB681B68C2F308025A60CF
:1047E400FB681B69002B03D1BB680233BB6015E077
:1047F400BB680133BB6011E03B6800228021F8688C
:1048040000F050F90346002B01D003232BE0BB68D2
:104814005A1CBA601A78FB681B685A60FB68DB8C08
:10482400002BBDD13B6800224021F86800F03AF922
:104834000346002B01D0032315E0FB6893F83930BD
:10484400DBB2322B04D1FB68222283F8392003E047
:10485400FB68012283F83920FB68002283F83820A2
:10486400002300E0022318461837BD4680BD80B5FA
:1048740088B000AF78600023FB610023BB617B68D4
:104884001B681B6803F00103012B0CBF01230023E9
:10489400DBB2FB617B681B68DB6803F48073BB617C
:1048A400FB69002B11D0BB69002B0ED07B681B6801
:1048B4001B687B617B681B685B687B617B697B68C9
:1048C400DB6B43F001027B68DA637B681B681B685F
:1048D40003F00203022B0CBF01230023DBB2FB61B4
:1048E4007B681B685B6903F00103BB61FB69002BF8
:1048F40011D0BB69002B0ED07B681B681B683B6121
:104904007B681B685B683B613B697B68DB6B43F0DE
:1049140004027B68DA637B681B681B6803F004038A
:10492400042B0CBF01230023DBB2FB617B681B68F3
:104934005B6903F00103BB61FB69002B11D0BB6908
:10494400002B0ED07B681B681B68FB607B681B68B0
:104954005B68FB60FB687B68DB6B43F002027B688F
:10496400DA637B681B681B6803F00803082B0CBF21
:1049740001230023DBB2FB617B681B685B6903F0E6
:104984000103BB61FB69002B11D0BB69002B0ED066
:104994007B681B681B68BB607B681B685B68BB60CB
:1049A400BB687B68DB6B43F008027B68DA637B6877
:1049B4001B681B6803F02003202B0CBF012300237A
:1049C400DBB2FB617B681B68DB6803F02003BB611F
:1049D400FB69002B05D0BB69002B02D0786800F07E
:1049E4008AF97B681B681B6803F08003802B0CBF6B
:1049F40001230023DBB2FB617B681B68DB6803F0E7
:104A04008003BB61FB69002B05D0BB69002B02D07E
:104A1400786800F0E0F87B681B681B6803F04003CB
:104A2400402B0CBF01230023DBB2FB617B681B68B6
:104A3400DB6803F04003BB61FB69002B05D0BB6955
:104A4400002B02D0786800F023F97B68DB6B002B25
:104A540006D07B68012283F83920786800F018F8C2
:104A640000BF2037BD4680BD80B483B000AF7860FE
:104A740000BF0C37BD465DF8047B704780B483B03B
:104A840000AF786000BF0C37BD465DF8047B70470B
:104A940080B483B000AF786000BF0C37BD465DF8CA
:104AA400047B704780B586B000AFF860B9603B60A6
:104AB4001346FB7100237B61FDF772FE7861FB797D
:104AC400002B7BD138E03B68B3F1FF3F34D03B6827
:104AD400002B07D0FDF764FE02467B69D31A3A68BF
:104AE4009A4229D2FB681B68DA68FB681B6822F0CB
:104AF4008002DA60FB681B68DA68FB681B6822F0D6
:104B04002002DA60FB681B68DA68FB681B6822F421
:104B14008072DA60FB681B685A69FB681B6822F0C4
:104B240001025A61FB68012283F83920FB680022E4
:104B340083F8382003234AE0FB681B681A68BB68C3
:104B44001340BA689A42BED140E03B68B3F1FF3FDC
:104B540034D03B68002B07D0FDF722FE02467B6968
:104B6400D31A3A689A4229D2FB681B68DA68FB6850
:104B74001B6822F08002DA60FB681B68DA68FB6855
:104B84001B6822F02002DA60FB681B68DA68FB68A5
:104B94001B6822F48072DA60FB681B685A69FB6840
:104BA4001B6822F001025A61FB68012283F8392054
:104BB400FB68002283F83820032308E0FB681B68A5
:104BC4001A68BB681340BA689A42BED000231846DC
:104BD4001837BD4680BD80B485B000AF786000232F
:104BE400FB607B6893F83930DBB2FB60FB68122B07
:104BF40002D0FB68322B44D17B689B68B3F5805F9D
:104C04001AD17B681B6ABB60BB681B881A467B6829
:104C14001B68C2F308025A607B681B69002B05D12C
:104C24007B681B6A9A1C7B681A620EE07B681B6AAD
:104C34005A1C7B681A6208E07B681B6A591C7A68F4
:104C440011621A787B681B685A607B68DB8C013BB5
:104C54009AB27B68DA847B68DB8C002B0FD17B688B
:104C64001B68DA687B681B6822F08002DA607B6864
:104C74001B68DA687B681B6842F04002DA60002334
:104C840000E0022318461437BD465DF8047B7047E4
:104C940080B582B000AF78607B681B68DA687B6897
:104CA4001B6822F04002DA607B6893F83930DBB28B
:104CB400322B04D17B68222283F8392013E07B68ED
:104CC4001B68DA687B681B6822F48072DA607B6890
:104CD4001B685A697B681B6822F001025A617B6871
:104CE400012283F839207868FFF7BEFE00231846B6
:104CF4000837BD4680BD80B584B000AF786000231E
:104D0400FB607B6893F83930DBB2FB60FB68222BD5
:104D140002D0FB68322B7CD17B689B68B3F5805F43
:104D240023D17B689B6ABB607B681B69002B0ED117
:104D34007B681B685B689BB2C3F308039AB2BB68C9
:104D44001A807B689B6A9A1C7B689A6229E07B685C
:104D54001B685B689BB2DBB29AB2BB681A807B6843
:104D64009B6A5A1C7B689A621BE07B681B69002B58
:104D74000AD17B681B6858687B689B6A591C7A68EF
:104D84009162C2B21A700CE07B681B685B68DAB28D
:104D94007B689B6A581C7968886202F07F02D2B2F1
:104DA4001A707B68DB8D013B9AB27B68DA857B687D
:104DB400DB8D002B2BD17B681B68DA687B681B6852
:104DC40022F02002DA607B6893F83930DBB2322BB0
:104DD40004D17B68122283F8392013E07B681B68B6
:104DE400DA687B681B6822F48072DA607B681B686F
:104DF4005A697B681B6822F001025A617B680122B0
:104E040083F839207868FFF739FE002302E0002395
:104E140000E0022318461037BD4680BDB0B584B00B
:104E240000AF78600023FB607B685B68A94A93420B
:104E340004D940F23671A84800F001FB7B68DB68B6
:104E4400002B09D07B68DB68B3F5005F04D040F227
:104E54003771A14800F0F3FA7B681B69002B0ED070
:104E64007B681B69B3F5806F09D07B681B69B3F558
:104E7400C06F04D04FF4E761974800F0E0FA7B6814
:104E84005A694FF6F3731340002B03D17B685B69B7
:104E9400002B04D140F239718F4800F0D0FA7B68BE
:104EA4001B681B69FB60FB6823F44053FB607B6851
:104EB400DB68FA681343FB607B681B68FA681A6155
:104EC4007B681B68DB68FB60FB6823F4164323F0F4
:104ED4000C03FB607B689A687B681B691A437B68D8
:104EE4005B691A437B68DB691343FA681343FB600D
:104EF4007B681B68FA68DA607B681B685B69FB6027
:104F0400FB6823F44073FB607B689B69FA68134376
:104F1400FB607B681B68FA685A617B68DB69B3F5E0
:104F2400004F40F08C807B681B686C4A934204D02D
:104F34007B681B686A4A934240D1FEF7FFFE024633
:104F440013469B0013449A001A447B685B685B0019
:104F5400B2FBF3F3634AA2FB03235B091C01FEF7D4
:104F6400EDFE024613469B0013449A001A447B68E4
:104F74005B685B00B2FBF3F5FEF7E0FE0246134606
:104F84009B0013449A001A447B685B685B00B2FB85
:104F9400F3F3544AA2FB03235B09642202FB03F3E9
:104FA400EB1A1B0132334F4AA2FB03235B0903F0C4
:104FB4000F027B681B6822439A60D6E0FEF79CFED2
:104FC400024613469B0013449A001A447B685B68AC
:104FD4005B00B2FBF3F3434AA2FB03235B091C010E
:104FE400FEF78AFE024613469B0013449A001A44B5
:104FF4007B685B685B00B2FBF3F5FEF77DFE02465F
:1050040013469B0013449A001A447B685B685B0058
:10501400B2FBF3F3334AA2FB03235B09642202FBD2
:1050240003F3EB1A1B0132332E4AA2FB03235B0961
:1050340003F00F027B681B6822439A6095E07B684B
:105044001B68264A934204D07B681B68244A934217
:105054004AD1FEF773FE024613469B0013449A009E
:105064001A447B685B689B00B2FBF3F31D4AA2FB06
:1050740003235B091C01FEF761FE024613469B00F5
:1050840013449A001A447B685B689B00B2FBF3F5F7
:10509400FEF754FE024613469B0013449A001A443A
:1050A4007B685B689B00B2FBF3F30E4AA2FB03230D
:1050B4005B09642202FB03F3EB1A1B013233094A36
:1050C400A2FB03235B0903F00F027B681B682243E6
:1050D4009A604AE0A037A0000C5800080010014074
:1050E400001401401F85EB51FEF706FE02461346ED
:1050F4009B0013449A001A447B685B689B00B2FBD4
:10510400F3F31C4AA2FB03235B091C01FEF7F4FD25
:10511400024613469B0013449A001A447B685B685A
:105124009B00B2FBF3F5FEF7E7FD024613469B0036
:1051340013449A001A447B685B689B00B2FBF3F348
:105144000C4AA2FB03235B09642202FB03F3EB1A60
:105154001B013233074AA2FB03235B0903F00F024E
:105164007B681B6822439A60FFE700BF1037BD4687
:10517400B0BD00BF1F85EB5190B587B000AF00F004
:1051840069F978610020FCF7CCFF03461846FDF767
:1051940001F938617B69FB603B695B68F868984793
:1051A4000423FB724FF400512348FDF727FF034605
:1051B400BB72BB7A012B37D1204B1B78002B33D128
:1051C400FB68D3ED017AFCEEE77A17EE904AFB68B0
:1051D40093F854301946022000F034F8034604FBD7
:1051E40003F37B603B699B681C69154B1A787B68E9
:1051F40001210020A04700BF3B699B689B6C0122F2
:105204000021002098470346002BF5D04FF47A7014
:10521400FDF7D2FA0A4B1B78012B14BF012300239C
:10522400DBB21A46064B1A70044ABB7A13700A2082
:10523400FDF7C2FAB6E700BF0008024024040020CC
:105244006403002080B485B000AF03460A46FB71B6
:105254001346BB710123BB600023FB7307E0FA799B
:10526400BB6802FB03F3BB60FB7B0133FB73FA7B7C
:10527400BB799A42F3D3BB6818461437BD465DF830
:10528400047B704780B582B000AF0346FB80FB8887
:10529400B3F5005F07D0B3F5005F0DDC012B05D03B
:1052A400022B06D008E0FCF7A7FF05E0FCF792FF0D
:1052B40002E0FCF798FF00BF00BF0837BD4680BD81
:1052C40080B500AF1249134800F036F8124911486E
:1052D40000F032F811490F4800F02EF810490D483B
:1052E40000F02AF80F490B4800F026F80E49094847
:1052F40000F022F80D49074800F01EF80C49054853
:1053040000F01AF80B49034800F016F800BF80BDFE
:10531400CC5A0008280400200C5B0008205B00081D
:10532400505B0008805B0008905B0008A05B0008ED
:10533400A45B0008BC5B000880B584B000AF786053
:1053440039600023FB7300BFFB7B5A1CFA731A46B7
:105354003B6813441B78002BF6D1FB7B013BFB73AA
:10536400FB7B9AB20A2339687868FFF7D7F900BF44
:105374001037BD4680BD000080B584B000AF7860B2
:105384007B681B685B68FB737B68DB8D012B02D039
:10539400FB7B0D2B41D17B68DB8D01339AB27B689B
:1053A400DA857B689B6A5A1E7B689A627B689B6A73
:1053B40000221A701B497868FFF7BEFF00BF7B68A4
:1053C4001B681B6803F02003002BF8D17B681B6863
:1053D400DA687B681B6822F02002DA607B6893F845
:1053E4003930DBB2322B04D17B68122283F83920A6
:1053F40013E07B681B68DA687B681B6822F48072A0
:10540400DA607B681B685A697B681B6822F00102BA
:105414005A617B68012283F8392000BF1037BD46EA
:1054240080BD00BFCC5A000880B500AFFDF7FAF884
:10543400FCF7BEFEFFF744FFFFF79EFEFEE780B4D5
:1054440083B000AF7860396000BF0C37BD465DF8AB
:10545400047B704780B400AF024B1846BD465DF82C
:10546400047B70474C5F000880B500AF0720FDF750
:10547400A1FA002200214FF0FF30FDF7BBFA00BF74
:1054840080BD000080B58CB000AF78607B681B687D
:105494003C4A934244D13C4B1B6B3B4A43F00103CF
:1054A4001363394B1B6B03F00103BB61BB69364BC0
:1054B4001B6B354A43F002031363334B1B6B03F03E
:1054C40002037B617B69304B5B6C2F4A43F480534E
:1054D40053642D4B5B6C03F480533B613B69C023E5
:1054E400FB6102233B6200237B620323BB6205232F
:1054F400FB6207F11C0319462448FDF7F1FA08235F
:10550400FB6102233B6200237B620323BB6205230E
:10551400FB6207F11C0319461D48FDF7E1FA2DE073
:105524007B681B681B4A934228D1174B1B6B164A96
:1055340043F002031363144B1B6B03F00203FB6081
:10554400FB68114B1B6C104A43F4804313640E4BED
:105554001B6C03F48043BB60BB684FF46043FB6186
:1055640002233B6200237B620323BB620523FB62AD
:1055740007F11C0319460648FDF7B2FA00BF30379D
:10558400BD4680BD003001400038024000000240AA
:10559400000402400038004080B58AB000AF786053
:1055A4007B681B681B4A93422FD11B4B1B6B1A4A07
:1055B40043F001031363184B1B6B03F001033B61BE
:1055C4003B69154B1B6C144A43F400331364124BB0
:1055D4001B6C03F40033FB60FB680C237B61022328
:1055E400BB610023FB6103233B6207237B6207F15A
:1055F400140319460948FDF773FA002200212620F6
:10560400FDF7F8F92620FDF721FA00BF2837BD463B
:1056140080BD00BF0044004000380240000002404A
:1056240080B500AFFDF7AEF8FDF74CFA00BF80BDC2
:1056340080B500AF0220FDF72DFD00BF80BD80B511
:1056440000AF0120FDF726FD00BF80BD80B500AF8F
:105654000348FFF70CF90248FFF78EFE00BF80BD38
:105664002804002080B500AF4FF40050FDF712FD70
:1056740000BF80BDDFF834D0002103E00C4B5B5841
:10568400435004310B480C4B42189A42F6D30B4A50
:1056940002E0002342F8043B094B9A42F9D3FCF799
:1056A400FDFF00F011F8FFF7BFFE704700800120F6
:1056B4001462000800000020680300206803002032
:1056C40068040020FEE7000070B50D4D0D4C641B0E
:1056D400A4100026A64209D10B4D0C4C00F018F87A
:1056E400641BA4100026A64205D170BD55F8043BE6
:1056F40098470136EEE755F8043B98470136F2E740
:105704000C6200080C6200080C62000810620008B9
:10571400F8B500BFF8BC08BC9E467047F8B500BF9A
:08572400F8BC08BC9E4670476A
:10572C00447269766572732F53544D333246347814
:10573C00785F48414C5F4472697665722F5372638F
:10574C002F73746D3332663478785F68616C5F6385
:10575C006F727465782E6300447269766572732F6C
:10576C0053544D3332463478785F48414C5F447221
:10577C00697665722F5372632F73746D333266348E
:10578C0078785F68616C5F6770696F2E63000000EA
:10579C00447269766572732F53544D3332463478A4
:1057AC00785F48414C5F4472697665722F5372631F
:1057BC002F73746D3332663478785F68616C5F7206
:1057CC0063632E6300000000447269766572732F68
:1057DC0053544D3332463478785F48414C5F4472B1
:1057EC00697665722F5372632F73746D333266341E
:1057FC0078785F68616C5F7370692E6300000000DD
:10580C00447269766572732F53544D333246347833
:10581C00785F48414C5F4472697665722F537263AE
:10582C002F73746D3332663478785F68616C5F7592
:10583C006172742E63000000546F6F206D75636885
:10584C0020656E746572656420706172616D65743B
:10585C006572732E0D0A0D0A00000000546F6F2044
:10586C006D75636820616464726573736564204C44
:10587C00363437302E0D0A0D0A000000546F6F209D
:10588C006D75636820656E7465726564206368610C
:10589C007261637465722E0D0A0D0A0049742069D9
:1058AC0073206E6F7420706F737369626C652074F3
:1058BC006F206964656E7469667920746865204C24
:1058CC00363437302E0D0A0D0A0000004974206959
:1058DC0073206E6F7420706F737369626C652074C3
:1058EC006F207265636F676E697A6520616E7920CF
:1058FC004C36343730206170706C69636174696F39
:10590C006E20636F6D6D616E642E0D0A0D0A0000C2
:10591C00546865206E756D626572206F66207061CB
:10592C0072616D65746572732072656C6174656407
:10593C0020746F20746865206170706C6963617489
:10594C00696F6E20636F6D6D616E64206973206E7C
:10595C006F742072696768742E0D0A0D0A000000BE
:10596C004974206973206E6F7420706F7373696251
:10597C006C6520746F207265636F676E697A652041
:10598C00616E79204C3634373020726567697374D8
:10599C006572206E616D652E0D0A0D0A0000000007
:1059AC004974206973206E6F7420706F7373696211
:1059BC006C6520746F207265636F676E697A652001
:1059CC00616E79206E756D657269632076616C7598
:1059DC00652E0D0A0D0A00004974206973206E6F44
:1059EC007420706F737369626C6520746F207265BC
:1059FC00636F676E697A6520616E79206469726580
:105A0C006374696F6E2E0D0A0D0A000049742069CB
:105A1C0073206E6F7420706F737369626C65207481
:105A2C006F207265636F676E697A6520616E79208D
:105A3C00616374696F6E2E0D0A0D0A00426F7468F3
:105A4C0020656E746572656420636F6D6D616E6444
:105A5C0073206172652061646472657373696E672B
:105A6C00207468652073616D65204C363437302E98
:105A7C000D0A0D0A00000000506572666F726D20F1
:105A8C0074686520656E7465726564204C363437B5
:105A9C0030204170706C69636174696F6E20436F64
:105AAC006D6D616E642E2E2E0D0A0000200000001C
:105ABC002076616C756520697320307800000000D9
:105ACC000D0A0000205354415455532076616C75D7
