:020000040800F2
:1000000000800120455E0008955E0008955E0008AE
:10001000955E0008955E0008955E000800000000EF
:10002000000000000000000000000000955E0008D5
:10003000955E000800000000955E0008F15D000874
:10004000955E0008955E0008955E0008955E0008C4
:10005000955E0008955E00080F5E0008015E0008CE
:10006000955E0008955E0008955E0008955E0008A4
:10007000955E0008955E0008955E0008955E000894
:10008000955E0008955E0008955E0008000000007F
:10009000000000000000000000000000955E000865
:1000A000955E0008955E0008955E0008955E000864
:1000B000955E0008955E0008955E0008955E000854
:1000C000955E0008955E0008955E0008955E000844
:1000D000955E0008955E00081D5E000800000000A7
:1000E000355E0008955E0008955E0008000000007F
:1000F000000000000000000000000000955E000805
:1001000000000000955E0008955E0008955E0008FE
:1001100000000000000000000000000000000000DF
:10012000955E0008955E0008955E0008955E0008E3
:10013000955E0008000000000000000000000000C4
:10014000000000000000000000000000955E0008B4
:10015000955E0008955E0008955E0008955E0008B3
:10016000955E0008955E0008000000000000000099
:10017000000000000000000000000000000000007F
:1001800000000000955E0008000000000000000074
:04019000955E000870
:1001940010B5054C237833B9044B13B10448AFF3BD
:1001A40000800123237010BD4000002000000000E7
:1001B400E05E000808B5034B1BB103490348AFF3E5
:1001C400008008BD0000000044000020E05E00083C
:1001D40080B485B000AF78600023FB731AE0FB7B2A
:1001E4001B017A68134400221A70FB7B1B017A6896
:1001F400134400225A60FB7B1B017A6813440022DB
:100204009A60FB7B1B017A6813440022DA60FB7B53
:100214000133FB73FB7B012BE1D900BF00BF143713
:10022400BD465DF8047B704780B485B000AFB9600B
:100234007B600346FB731346BB73FB7B1B01BA68ED
:100244001344BA7B1A70FB7B1B01BA6813447A68A7
:100254005A60FB7B1B01BA681344BA699A60FB7B42
:100264001B01BA681344FA69DA6000BF1437BD464B
:100274005DF8047B7047000080B586B002AFB960BA
:100284007B600346FB731346BB730C4B1B78002B3C
:1002940005D10A4B01221A70B868FFF799FFBA7B9F
:1002A400F87BFB690193BB6900937B68B968FFF72E
:1002B400BBFF00BF1037BD4680BD00BF8C000020CF
:1002C40080B485B000AF7860396000237B7300236D
:1002D400BB7313E00023FB730AE07B7B5A1C7A7325
:1002E4001A463B68134400221A70FB7B0133FB73EC
:1002F400FB7B012BF1D9BB7B0133BB73BB7B032B92
:10030400E8D90023FB73F6E1FB7B1B017A681344F5
:100314001B781846FB7B3A681A44A5490346DB0060
:100324001B1A5B000B440C331B781370FB7B1B0103
:100334007A6813441B78122B00F2DA8101A252F876
:1003440023F000BFF5060008950300081B0400080D
:1003540049040008B1040008DF0400084705000848
:1003640083050008F705000893060008F506000851
:10037400F5060008F5060008F5060008F50600086D
:10038400F5060008F5060008F5060008F50600085D
:10039400FB7B3A6813441978FB7B1B017A6813448E
:1003A4005A68844813469B0013449B0003441A78FC
:1003B400FB7B386803440A43D2B21A70FB7B1B01EF
:1003C4007A6813445A687B4913469B0013449B0084
:1003D4000B440E331B783B730123BB7316E0FB7B8A
:1003E4001B017A6813449A68397BBB7BCB1ADB0008
:1003F40022FA03F1BB7B5A00FB7B13441A463B6889
:100404001344CAB21A70BB7B0133BB733A7BBB7B08
:100414009A42E4D26CE1FB7B3A6813441978FB7B83
:100424001B017A6813445A68624813469B001344BC
:100434009B0003441A78FB7B386803440A43D2B216
:100444001A7055E1FB7B3A6813441978FB7B1B0156
:100454007A6813445A6858481346DB00134403442B
:1004640008331A78FB7B386803440A43D2B21A7003
:100474000123BB7316E0FB7B1B017A6813449A6863
:10048400BB7BC3F10303DB0022FA03F1BB7B5A00FD
:10049400FB7B13441A463B681344CAB21A70BB7BF5
:1004A4000133BB73BB7B032BE5D921E1FB7B3A68AA
:1004B40013441978FB7B1B017A6813445A683E483D
:1004C4001346DB001344034408331A78FB7B386873
:1004D40003440A43D2B21A700AE1FB7B3A6813441C
:1004E4001978FB7B1B017A6813445A683248134617
:1004F400DB001344034408331A78FB7B3868034455
:100504000A43D2B21A700123BB7316E0FB7B1B01B2
:100514007A6813449A68BB7BC3F10303DB0022FAB5
:1005240003F1BB7B5A00FB7B13441A463B6813441C
:10053400CAB21A70BB7B0133BB73BB7B032BE5D9F7
:10054400D6E00123BB7316E0FB7B1B017A681344DE
:100554005A68BB7BC3F10303DB0022FA03F1BB7BC4
:100564005A00FB7B13441A463B681344CAB21A7000
:10057400BB7B0133BB73BB7B032BE5D9B8E0FB7BAF
:100584003A6813441978FB7B1B017A6813445A6850
:1005940009481346DB001344034408331A78FB7BF1
:1005A400386803440A43D2B21A700123BB731CE0B7
:1005B400B4690008C0670008CC6A0008FB7B1B0113
:1005C4007A6813449A68BB7BC3F10303DB0022FA05
:1005D40003F1BB7B5A00FB7B13441A463B6813446C
:1005E400CAB21A70BB7B0133BB73BB7B032BE5D947
:1005F4007EE0FB7B3A6813441B7859B2FB7B1B01FA
:100604007A6813445A68414813469B0013440344D0
:1006140004331B78DB005BB20B4359B2FB7B3A68B3
:100624001344CAB21A70FB7B3A6813441978FB7BF3
:100634001B017A6813449A6835481346DB00134457
:10064400034408331A78FB7B386803440A43D2B264
:100654001A700123BB7316E0FB7B1B017A681344F9
:10066400DA68BB7BC3F10303DB0022FA03F1BB7B33
:100674005A00FB7B13441A463B681344CAB21A70EF
:10068400BB7B0133BB73BB7B032BE5D930E0FB7B26
:100694003A6813441B7859B2FB7B1B017A681344F4
:1006A4005A681A4813469B001344034404331B78C6
:1006B400DB005BB20B4359B2FB7B3A681344CAB20A
:1006C4001A70FB7B3A6813441978FB7B1B017A6828
:1006D40013449A680E481346DB001344034408335A
:1006E4001A78FB7B386803440A43D2B21A7000BFFD
:1006F400FB7B0133FB73FB7B012B7FF605AE00BF55
:1007040000BF1437BD465DF8047B7047E06A0008FB
:10071400CC6A000880B586B002AF03460A46FB7176
:100724001346BB71BB79F879002201920022009232
:1007340002221049FFF7A0FD0F490E48FFF7C0FD44
:100744000E490D4800F0CAF8BA790D4913469B00CA
:1007540013449B000B440E331B78FB73FA7BFB7929
:100764000649184600F008F9B860BB681846103707
:10077400BD4680BD5C0000207C0000208400002079
:10078400C067000880B584B002AF03463960FB71CE
:100794003B68B3F5800F11D2F8790023019300234D
:1007A40000933B6806220749FFF766FD06490548A2
:1007B400FFF786FD0549044800F090F800BF0837AC
:1007C400BD4680BD5C0000207C0000208400002029
:1007D40080B584B002AF0346FB71F879002301931E
:1007E4000023009300230A220749FFF745FD074928
:1007F4000548FFF765FD0649044800F06FF800BF9F
:100804000837BD4680BD00BF5C0000207C0000208E
:100814008400002080B584B002AF0346FB71F879F0
:10082400002301930023009300230D220749FFF7BF
:1008340023FD07490548FFF743FD0649044800F036
:100844004DF800BF0837BD4680BD00BF5C000020E6
:100854007C0000208400002080B586B002AF0346EF
:10086400FB71F879002301930023009300231222E3
:100874000B49FFF701FD0B490948FFF721FD0A4920
:10088400084800F02BF8FB7902220749184600F0CB
:1008940073F80346FB81FB8918461037BD4680BDBB
:1008A4005C0000207C0000208400002080B483B021
:1008B40000AF0346FB71FB79002B05D0FB79002BBD
:1008C40004D0FB79012B01D8FB7900E0FF23184603
:1008D4000C37BD465DF8047B7047000080B586B0D8
:1008E40002AF78603960204B00221A700023FB733A
:1008F40032E01E4B5B681D4A11890022184601F044
:100904008DFCFB7B5B001A467B689918FB7B5B00C4
:100914001A463B681A440A2300930223144802F03F
:1009240033FC124B5B68114A11890122184601F00D
:1009340075FC104B00221A7007E000BF00BF0D4B7E
:100944001B780133DAB20B4B1A700A4B1B78132B4A
:10095400F3D9FB7B0133FB73FB7B032BC9D900BFAA
:1009640000BF1037BD4680BD8C00002090000020E1
:100974009C0000208D00002080B485B000AF0346A9
:100984003960FB711346BB710023FB600123FB72CA
:1009940015E0FB7A5B001A46FB7913443A6813446A
:1009A4001B781946BA79FB7AD31ADB0001FA03F3F0
:1009B4001A46FB681343FB60FB7A0133FB72FB7A34
:1009C400032BE6D9FB6818461437BD465DF8047B53
:1009D4007047000080B588B000AF0346FB71FB7917
:1009E400002B0BD1154B1B6B144A43F0010313630B
:1009F400124B1B6B03F00103BB60BB682023FB603D
:100A040001233B6101237B610223BB61FB790C4A17
:100A140052F8233007F10C021146184601F050F940
:100A2400FB79074A52F8233020210022184601F0AE
:100A3400F5FB00BF2037BD4680BD00BF0038024033
:100A44000000002080B582B000AF0346FB71FB7943
:100A5400054A52F8233020210122184601F0DEFB1A
:100A640000BF0837BD4680BD0000002080B582B0BD
:100A740000AF0346FB71FB79054A52F8233020216D
:100A84000022184601F0CAFB00BF0837BD4680BDEE
:100A94000000002080B588B000AF03460A46FB7111
:100AA4001346BB71FB79002B0BD1234B1B6B224AE2
:100AB40043F004031363204B1B6B03F00403BB607C
:100AC400BB68BB79002B12D14FF40053FB600023A9
:100AD4003B6102237B610223BB61FB79174A52F815
:100AE400233007F10C021146184601F0E9F8BB79EE
:100AF400012B1CD14FF40053FB6000237B61104B8E
:100B04003B61FB790D4A52F8233007F10C02114680
:100B1400184601F0D5F828235BB200220F211846AD
:100B240000F0BCFC28235BB2184600F0E3FC00BFD5
:100B34002037BD4680BD00BF0038024004000020BD
:100B44000000211080B586B000AF464B1A6B464BAF
:100B54001B68444913430B63434B1B893B601123BC
:100B64007B600023BB600323FB603F4B5B683A461A
:100B74001146184601F0A4F83A4B1A6B3B4B1B681C
:100B8400384913430B63394B1B893B60384B7B60FB
:100B94000023BB60354B5B683A461146184601F0AA
:100BA4008FF800220021062000F078FC2D4B1A6BF0
:100BB400304B1B682B4913430B632E4B1B893B6043
:100BC4002B4B7B600023BB602A4B5B683A46114683
:100BD400184601F075F800220021072000F05EFCA1
:100BE400002000F008F90346FB752DE01D4B196B3E
:100BF400FA7D214813465B0013449B0003441B68A1
:100C0400184A0B431363FA7D1B4913465B001344D4
:100C14009B000B4408331B883B6001237B6000234B
:100C2400BB600323FB60FA7D134913465B00134446
:100C34009B000B4404331B683A461146184601F0E6
:100C44003FF8FB7D0133FB75002000F0D4F8034628
:100C54001A46FB7D9342C9D900BF00BF1837BD4671
:100C640080BD00BF003802400800002014000020AE
:100C740000002110200000202C00002080B582B04C
:100C840000AF284B5B68274A11890022184601F0FF
:100C9400C5FA244B5B68234A11890122184601F0E6
:100CA400BDFA002000F0A7F80346FB7127E0FB79AA
:100CB400184600F0B1F81C4B5B681B4A11890122ED
:100CC400184601F0ABFA0020FFF7F0FD0346BB71B4
:100CD4000AE0BB791846FFF79DFDBB791846FFF77C
:100CE400BBFDBB790133BB710120FFF7DFFD034678
:100CF4001A46BB799342ECD9FB790133FB7100208E
:100D040000F079F803461A46FB799342CFD90020C4
:100D140000F071F80346184600F07EF800BF08376B
:100D2400BD4680BD080000209000002080B582B040
:100D340000AF0346FB71FB79012B06D1062000F0BE
:100D4400D9FB072000F0D6FB05E0062000F0EAFB03
:100D5400072000F0E7FB00BF0837BD4680BD80B523
:100D640082B000AF0346FB710B46BB7113467B7127
:100D7400FB79184600F050F80346002B07D07A7927
:100D8400BB7911461846FFF7C5FC034600E0FF2374
:100D940018460837BD4680BD80B582B000AF034613
:100DA4003A60FB710B46BB71FB79184600F034F8CE
:100DB4000346002B04D0BB7939681846FFF7E2FCE0
:100DC40000BF0837BD4680BD80B582B000AF034682
:100DD4000A46FB711346BB71FB79184600F01CF8F8
:100DE4000346002B03D0BB791846FFF7F1FC00BF84
:100DF4000837BD4680BD80B483B000AF0346FB71A5
:100E0400FB79002B01D1FB7900E0FF2318460C3756
:100E1400BD465DF8047B704780B483B000AF0346E1
:100E2400FB71FB79002B21D1FA79144913465B003D
:100E340013449B000B441B68114A1360FA790F4951
:100E440013465B0013449B000B4404331B680C4A99
:100E54005360FA79094913465B0013449B000B4421
:100E640008331A88064B1A81012300E00023184630
:100E74000C37BD465DF8047B704700BF2C00002092
:100E84009000002080B500AF0020FFF7B4FF0346B8
:100E94001846FFF7C1FFFFF755FEFFF7EFFE0120ED
:100EA400FFF744FF00BF80BD80B400AF00BF00BFA8
:100EB40000BFBD465DF8047B704780B400AF00BF3F
:100EC40000BF00BFBD465DF8047B704780B500AF2E
:100ED400044B5B68034A11890022184601F09EF90D
:100EE400FEE700BF0800002080B594B000AF234B9C
:100EF4001B6C224A43F080531364204B1B6C03F099
:100F04008053BB60BB681E4B1B6823F440431C4AE0
:100F140043F4004313601A4B1B6803F440437B60A3
:100F24007B6802233B620123FB6210233B630223A1
:100F3400BB630023FB6310233B644FF4A8737B64FF
:100F44000423BB640723FB6407F12003184601F064
:100F5400A9F90523FB6002233B6100237B614FF465
:100F64008053BB610023FB6107F10C030221184687
:100F740001F092FC00BF5037BD4680BD00380240EE
:100F84000070004080B500AF00210020FFF782FD13
:100F94000020FFF71FFD00BF80BD80B500AF00F04B
:100FA40003F800BF80BD000080B584B000AF324BB1
:100FB400324A1A60304B4FF482725A602E4B002230
:100FC4009A602D4B0022DA602B4B02221A612A4BC5
:100FD40001225A61284B4FF400729A61264B002279
:100FE4001A62254B00225A62234B00229A6201F0B6
:100FF40095FFB860BB68224AA2FB03235B0DFB800C
:10100400FB88012B02D80023FB602AE0FB88032B1A
:1010140002D80823FB6024E0FB88072B02D81023A6
:10102400FB601EE0FB880F2B02D81823FB6018E03E
:10103400FB881F2B02D82023FB6012E0FB883F2B88
:1010440002D82823FB600CE0FB887F2B02D83023D6
:10105400FB6006E0FB88FF2B02D83823FB6000E02E
:10106400FEE7054AFB68D361034801F079FF00BF3E
:101074001037BD4680BD00BF9C00002000300140F9
:101084006BCA5F6B80B500AF0E4B0F4A1A600D4BF5
:101094004FF4E1325A600B4B00229A60094B002254
:1010A400DA60084B00221A61064B0C225A61054B88
:1010B40000229A61034B0022DA61024802F06EFBBF
:1010C40000BF80BD180100200044004080B500AF7F
:1010D40000F06EF8FFF708FFFFF754FFFFF75DFF1E
:1010E400FFF7D0FF40F2EE21032000F002F800BF2A
:1010F40080BD80B584B000AF03460A46FB71134639
:10110400BB80BB885B08BB810023FB7310E000201D
:10111400FFF798FCBB89184600F0A2F80020FFF7FF
:10112400A5FCBB89184600F09BF8FB7B0133FB73DD
:10113400FA7BFB799A42EAD300BF00BF1037BD4661
:1011440080BD000080B400AF164BD3F88830154A38
:1011540043F47003C2F88830134B1B68124A43F0FF
:1011640001031360104B00229A600F4B1B680E4A58
:1011740023F0847323F4803313600B4B0B4A5A60BF
:10118400094B1B68084A23F480231360064B002292
:10119400DA60044B4FF000629A6000BFBD465DF810
:1011A400047B704700ED00E000380240103000245A
:1011B40080B500AF0E4B1B680D4A43F400731360F7
:1011C4000B4B1B680A4A43F480631360084B1B688B
:1011D400074A43F480731360032000F03FF90020B2
:1011E40000F008F804F027FD0023184680BD00BF76
:1011F400003C024080B582B000AF786001F044FE4C
:101204000346094AA2FB03239B09184600F0A2F9EE
:10121400002279684FF0FF3000F040F900231846AF
:101224000837BD4680BD00BFD34D621080B400AF07
:10123400044B1B680133034A136000BFBD465DF8CD
:10124400047B7047F400002080B400AF034B1B689C
:101254001846BD465DF8047B704700BFF4000020CB
:1012640080B584B000AF78600023FB60FFF7ECFF2B
:10127400F86000BFFFF7E8FF0246FB68D21A7B68FC
:101284009A42F7D300BF00BF1037BD4680BD0000AF
:1012940080B485B000AF78607B6803F00703FB601F
:1012A4000C4BDB68BB60BA684FF6FF031340BB60AE
:1012B400FB681A02BB68134343F0BF6343F4003373
:1012C400BB60044ABB68D36000BF1437BD465DF8F9
:1012D400047B704700ED00E080B400AF044BDB6892
:1012E4001B0A03F007031846BD465DF8047B7047EC
:1012F40000ED00E080B483B000AF0346FB71FB79DE
:1013040003F01F02074997F907305B09012000FA2F
:1013140002F241F8232000BF0C37BD465DF8047B80
:10132400704700BF00E100E080B483B000AF034623
:10133400FB71FB7903F01F02074997F907305B093A
:10134400012000FA02F2203341F8232000BF0C37B9
:10135400BD465DF8047B704700E100E080B483B0D3
:1013640000AF03463960FB7197F90730002B0BDAA5
:101374003B68DAB20C49FB7903F00F03043B12011A
:10138400D2B20B441A7609E03B68DAB2074997F9FE
:1013940007301201D2B20B4483F8002300BF0C378C
:1013A400BD465DF8047B704700ED00E000E100E01D
:1013B40080B489B000AFF860B9607A60FB6803F06C
:1013C4000703FB61FB69C3F10703042B28BF042354
:1013D400BB61FB690433062B02D9FB69033B00E0C4
:1013E40000237B614FF0FF32BB6902FA03F3DA4357
:1013F400BB681A407B699A404FF0FF317B6901FA60
:1014040003F3D9437B680B40134318462437BD4686
:101414005DF8047B7047000080B582B000AF78604F
:101424007B68013BB3F1807F01D301230FE00A4ABB
:101434007B68013B53600F214FF0FF30FFF78EFFB5
:10144400054B00229A60044B07221A6000231846B9
:101454000837BD4680BD00BF10E000E080B582B013
:1014640000AF78607B68072B0FD07B68062B0CD00D
:101474007B68052B09D07B68042B06D07B68032B83
:1014840003D0A421044804F0CBFB7868FFF700FFE5
:1014940000BF0837BD4680BDF85E000880B586B041
:1014A40000AF0346B9607A60FB7300237B617B68FD
:1014B4000F2B03D9BC210E4804F0B2FBBB680F2BE1
:1014C40003D9BD210A4804F0ABFBFFF705FF78619F
:1014D4007A68B9687869FFF76BFF024697F90F30AD
:1014E40011461846FFF73AFF00BF1837BD4680BDC6
:1014F400F85E000880B582B000AF0346FB7197F92F
:101504000730002B03DAD021054804F089FB97F952
:1015140007301846FFF7EEFE00BF0837BD4680BD12
:10152400F85E000880B582B000AF0346FB7197F9FE
:101534000730002B03DAE021054804F071FB97F92A
:1015440007301846FFF7F0FE00BF0837BD4680BDE0
:10155400F85E000880B582B000AF78607868FFF765
:101564005BFF034618460837BD4680BD80B500AF13
:1015740000F002F800BF80BD80B400AF00BFBD46DC
:101584005DF8047B7047000080B586B000AFF8605A
:10159400B960C7E900230123FB752D4B1B7E012B8A
:1015A40001D1022350E02A4B01221A76FB68002B5A
:1015B4000CD0FB68012B09D0FB68022B06D0FB681A
:1015C400032B03D0B721234804F02AFB4CF25030FC
:1015D40000F070F80346FB75FB7D002B01D01E4B19
:1015E400BB75FB7D002B2BD1FB68002B05D13B7811
:1015F4001946B86800F036F916E0FB68012B05D1EE
:101604003B881946B86800F0FBF80DE0FB68022B34
:1016140005D13B681946B86800F0C0F804E0D7E982
:101624000023B86800F086F84CF2503000F042F81D
:101634000346FB75094B1B69084A23F00103136138
:10164400034B00221A76FB7D18461837BD4680BD31
:10165400F8000020305F0008685F0008003C02408A
:1016640080B400AF084B1B69002B07DA064B074A0E
:101674005A60054B064A5A60002300E001231846CD
:10168400BD465DF8047B7047003C0240230167457A
:10169400AB89EFCD80B400AF054B1B69044A43F01E
:1016A4000043136100231846BD465DF8047B704770
:1016B400003C024080B584B000AF78600023FB603A
:1016C4001A4B0022DA61FFF7BFFDF86010E07B6877
:1016D400B3F1FF3F0CD07B68002B07D0FFF7B4FDBC
:1016E4000246FB68D31A7A689A4201D2032319E0AE
:1016F4000F4BDB6803F48033002BE8D10C4BDB6821
:1017040003F00103002B02D0094B0122DA60084BDD
:10171400DB6803F4F973002B03D000F0D3F8012342
:1017240000E0002318461037BD4680BDF8000020B5
:10173400003C024080B584B000AFF860C7E90023E4
:10174400FB68B3F1006F03D3FB68114A934204D9D9
:1017540040F26D210F4804F063FA0F4B1B690E4AE7
:1017640023F4407313610C4B1B690B4A43F440731D
:101774001361094B1B69084A43F001031361F968BB
:10178400D7E90023C1E9002300BF1037BD4680BD5F
:10179400FFFF0708305F0008003C024080B582B0BC
:1017A40000AF786039607B68B3F1006F03D37B6866
:1017B400104A934204D940F287210F4804F030FACA
:1017C4000E4B1B690D4A23F4407313610B4B1B69C9
:1017D4000A4A43F400731361084B1B69074A43F038
:1017E400010313617B683A681A6000BF0837BD467D
:1017F40080BD00BFFFFF0708305F0008003C0240C7
:1018040080B582B000AF78600B467B807B68B3F113
:10181400006F03D37B68104A934204D94FF42871B4
:101824000E4804F0FDF90E4B1B690D4A23F4407376
:1018340013610B4B1B690A4A43F480731361084B11
:101844001B69074A43F0010313617B687A881A8095
:1018540000BF0837BD4680BDFFFF0708305F0008A2
:10186400003C024080B582B000AF78600B46FB704C
:101874007B68B3F1006F03D37B680F4A934204D9AA
:1018840040F2B9210D4804F0CBF90D4B1B690C4A09
:1018940023F4407313610A4B094A1B691361084B13
:1018A4001B69074A43F0010313617B68FA781A70D5
:1018B40000BF0837BD4680BDFFFF0708305F000842
:1018C400003C024080B400AF2F4BDB6803F01003F0
:1018D400002B08D02D4BDB6943F010032B4AD36156
:1018E400294B1022DA60284BDB6803F02003002B1D
:1018F40008D0264BDB6943F00803244AD361224B0A
:101904002022DA60204BDB6803F04003002B08D070
:101914001E4BDB6943F004031C4AD3611A4B40227B
:10192400DA60194BDB6803F08003002B08D0174BF7
:10193400DB6943F00203154AD361134B8022DA605A
:10194400114BDB6803F48073002B09D00F4BDB6968
:1019540043F001030D4AD3610B4B4FF48072DA60FC
:10196400094BDB6803F00203002B08D0074BDB694B
:1019740043F02003054AD361034B0222DA6000BF1F
:10198400BD465DF8047B7047003C0240F80000202F
:1019940080B584B000AF786039600123FB73002305
:1019A400BB60404B1B7E012B01D1022376E03D4BF3
:1019B40001221A767B681B68002B07D07B681B68A2
:1019C400012B03D0BC21384804F02AF94CF25030E2
:1019D400FFF770FE0346FB73FB7B002B5AD13B6879
:1019E4004FF0FF321A607B681B68012B15D17B68AE
:1019F4001B69DAB27B685B681946104600F09EF8F2
:101A04004CF25030FFF756FE0346FB73274B1B691D
:101A1400264A23F0040313613AE07B68DA687B68A2
:101A24009B681344002B06D07B68DA687B689B684C
:101A34001344082B03D9D4211B4804F0F1F87B6824
:101A44009B68BB601CE07B681B69DBB21946B86805
:101A540000F0B6F84CF25030FFF72CFE0346FB734F
:101A6400124B1B69114A23F0FA031361FB7B002B11
:101A740003D03B68BA681A600AE0BB680133BB60F4
:101A84007B68DA687B689B681344BA689A42DAD345
:101A940000F00EF8034B00221A76FB7B1846103731
:101AA400BD4680BDF8000020705F0008003C024085
:101AB40080B400AF204B1B6803F40073002B17D0D5
:101AC4001D4B1B681C4A23F4007313601A4B1B68DC
:101AD400194A43F400631360174B1B68164A23F436
:101AE40000631360144B1B68134A43F400731360C0
:101AF400114B1B6803F48063002B17D00E4B1B683B
:101B04000D4A23F4806313600B4B1B680A4A43F4A9
:101B140080531360084B1B68074A23F480531360F7
:101B2400054B1B68044A43F48063136000BFBD4641
:101B34005DF8047B704700BF003C024080B584B070
:101B440000AF03463960FB710023FB60FB79002B77
:101B54000DD0FB79012B0AD0FB79022B07D0FB793E
:101B6400032B04D04FF47971134804F059F83B68FF
:101B7400012B04D040F2E5310F4804F051F80F4B2B
:101B84001B690E4A23F4407313610C4B1A690B4909
:101B9400FB6813430B61094B1B69084A43F00403B8
:101BA4001361064B1B69054A43F48033136100BF7C
:101BB4001037BD4680BD00BF705F0008003C024086
:101BC40080B586B000AF78600B46FB7000237B6164
:101BD4007B68002B19D07B68012B16D07B68022B05
:101BE40013D07B68032B10D07B68042B0DD07B684B
:101BF400052B0AD07B68062B07D07B68072B04D003
:101C040040F204412C4804F00BF8FB78002B0DD073
:101C1400FB78012B0AD0FB78022B07D0FB78032B2F
:101C240004D040F20541244803F0FAFFFB78002B6E
:101C340002D100237B6110E0FB78012B03D14FF428
:101C440080737B6109E0FB78022B03D14FF40073AE
:101C54007B6102E04FF440737B61184B1B69174AA8
:101C640023F440731361154B1A6914497B691343B8
:101C74000B61124B1B69114A23F0F8031361F8231B
:101C84003B613B6993FAA3F3FB60FB68B3FA83F30C
:101C94007A6802FA03F343F00202084B1B6907490E
:101CA40013430B61054B1B69044A43F480331361EE
:101CB40000BF1837BD4680BD705F0008003C02407D
:101CC40080B588B000AF7860396000237B61002361
:101CD4003B610023BB617B68384A934217D07B6821
:101CE400374A934213D07B68364A93420FD07B68BD
:101CF400354A93420BD07B68344A934207D07B68C1
:101D0400334A934203D0C521324803F089FF3B682C
:101D14001B689BB2002B03D1C6212E4803F080FF21
:101D24003B685B68002B35D03B685B68012B31D086
:101D34003B685B68112B2DD03B685B68022B29D074
:101D44003B685B68122B25D03B685B68224A934250
:101D540020D03B685B68214A93421BD03B685B6898
:101D64001F4A934216D03B685B681E4A934211D0C7
:101D74003B685B681C4A93420CD03B685B681B4A17
:101D8400934207D03B685B68032B03D0C7211148FB
:101D940003F046FF3B689B68002B0BD03B689B68B5
:101DA400012B07D03B689B68022B03D0C82109484C
:101DB40003F036FF0023FB6103E200BF0000024092
:101DC4000004024000080240000C024000100240DF
:101DD400001C0240AC5F000800001110000021103C
:101DE4000000311000001210000022100000321018
:101DF4000122FB6902FA03F37B613B681B687A6981
:101E040013403B613A697B699A4240F0D7813B6851
:101E14005B68022B04D03B685B68122B40F0908017
:101E24003B681B69002B67D03B681B69092B63D097
:101E34003B681B69002B5FD03B681B69002B5BD0A0
:101E44003B681B69002B57D03B681B69002B53D0A0
:101E54003B681B69012B4FD03B681B69012B4BD09E
:101E64003B681B69022B47D03B681B69022B43D09C
:101E74003B681B69022B3FD03B681B69042B3BD09A
:101E84003B681B69042B37D03B681B69042B33D098
:101E94003B681B69052B2FD03B681B69052B2BD096
:101EA4003B681B69062B27D03B681B69052B23D095
:101EB4003B681B69072B1FD03B681B69072B1BD092
:101EC4003B681B69082B17D03B681B690A2B13D08E
:101ED4003B681B69092B0FD03B681B69092B0BD08E
:101EE4003B681B690C2B07D03B681B690F2B03D085
:101EF400D921784803F094FEFB69DA087B6808323C
:101F040053F82230BB61FB6903F007039B000F22E7
:101F140002FA03F3DB43BA691340BB613B681A69F5
:101F2400FB6903F007039B0002FA03F3BA69134346
:101F3400BB61FB69DA087B680832B96943F822108F
:101F44007B681B68BB61FB695B00032202FA03F335
:101F5400DB43BA691340BB613B685B6803F003026F
:101F6400FB695B0002FA03F3BA691343BB617B6844
:101F7400BA691A603B685B68012B0BD03B685B68ED
:101F8400022B07D03B685B68112B03D03B685B686E
:101F9400122B44D13B68DB68002B0FD03B68DB6815
:101FA400012B0BD03B68DB68022B07D03B68DB6856
:101FB400032B03D0EC21474803F032FE7B689B6877
:101FC400BB61FB695B00032202FA03F3DB43BA69DA
:101FD4001340BB613B68DA68FB695B0002FA03F3F8
:101FE400BA691343BB617B68BA699A607B685B68B2
:101FF400BB610122FB6902FA03F3DB43BA691340B4
:10200400BB613B685B681B0903F00102FB6902FAD0
:1020140003F3BA691343BB617B68BA695A607B688E
:10202400DB68BB61FB695B00032202FA03F3DB4359
:10203400BA691340BB613B689A68FB695B0002FAAA
:1020440003F3BA691343BB617B68BA69DA603B681E
:102054005B6803F08053002B00F0B0801E4B5B6C78
:102064001D4A43F4804353641B4B5B6C03F480436D
:10207400FB60FB68194AFB699B08023352F8233062
:10208400BB61FB6903F003039B000F2202FA03F315
:10209400DB43BA691340BB617B68114A934229D080
:1020A4007B68104A934213D07B680F4A93420DD049
:1020B4007B680E4A934207D07B680D4A934201D154
:1020C400042318E0052316E0032314E0022312E09E
:1020D400012310E0AC5F00080038024000380140E2
:1020E400000002400004024000080240000C0240CC
:1020F400001002400023FA6902F0030292009340A8
:10210400BA691343BB613349FB699B080233BA695B
:1021140041F82320304B1B68BB613B69DB43BA6940
:102124001340BB613B685B6803F48033002B03D02E
:10213400BA693B691343BB61274ABB691360264BE9
:102144005B68BB613B69DB43BA691340BB613B68B5
:102154005B6803F40033002B03D0BA693B69134373
:10216400BB611D4ABB6953601B4B9B68BB613B69E8
:10217400DB43BA691340BB613B685B6803F48013BB
:10218400002B03D0BA693B691343BB61124ABB6994
:102194009360114BDB68BB613B69DB43BA69134055
:1021A400BB613B685B6803F40013002B03D0BA697E
:1021B4003B691343BB61084ABB69D360FB690133C4
:1021C400FB61FB690F2B7FF613AE00BF00BF203706
:1021D400BD4680BD00380140003C014080B584B05C
:1021E40000AF78600B467B807B88002B04D14FF4D2
:1021F400C871094803F014FD7B681A697B88134091
:10220400002B02D00123FB7301E00023FB73FB7B53
:1022140018461037BD4680BDAC5F000880B582B05B
:1022240000AF78600B467B8013467B707B88002B65
:1022340004D140F2B1110E4803F0F2FC7B78002B7C
:1022440007D07B78012B04D04FF4D971084803F0F0
:10225400E7FC7B78002B03D07A887B689A6103E0E3
:102264007B881A047B689A6100BF0837BD4680BD2D
:10227400AC5F000880B582B000AF0346FB80084B1A
:102284005A69FB881340002B06D0054AFB8853612A
:10229400FB88184602F0F0F800BF0837BD4680BD41
:1022A400003C014080B58EB000AF786000237B63B2
:1022B4007B681B680F2B04D94FF480719C4803F092
:1022C400AFFC7B681B6803F00103002B7DD07B68A7
:1022D4005B68002B0CD07B685B68012B08D07B68A3
:1022E4005B68052B04D040F20511914803F098FC7B
:1022F400904B9B6803F00C03042B0CD08D4B9B6814
:1023040003F00C03082B12D18A4B5B6803F480039F
:10231400B3F5800F0BD1874B1B6803F40033002BFC
:1023240052D07B685B68002B4ED10123ABE2824B19
:1023340000221A70FEF788FF78630AE0FEF784FF34
:1023440002467B6BD31A41F28832934201D90323AC
:1023540099E2784B1B6803F40033002BEED17B68C1
:102364005A68754BD2B21A707B685B68002B15D023
:10237400FEF76AFF78630AE0FEF766FF02467B6BAE
:10238400D31A41F28832934201D903237BE2694B89
:102394001B6803F40033002BEED016E0FEF754FF65
:1023A40078630AE0FEF750FF02467B6BD31A41F2D2
:1023B4008832934201D9032365E25E4B1B6803F420
:1023C4000033002BEED100E000BF7B681B6803F0F4
:1023D4000203002B00F08E807B68DB68002B08D0A2
:1023E4007B68DB68012B04D04FF4A371504803F0E1
:1023F40017FC7B681B691F2B04D940F247114C481A
:1024040003F00EFC4B4B9B6803F00C03002B0BD02A
:10241400484B9B6803F00C03082B26D1454B5B68A3
:1024240003F48003002B20D1424B1B6803F002030A
:10243400002B05D07B68DB68012B01D0012322E24D
:102444003C4B1B6823F0F8027B681969F8233B6353
:102454003B6B93FAA3F3FB62FB6AB3FA83F301FACF
:1024640003F3344913430B6044E07B68DB68002BBF
:102474002AD0324B01221A60FEF7E6FE786308E0A8
:10248400FEF7E2FE02467B6BD31A642B01D90323C9
:10249400F9E1284B1B6803F00203002BF0D0254B15
:1024A4001B6823F0F8027B681969F823BB62BB6AD6
:1024B40093FAA3F37B627B6AB3FA83F301FA03F31F
:1024C4001C4913430B6015E01C4B00221A60FEF7F5
:1024D400BBFE786308E0FEF7B7FE02467B6BD31AB7
:1024E400642B01D90323CEE1124B1B6803F00203D2
:1024F400002BF0D17B681B6803F00803002B47D046
:102504007B685B69002B08D07B685B69012B04D076
:1025140040F28711064803F083FB7B685B69002B5C
:1025240020D0074B01221A60FEF78EFE786312E07A
:10253400E45F0008003802400238024000004742CD
:10254400800E4742FEF780FE02467B6BD31A642B53
:1025540001D9032397E18F4B5B6F03F00203002B38
:10256400F0D015E08C4B00221A60FEF76DFE786304
:1025740008E0FEF769FE02467B6BD31A642B01D98F
:10258400032380E1834B5B6F03F00203002BF0D144
:102594007B681B6803F00403002B00F082807B68D7
:1025A4009B68002B0CD07B689B68012B08D07B6850
:1025B4009B68052B04D040F2B111784803F030FB3E
:1025C400744B1B6C734A43F080531364714B1B6C44
:1025D40003F08053BB60BB68714B1B68704A43F4C3
:1025E40080731360FEF730FE786308E0FEF72CFE7C
:1025F40002467B6BD31A642B01D9032343E1684B56
:102604001B6803F48073002BF0D0664B00221A7011
:10261400FEF71AFE78630AE0FEF716FE02467B6BAD
:10262400D31A41F28832934201D903232BE1594B47
:102634001B6F03F00203002BEED17B689A68594BA1
:10264400D2B21A707B689B68002B15D0FEF7FCFD94
:1026540078630AE0FEF7F8FD02467B6BD31A41F279
:102664008832934201D903230DE14A4B1B6F03F0D7
:102674000203002BEED014E0FEF7E6FD78630AE0D7
:10268400FEF7E2FD02467B6BD31A41F28832934295
:1026940001D90323F7E03F4B1B6F03F00203002B28
:1026A400EED17B689B69002B0CD07B689B69012B66
:1026B40008D07B689B69022B04D040F2F51137489F
:1026C40003F0AEFA7B689B69002B00F0DB80314B92
:1026D4009B6803F00C03082B00F0D2807B689B6995
:1026E400022B40F0B6807B68DB69002B09D07B6845
:1026F400DB69B3F5800F04D04FF4FF71274803F072
:102704008FFA7B681B6A3F2B04D940F2FF112348E0
:1027140003F086FA7B685B6ABF2B04D97B685B6A2B
:10272400B3F5D87F04D94FF400711C4803F078FA4C
:102734007B689B6A022B10D07B689B6A042B0CD0AD
:102744007B689B6A062B08D07B689B6A082B04D0A5
:1027540040F20121114803F063FA7B68DB6A032B22
:1027640003D97B68DB6A0F2B04D940F202210B48A2
:1027740003F056FA0C4B00221A60FEF765FD7863ED
:1027840014E0FEF761FD02467B6BD31A642B0DD96E
:10279400032378E000380240800E4742E45F0008DB
:1027A400007000407038024060004742384B1B689C
:1027B40003F00073002BE4D17B68DA697B681B6A41
:1027C4001A437B68596A47F6C0733B613B6993FAC5
:1027D400A3F3FB60FB68B3FA83F301FA03F31A4330
:1027E4007B689B6A5B08591E4FF44033BB61BB692D
:1027F40093FAA3F37B617B69B3FA83F301FA03F3DE
:102804001A437B68D96A4FF070633B623B6A93FA60
:10281400A3F3FB61FB69B3FA83F301FA03F31C49E5
:1028240013434B601B4B01221A60FEF70DFD7863C6
:1028340008E0FEF709FD02467B6BD31A642B01D92D
:10284400032320E0124B1B6803F00073002BF0D02D
:1028540018E0104B00221A60FEF7F6FC786308E0DB
:10286400FEF7F2FC02467B6BD31A642B01D90323D7
:1028740009E0074B1B6803F00073002BF0D101E063
:10288400012300E0002318463837BD4680BD00BF51
:10289400003802406000474280B584B000AF7860E1
:1028A40039600023FB607B681B68002B03D07B68C6
:1028B4001B680F2B04D94FF41871884803F0B0F942
:1028C4003B68002B19D03B68012B16D03B68022BC8
:1028D40013D03B68032B10D03B68042B0DD03B680E
:1028E400052B0AD03B68062B07D03B68072B04D086
:1028F40040F26121794803F093F9794B1B6803F0A6
:102904000F033A689A4240F2EF80754B3A68D2B2AC
:102914001A70734B1B6803F00F033A689A4201D094
:10292400012325E27B681B6803F00203002B31D0EE
:102934007B689B68002B24D07B689B68802B20D00D
:102944007B689B68902B1CD07B689B68A02B18D05D
:102954007B689B68B02B14D07B689B68C02B10D01D
:102964007B689B68D02B0CD07B689B68E02B08D0DD
:102974007B689B68F02B04D040F27721574803F022
:102984004FF9584B9B6823F0F0027B689B685549CC
:1029940013438B607B681B6803F00103002B00F07A
:1029A4008A817B685B68002B10D07B685B68012B95
:1029B4000CD07B685B68022B08D07B685B68032BB8
:1029C40004D040F27E21454803F02AF97B685B6815
:1029D400012B07D1434B1B6803F40033002B19D19F
:1029E4000123C5E17B685B68022B03D07B685B68CD
:1029F400032B07D13B4B1B6803F00073002B09D159
:102A04000123B5E1374B1B6803F00203002B01D10E
:102A14000123ADE1334B9B6823F003027B685B68C1
:102A2400304913438B60FEF70FFCF8607B685B68EA
:102A3400012B12D10AE0FEF707FC0246FB68D31A09
:102A440041F28832934201D9032391E1254B9B68DB
:102A540003F00C03042BEED12DE17B685B68022BA1
:102A640012D10AE0FEF7F0FB0246FB68D31A41F2EA
:102A74008832934201D903237AE11A4B9B6803F00D
:102A84000C03082BEED116E17B685B68032B1DD188
:102A94000AE0FEF7D9FB0246FB68D31A41F28832FA
:102AA400934201D9032363E10E4B9B6803F00C03AB
:102AB400032BEED1FFE0FEF7C7FB0246FB68D31AF7
:102AC40041F28832934201D9032351E1054B9B68BB
:102AD40003F00C03002BEED1EDE000BFE45F00082F
:102AE400003C0240003802407B681B6803F002038C
:102AF400002B31D07B689B68002B24D07B689B68BB
:102B0400802B20D07B689B68902B1CD07B689B68B3
:102B1400A02B18D07B689B68B02B14D07B689B6873
:102B2400C02B10D07B689B68D02B0CD07B689B6833
:102B3400E02B08D07B689B68F02B04D040F2D121B5
:102B44008D4803F06DF88D4B9B6823F0F0027B6891
:102B54009B688A4913438B607B681B6803F00103FD
:102B6400002B00F09B807B685B68002B10D07B6897
:102B74005B68012B0CD07B685B68022B08D07B68F8
:102B84005B68032B04D04FF436717B4803F048F89C
:102B94007B685B68012B07D1784B1B6803F4003317
:102BA400002B19D10123E3E07B685B68022B03D07F
:102BB4007B685B68032B07D1704B1B6803F00073C1
:102BC400002B09D10123D3E06C4B1B6803F00203F3
:102BD400002B01D10123CBE0684B9B6823F0030257
:102BE4007B685B68654913438B60FEF72DFBF860D7
:102BF4007B685B68012B12D10AE0FEF725FB0246D5
:102C0400FB68D31A41F28832934201D90323AFE01F
:102C14005A4B9B6803F00C03042BEED13EE07B6817
:102C24005B68022B12D10AE0FEF70EFB0246FB683A
:102C3400D31A41F28832934201D9032398E04F4BCF
:102C44009B6803F00C03082BEED127E07B685B68DC
:102C5400032B1DD10AE0FEF7F7FA0246FB68D31AEC
:102C640041F28832934201D9032381E0434B9B68AC
:102C740003F00C03032BEED110E0FEF7E5FA024655
:102C8400FB68D31A41F28832934201D903236FE0DF
:102C94003A4B9B6803F00C03002BEED1384B3A6897
:102CA400D2B21A70364B1B6803F00F033A689A428B
:102CB40001D001235CE07B681B6803F00403002B54
:102CC40025D07B68DB68002B18D07B68DB68B3F504
:102CD400805F13D07B68DB68B3F5A05F0ED07B68A0
:102CE400DB68B3F5C05F09D07B68DB68B3F5E05FF0
:102CF40004D040F23231204802F092FF1F4B9B680F
:102D040023F4E0527B68DB681C4913438B607B68C7
:102D14001B6803F00803002B26D07B681B69002B7B
:102D240018D07B681B69B3F5805F13D07B681B697F
:102D3400B3F5A05F0ED07B681B69B3F5C05F09D003
:102D44007B681B69B3F5E05F04D040F239310A486F
:102D540002F066FF094B9B6823F460427B681B69A1
:102D6400DB00064913438B600020FEF743FA00237F
:102D740018461037BD4680BDE45F000800380240A5
:102D8400003C024080B48BB000AF0023FB61002301
:102D94007B620023BB6100233B62384B9B6803F0DA
:102DA4000C03082B0CD0082B5DD8002B02D0042B6D
:102DB40003D058E0324B3B6258E0324B3B6255E063
:102DC4002E4B5B6803F03F03FB612C4B5B6803F401
:102DD4008003002B17D02B4AFB69B2FBF3F2274B7D
:102DE400596847F6C0730B4047F6C0717961796939
:102DF40091FAA1F139613969B1FA81F1CB4002FB51
:102E040003F37B6216E01E4AFB69B2FBF3F21B4B31
:102E1400596847F6C0730B4047F6C071F960F9680A
:102E240091FAA1F1B960B968B1FA81F1CB4002FB22
:102E340003F37B62114B5B6803F440324FF440337D
:102E44007B607B6893FAA3F33B603B68B3FA83F33C
:102E540022FA03F301335B00BB617A6ABB69B2FBFC
:102E6400F3F33B6202E0064B3B6200BF3B6A184649
:102E74002C37BD465DF8047B704700BF0038024024
:102E84000024F40000127A0080B582B000AFFFF78E
:102E940079FF01460D4B9B6803F0F002F0237B6041
:102EA4007B6893FAA3F33B603B68B3FA83F322FA9B
:102EB40003F3074AD35C21FA03F3064A1360054B74
:102EC4001B6818460837BD4680BD00BF0038024065
:102ED400EC6A00083800002080B582B000AFFFF72C
:102EE400D3FF01460B4B9B6803F4E0524FF4E053CD
:102EF4007B607B6893FAA3F33B603B68B3FA83F38C
:102F040022FA03F3044AD35C21FA03F31846083780
:102F1400BD4680BD00380240EC6A000880B582B02E
:102F240000AFFFF7B1FF01460B4B9B6803F460420F
:102F34004FF460437B607B6893FAA3F33B603B6888
:102F4400B3FA83F322FA03F3044AD35C21FA03F3BA
:102F540018460837BD4680BD00380240EC6A0008B8
:102F640080B582B000AF78607B68002B01D101236B
:102F740004E17B685B68002B08D07B685B68B3F571
:102F8400827F03D0B8217F4802F04AFE7B689B68A9
:102F9400002B0DD07B689B68B3F5806F08D07B68ED
:102FA4009B68B3F5004F03D0B921764802F038FE90
:102FB4007B68DB68B3F5006F07D07B68DB68002BA8
:102FC40003D0BA216F4802F02BFE7B681B69002BEB
:102FD40007D07B681B69022B03D0BB21694802F030
:102FE4001FFE7B685B69002B07D07B685B69012B44
:102FF40003D0BC21634802F013FE7B689B69B3F5E0
:10300400007F0CD07B689B69002B08D07B689B6990
:10301400B3F5802F03D0BD215A4802F001FE7B682E
:10302400DB69002B1FD07B68DB69082B1BD07B6816
:10303400DB69102B17D07B68DB69182B13D07B68F6
:10304400DB69202B0FD07B68DB69282B0BD07B68D6
:10305400DB69302B07D07B68DB69382B03D0BE21BA
:10306400484802F0DDFD7B681B6A002B07D07B68B3
:103074001B6A802B03D0BF21424802F0D1FD7B683C
:103084005B6A002B07D07B685B6A102B03D0C021DE
:103094003C4802F0C5FD7B689B6A002B08D07B6826
:1030A4009B6AB3F5005F03D0C121364802F0B8FD36
:1030B4007B68DB6A002B04D07B68DB6AB3F5803F56
:1030C40003D3C2212F4802F0ABFD7B6893F8513043
:1030D400DBB2002B06D17B68002283F8502078688D
:1030E40002F0B6FD7B68022283F851207B681B68DE
:1030F4001A687B681B6822F040021A607B685A6871
:103104007B689B681A437B68DB681A437B681B698E
:103114001A437B685B691A437B689B6903F40073F9
:103124001A437B68DB691A437B681B6A42EA030122
:103134007B689A6A7B681B680A431A607B689B6990
:103144001B0C03F004017B685A6A7B681B680A4302
:103154005A607B681B687A68D26A1A617B681B684C
:10316400DA697B681B6822F40062DA617B680022FA
:103174005A657B68012283F85120002318460837DA
:10318400BD4680BD1C60000880B588B000AFF86003
:10319400B9607A607B800023FB610023BB61FB681C
:1031A40093F85130DBB2FB61FB69012B03D0FB695F
:1031B400222B40F04982BB68002B05D07B68002B92
:1031C40002D07B88002B01D101233EE2FB689B687F
:1031D400002B04D04FF426718D4802F021FDFB68CA
:1031E40093F85030012B01D102232EE2FB68012217
:1031F40083F85020FB6893F85130DBB2012B03D1E4
:10320400FB68322283F85120FB6800225A65FB6870
:103214007A689A63FB687A889A87FB687A88DA877F
:10322400FB68BA681A63FB687A889A86FB687A88AE
:10323400DA86FB6800229A64FB680022DA64FB6881
:103244009B6AB3F5005F0FD1FB681B681A68FB68C3
:103254001B6822F400521A60FB681B681A68FB683A
:103264001B6842F400521A60FB681B681B6803F079
:103274004003402B07D0FB681B681A68FB681B6877
:1032840042F040021A60FB68DB68B3F5006F40F05F
:10329400C180FB685B68002B08D0FB685B68B3F5F2
:1032A400827F14D1FB68DB8E012B10D1FB681B6B72
:1032B4001A88FB681B68DA60FB681B6B9A1CFB6846
:1032C4001A63FB68DB8E013B9AB2FB68DA86FB6803
:1032D400DB8E002B74D1FB689B6AB3F5005F07D1CA
:1032E400FB681B681A68FB681B6842F480521A600A
:1032F400BB6A00220121F86800F0ACF90346002BF8
:1033040001D00323A1E1FB681B68DA68FB689B6BAF
:1033140092B21A80FB689B6B9A1CFB689A63FB68E9
:10332400DB8F013B9AB2FB68DA8722E1BB6A002299
:103334000221F86800F08EF90346002B01D0032324
:1033440083E1FB681B6B1A88FB681B68DA60FB6807
:103354001B6B9A1CFB681A63FB68DB8E013B9AB2F9
:10336400FB68DA86FB68DB8E002B0CD1FB689B6A5A
:10337400B3F5005F07D1FB681B681A68FB681B681C
:1033840042F480521A60BB6A00220121F86800F0FE
:1033940061F90346002B01D0032356E1FB681B6847
:1033A400DA68FB689B6B92B21A80FB689B6B9A1C71
:1033B400FB689A63FB68DB8F013B9AB2FB68DA8790
:1033C400FB68DB8E002BB1D1FB685B68002B40F0FF
:1033D400D080BB6A00220121F86800F03BF9034663
:1033E400002B01D0032330E1FB681B68DA68FB681B
:1033F4009B6B92B21A80FB689B6B9A1CFB689A6366
:10340400FB68DB8F013B9AB2FB68DA87B1E000BF4F
:103414001C600008FB685B68002B08D0FB685B68D5
:10342400B3F5827F12D1FB68DB8E012B0ED1FB68D2
:103434001B6B591CFA6811631A78FB681B68DA6005
:10344400FB68DB8E013B9AB2FB68DA86FB68DB8E95
:10345400002B6BD1FB689B6AB3F5005F07D1FB6857
:103464001B681A68FB681B6842F480521A60BB6AC6
:1034740000220121F86800F0EDF80346002B01D08A
:103484000323E2E0FB681B68DA68FB689B6BD2B23B
:103494001A70FB68DB8F013B9AB2FB68DA8768E03D
:1034A400BB6A00220221F86800F0D4F80346002B1E
:1034B40001D00323C9E0FB681B6B591CFA68116334
:1034C4001A78FB681B68DA60FB68DB8E013B9AB2F2
:1034D400FB68DA86FB68DB8E002B0CD1FB689B6AE9
:1034E400B3F5005F07D1FB681B681A68FB681B68AB
:1034F40042F480521A60BB6A00220121F86800F08D
:10350400A9F80346002B01D003239EE0FB681B6847
:10351400D868FB689B6B591CFA689163C2B21A7035
:10352400FB68DB8F013B9AB2FB68DA87FB68DB8EB2
:10353400002BB5D1FB685B68002B1AD1BB6A002253
:103544000121F86800F086F80346002B01D003231C
:103554007BE0FB681B68D868FB689B6B591CFA68A6
:103564009163C2B21A70FB68DB8F013B9AB2FB68AD
:10357400DA87FB689B6AB3F5005F16D1BB6A002249
:103584000121F86800F066F80346002B07D0FB68B9
:103594005B6D43F00202FB685A65032355E0FB6848
:1035A4001B68DB689BB2FB82FB8ABB6A0122802119
:1035B400F86800F04FF80346002B07D0FB685B6DFA
:1035C40043F02002FB685A6503233EE0FB680122B6
:1035D40083F85120FB681B689B6803F01003102BD1
:1035E4000CBF01230023DBB2BB61FB689B6AB3F50C
:1035F400005F23D1BB69002B20D0FB685B6D43F0D7
:103604000202FB685A65FB689B6AB3F5005F0FD141
:10361400FB681B681A68FB681B6822F400521A6076
:10362400FB681B681A68FB681B6842F400521A6046
:10363400FB68002283F85020012306E0FB68002287
:1036440083F85020002300E0022318462037BD46AB
:1036540080BD00BF80B586B000AFF860B9603B6044
:103664001346FB7100237B61FDF7EEFD7861FB7966
:10367400002B40F086803DE03B68B3F1FF3F39D03A
:103684003B68002B07D0FDF7DFFD02467B69D31AA8
:103694003A689A422ED2FB681B685A68FB681B681A
:1036A40022F0E0025A60FB681B681A68FB681B681A
:1036B40022F040021A60FB689B6AB3F5005F0FD1E9
:1036C400FB681B681A68FB681B6822F400521A60C6
:1036D400FB681B681A68FB681B6842F400521A6096
:1036E400FB68012283F85120FB68002283F85020F4
:1036F40003234FE0FB681B689A68BB681340BA68F1
:103704009A42B9D145E03B68B3F1FF3F39D03B68F9
:10371400002B07D0FDF798FD02467B69D31A3A685F
:103724009A422ED2FB681B685A68FB681B6822F019
:10373400E0025A60FB681B681A68FB681B6822F089
:1037440040021A60FB689B6AB3F5005F0FD1FB6807
:103754001B681A68FB681B6822F400521A60FB6835
:103764001B681A68FB681B6842F400521A60FB6805
:10377400012283F85120FB68002283F850200323A0
:1037840008E0FB681B689A68BB681340BA689A42F1
:10379400B9D0002318461837BD4680BD80B582B025
:1037A40000AF78607B68002B01D101239AE07B682D
:1037B4009B69002B2AD07B681B684C4A93420DD02E
:1037C4007B681B684A4A934208D07B681B68494A55
:1037D400934203D0FC21484802F022FA7B689B699B
:1037E400002B27D07B689B69B3F5807F22D07B6850
:1037F4009B69B3F5007F1DD07B689B69B3F5407F5F
:1038040018D0FD213C4802F00BFA13E07B681B68DA
:10381400364A93420ED07B681B68354A934209D0DE
:103824007B681B68334A934204D040F2011132484A
:1038340002F0F6F97B689B68002B09D07B689B68D3
:10384400B3F5805F04D040F203112B4802F0E8F98D
:103854007B68DB69002B09D07B68DB69B3F5004F1B
:1038640004D04FF48271244802F0DAF97B6893F8AB
:103874003930DBB2002B06D17B68002283F8382074
:10388400786802F06FFA7B68022283F839207B683B
:103894001B68DA687B681B6822F40052DA60786877
:1038A40000F014FC7B681B681A697B681B6822F4AF
:1038B40090421A617B681B685A697B681B6822F016
:1038C4002A025A617B681B68DA687B681B6842F4C9
:1038D4000052DA607B680022DA637B68012283F895
:1038E4003920002318460837BD4680BD001001402A
:1038F40000440040001401405460000880B586B0C4
:1039040000AFF860B9603B601346FB8000237B6125
:10391400FB6893F83930DBB27B617B69012B03D000
:103924007B69222B40F08E80BB68002B02D0FB8881
:10393400002B01D1012386E0FB6893F83830012B7A
:1039440001D102237FE0FB68012283F83820FB6861
:103954000022DA63FB6893F83930DBB2222B04D1FE
:10396400FB68322283F8392003E0FB68122283F8D3
:103974003920FB68FA889A84FB68FA88DA843DE087
:10398400FB68DB8C013B9AB2FB68DA84FB689B68BA
:10399400B3F5805F20D13B6800228021F86800F0F5
:1039A400D8F90346002B01D003234CE0BB683B61EC
:1039B4003B691B881A46FB681B68C2F308025A60FD
:1039C400FB681B69002B03D1BB680233BB6015E0A5
:1039D400BB680133BB6011E03B6800228021F868BA
:1039E40000F0B7F90346002B01D003232BE0BB689A
:1039F4005A1CBA601A78FB681B685A60FB68DB8C37
:103A0400002BBDD13B6800224021F86800F0A1F9E9
:103A14000346002B01D0032315E0FB6893F83930EB
:103A2400DBB2322B04D1FB68222283F8392003E075
:103A3400FB68012283F83920FB68002283F83820D0
:103A4400002300E0022318461837BD4680BD80B429
:103A540087B000AFF860B9601346FB8000237B6138
:103A6400FB6893F83930DBB27B617B69012B02D0B0
:103A74007B69122B4BD1BB68002B02D0FB88002B37
:103A840001D1012344E0FB6893F83830012B01D1C4
:103A940002233DE0FB68012283F83820FB68BA6802
:103AA4009A62FB68FA889A85FB68FA88DA85FB686B
:103AB4000022DA63FB6893F83930DBB2122B04D1AD
:103AC400FB68322283F8392003E0FB68222283F862
:103AD4003920FB681B68DA68FB681B6842F4807253
:103AE400DA60FB681B685A69FB681B6842F00102D4
:103AF4005A61FB68002283F83820FB681B68DA6887
:103B0400FB681B6842F02002DA60002300E0022315
:103B140018461C37BD465DF8047B704780B588B0F5
:103B240000AF78600023FB610023BB617B681B68E6
:103B34001B6803F00103012B0CBF01230023DBB23C
:103B4400FB617B681B68DB6803F48073BB61FB6902
:103B5400002B11D0BB69002B0ED07B681B681B683F
:103B64007B617B681B685B687B617B697B68DB6B63
:103B740043F001027B68DA637B681B681B6803F00F
:103B84000203022B0CBF01230023DBB2FB617B6821
:103B94001B685B6903F00103BB61FB69002B11D057
:103BA400BB69002B0ED07B681B681B683B617B687C
:103BB4001B685B683B613B697B68DB6B43F0040219
:103BC4007B68DA637B681B681B6803F00403042BBF
:103BD4000CBF01230023DBB2FB617B681B685B69BC
:103BE40003F00103BB61FB69002B11D0BB69002BFF
:103BF4000ED07B681B681B68FB607B681B685B6876
:103C0400FB60FB687B68DB6B43F002027B68DA6372
:103C14007B681B681B6803F00803082B0CBF012397
:103C24000023DBB2FB617B681B685B6903F0010363
:103C3400BB61FB69002B11D0BB69002B0ED07B68E4
:103C44001B681B68BB607B681B685B68BB60BB68E8
:103C54007B68DB6B43F008027B68DA637B681B6874
:103C64001B6803F02003202B0CBF01230023DBB2CD
:103C7400FB617B681B68DB6803F02003BB61FB69A5
:103C8400002B05D0BB69002B02D0786800F08AF9BC
:103C94007B681B681B6803F08003802B0CBF012327
:103CA4000023DBB2FB617B681B68DB6803F08003E5
:103CB400BB61FB69002B05D0BB69002B02D078687F
:103CC40000F0E0F87B681B681B6803F04003402B9E
:103CD4000CBF01230023DBB2FB617B681B68DB683C
:103CE40003F04003BB61FB69002B05D0BB69002BCB
:103CF40002D0786800F023F97B68DB6B002B06D0D8
:103D04007B68012283F83920786800F018F800BF36
:103D14002037BD4680BD80B483B000AF786000BF5B
:103D24000C37BD465DF8047B704780B483B000AFA8
:103D3400786000BF0C37BD465DF8047B704780B4E3
:103D440083B000AF786000BF0C37BD465DF8047BDC
:103D5400704780B586B000AFF860B9603B60134629
:103D6400FB7100237B61FDF76FFA7861FB79002B0F
:103D74007BD138E03B68B3F1FF3F34D03B68002B84
:103D840007D0FDF761FA02467B69D31A3A689A4272
:103D940029D2FB681B68DA68FB681B6822F0800282
:103DA400DA60FB681B68DA68FB681B6822F0200293
:103DB400DA60FB681B68DA68FB681B6822F48072AF
:103DC400DA60FB681B685A69FB681B6822F0010211
:103DD4005A61FB68012283F83920FB68002283F8CA
:103DE400382003234AE0FB681B681A68BB68134049
:103DF400BA689A42BED140E03B68B3F1FF3F34D089
:103E04003B68002B07D0FDF71FFA02467B69D31AE3
:103E14003A689A4229D2FB681B68DA68FB681B6817
:103E240022F08002DA60FB681B68DA68FB681B68B2
:103E340022F02002DA60FB681B68DA68FB681B6802
:103E440022F48072DA60FB681B685A69FB681B689D
:103E540022F001025A61FB68012283F83920FB68D1
:103E6400002283F83820032308E0FB681B681A68E3
:103E7400BB681340BA689A42BED00023184618376C
:103E8400BD4680BD80B485B000AF78600023FB6080
:103E94007B6893F83930DBB2FB60FB68122B02D0ED
:103EA400FB68322B44D17B689B68B3F5805F1AD1E1
:103EB4007B681B6ABB60BB681B881A467B681B68EF
:103EC400C2F308025A607B681B69002B05D17B682A
:103ED4001B6A9A1C7B681A620EE07B681B6A5A1C78
:103EE4007B681A6208E07B681B6A591C7A68116255
:103EF4001A787B681B685A607B68DB8C013B9AB23A
:103F04007B68DA847B68DB8C002B0FD17B681B68B1
:103F1400DA687B681B6822F08002DA607B681B68C1
:103F2400DA687B681B6842F04002DA60002300E034
:103F3400022318461437BD465DF8047B704780B5EC
:103F440082B000AF78607B681B68DA687B681B68A6
:103F540022F04002DA607B6893F83930DBB2322B0E
:103F640004D17B68222283F8392013E07B681B6824
:103F7400DA687B681B6822F48072DA607B681B68ED
:103F84005A697B681B6822F001025A617B6801222E
:103F940083F839207868FFF7BEFE002318460837F7
:103FA400BD4680BD80B584B000AF78600023FB605F
:103FB4007B6893F83930DBB2FB60FB68222B02D0BC
:103FC400FB68322B7CD17B689B68B3F5805F23D17F
:103FD4007B689B6ABB607B681B69002B0ED17B6886
:103FE4001B685B689BB2C3F308039AB2BB681A8070
:103FF4007B689B6A9A1C7B689A6229E07B681B68D1
:104004005B689BB2DBB29AB2BB681A807B689B6A1E
:104014005A1C7B689A621BE07B681B69002B0AD1DF
:104024007B681B6858687B689B6A591C7A68916234
:10403400C2B21A700CE07B681B685B68DAB27B68FA
:104044009B6A581C7968886202F07F02D2B21A70A7
:104054007B68DB8D013B9AB27B68DA857B68DB8DFC
:10406400002B2BD17B681B68DA687B681B6822F005
:104074002002DA607B6893F83930DBB2322B04D14A
:104084007B68122283F8392013E07B681B68DA68A6
:104094007B681B6822F48072DA607B681B685A694B
:1040A4007B681B6822F001025A617B68012283F855
:1040B40039207868FFF739FE002302E0002300E08E
:1040C400022318461037BD4680BD0000B0B584B049
:1040D40000AF78600023FB607B685B68A94A934269
:1040E40004D940F23671A84801F09AFD7B68DB6878
:1040F400002B09D07B68DB68B3F5005F04D040F285
:104104003771A14801F08CFD7B681B69002B0ED030
:104114007B681B69B3F5806F09D07B681B69B3F5B5
:10412400C06F04D04FF4E761974801F079FD7B68D4
:104134005A694FF6F3731340002B03D17B685B6914
:10414400002B04D140F239718F4801F069FD7B687E
:104154001B681B69FB60FB6823F44053FB607B68AE
:10416400DB68FA681343FB607B681B68FA681A61B2
:104174007B681B68DB68FB60FB6823F4164323F051
:104184000C03FB607B689A687B681B691A437B6835
:104194005B691A437B68DB691343FA681343FB606A
:1041A4007B681B68FA68DA607B681B685B69FB6084
:1041B400FB6823F44073FB607B689B69FA681343D4
:1041C400FB607B681B68FA685A617B68DB69B3F53E
:1041D400004F40F08C807B681B686C4A934204D08B
:1041E4007B681B686A4A934240D1FEF797FE0246F9
:1041F40013469B0013449A001A447B685B685B0077
:10420400B2FBF3F3634AA2FB03235B091C01FEF731
:1042140085FE024613469B0013449A001A447B68A9
:104224005B685B00B2FBF3F5FEF778FE02461346CB
:104234009B0013449A001A447B685B685B00B2FBE2
:10424400F3F3544AA2FB03235B09642202FB03F346
:10425400EB1A1B0132334F4AA2FB03235B0903F021
:104264000F027B681B6822439A60D6E0FEF734FE97
:10427400024613469B0013449A001A447B685B6809
:104284005B00B2FBF3F3434AA2FB03235B091C016B
:10429400FEF722FE024613469B0013449A001A447A
:1042A4007B685B685B00B2FBF3F5FEF715FE024624
:1042B40013469B0013449A001A447B685B685B00B6
:1042C400B2FBF3F3334AA2FB03235B09642202FB30
:1042D40003F3EB1A1B0132332E4AA2FB03235B09BF
:1042E40003F00F027B681B6822439A6095E07B68A9
:1042F4001B68264A934204D07B681B68244A934275
:104304004AD1FEF70BFE024613469B0013449A0063
:104314001A447B685B689B00B2FBF3F31D4AA2FB63
:1043240003235B091C01FEF7F9FD024613469B00BB
:1043340013449A001A447B685B689B00B2FBF3F554
:10434400FEF7ECFD024613469B0013449A001A4400
:104354007B685B689B00B2FBF3F30E4AA2FB03236A
:104364005B09642202FB03F3EB1A1B013233094A93
:10437400A2FB03235B0903F00F027B681B68224343
:104384009A604AE0A037A000546000080010014081
:10439400001401401F85EB51FEF79EFD02461346B3
:1043A4009B0013449A001A447B685B689B00B2FB31
:1043B400F3F31C4AA2FB03235B091C01FEF78CFDEB
:1043C400024613469B0013449A001A447B685B68B8
:1043D4009B00B2FBF3F5FEF77FFD024613469B00FC
:1043E40013449A001A447B685B689B00B2FBF3F3A6
:1043F4000C4AA2FB03235B09642202FB03F3EB1ABE
:104404001B013233074AA2FB03235B0903F00F02AB
:104414007B681B6822439A60FFE700BF1037BD46E4
:10442400B0BD00BF1F85EB5180B582B000AF4FF423
:1044340000510F48FDF7D2FE0346FB71FB79002BB8
:104444000BD10C4B1B78012B07D100210020FCF76A
:10445400BBFC01210020FCF7B7FC064AFB79137072
:104464000A20FCF7FDFE00BF0837BD4680BD00BF33
:10447400000802403C00002080B582B000AF034633
:10448400FB80FB88B3F5005F07D0B3F5005F0DDC5C
:10449400012B05D0022B06D008E0FCF717FD05E040
:1044A400FCF702FD02E0FCF708FD00BF00BF08377F
:1044B400BD4680BD80B584B000AF7860396000230C
:1044C400FB7335E0FA7B13465B0013441B011A4669
:1044D4003B68134400221A70FA7B13465B001344B2
:1044E4001B011A463B6813440022DA70FA7B134618
:1044F4005B0013441B011A463B6813440022DA7321
:10450400FA7B13465B0013441B011A463B681344B1
:1045140000229A76FA7B13465B0013441B011A4669
:104524003B681344002283F82520FB7B0133FB7393
:10453400FB7B012BC6D90023BB73BB7B7A68134476
:104544001B787B7300233B730223FB720023FB73F2
:104554000023BB7209E17B7B2C2B10D02E2B1FD1A7
:10456400BB7A052B05D0BB7A0133BB7200233B73A6
:10457400F3E08249824801F057F90023FAE0FB7B1B
:104584000133FB73FB7B022B04D00023BB7200239B
:104594003B73E2E07B497A4801F046F90023E9E005
:1045A4003A7BFB7A9A4200F0D280BB7A052B00F268
:1045B400C98001A252F823F0D5450008114600082D
:1045C40089460008C9460008094700084D46000806
:1045D4000223FB72FA7B13465B0013441B011A4649
:1045E4003B6813441A463B7B13447A7B1A70FA7B6C
:1045F40013465B0013441B011A463B6813441A46D6
:104604003B7B0133134400221A709CE00B23FB72A2
:10461400FA7B13465B0013441B011A463B681344A0
:10462400DA1C3B7B13447A7B1A70FA7B13465B00DB
:1046340013441B011A463B681344DA1C3B7B0133C9
:10464400134400221A707EE00423FB72FA7B1346A3
:104654005B0013441B011A463B681344DA1C3B7B82
:1046640013447A7B1A70FA7B13465B0013441B01D4
:104674001A463B681344DA1C3B7B01331344002283
:104684001A7060E00A23FB72FA7B13465B00134442
:104694001B011A463B68134403F10F023B7B13448E
:1046A4007A7B1A70FA7B13465B0013441B011A468B
:1046B4003B68134403F10F023B7B01331344002294
:1046C4001A7040E00723FB72FA7B13465B00134425
:1046D4001B011A463B68134403F11A023B7B134443
:1046E4007A7B1A70FA7B13465B0013441B011A464B
:1046F4003B68134403F11A023B7B01331344002249
:104704001A7020E00723FB72FA7B13465B00134404
:104714001B011A463B68134403F125023B7B1344F7
:104724007A7B1A70FA7B13465B0013441B011A460A
:104734003B68134403F125023B7B013313440022FD
:104744001A7000E000BF3B7B01333B7305E00E4968
:104754000B4801F069F800230CE0BB7B0133BB7309
:10476400BB7B7A6813441B787B737B7B002B7FF4C1
:10477400F2AE012318461037BD4680BD8C60000898
:1047840018010020B0600008D060000880B58CB02B
:1047940000AF7860396000233B6107F11003BB620E
:1047A400002387F82D30002387F82E301BE00023E8
:1047B40087F82F300EE097F82D305A1C87F82D20FB
:1047C4001A463B68134400221A7097F82F300133BD
:1047D40087F82F3097F82F30012BECD997F82E302B
:1047E400013387F82E3097F82E30032BDFD9BB6ABC
:1047F40000221A70002387F82C30002387F82D300C
:104804000FE097F82D30013387F82D3097F82D30CD
:10481400022B06D1CD49CE4801F006F8002300F062
:10482400A8BD97F82C2013465B0013441B011A46BD
:104834007B681344184697F82D2013465B001344F5
:104844009B0013440833C34A13440133194600F050
:10485400EBFE0346002BD4D097F82D301846FCF716
:1048640025F8034687F8233097F82D2013465B007C
:1048740013449B0013440833B64A13440133B96A02
:10488400184600F0D1FE0346002B40F0208597F82F
:104894002D2013465B0013449B0013440833AD4A98
:1048A40013440133BB62002387F827300FE097F8E5
:1048B4002730013387F8273097F82730142B06D197
:1048C400A549A34800F0B0FF002300F052BD97F8BB
:1048D4002C2013465B0013441B011A467B681344C7
:1048E400D81C97F827201346DB009B1A5B009B4AD1
:1048F4001344194600F098FE0346002BD7D097F8CE
:10490400272096491346DB009B1A5B000B440D33AA
:104914001B7887F82230002387F82D3020E097F8A1
:104924002C2013465B0013441B011A467B6899181C
:1049340097F82D2013469B0013445B0013440B444B
:104944000F331B78002B06D18549814800F06CFF9A
:10495400002300F00EBD97F82D30013387F82D3079
:1049640097F82D2097F822309A42D8D397F82D3013
:10497400022B1BD897F82C2013465B0013441B0111
:104984001A467B68991897F82D2013469B00134408
:104994005B0013440B440F331B78002B06D0704983
:1049A4006B4800F041FF002300F0E3BC97F8273088
:1049B400132B00F2928401A252F823F0114A00084A
:1049C400214A0008274B0008154C0008F34C000846
:1049D4005F4D00083D4E0008BD4E0008AF4F000873
:1049E40005510008E9510008F75100080552000874
:1049F4002D5200083B520008495200085752000843
:104A04006552000873520008B152000897F8233029
:104A14003A68134400221A7000F05FBC002387F840
:104A240026300FE097F82630013387F8263097F8C0
:104A34002630192B06D14B49454800F0F5FE0023DA
:104A440000F097BC97F82C2013465B0013441B011D
:104A54001A467B68134403F10F0097F82620134687
:104A64009B0013449B00404A13440133194600F051
:104A7400DBFD0346002BD5D097F8262097F823308A
:104A840039681944384813469B0013449B00034477
:104A94001B780B7097F82620334913469B00134468
:104AA4009B000B440E331B78FB7597F82C201346A0
:104AB4005B0013441B011A467B6813441A3307F145
:104AC4000C021146184600F0D6FD0346002B06D111
:104AD40026491F4800F0A8FE002300F04ABC012329
:104AE40087F82E3017E0FA68F97D97F82E30CB1A44
:104AF400DB0022FA03F197F82E305A0097F823309E
:104B040013441A463B681344CAB21A7097F82E30FD
:104B1400013387F82E30FA7D97F82E309A42E2D28C
:104B2400DBE3002387F8263022E097F826300133B0
:104B340087F8263097F82630192B19D109490448EB
:104B440000F072FE002300F014BC00BFF060000807
:104B5400180100205801002020610008B4690008F1
:104B640064610008B4610008C0670008F4610008CB
:104B740097F82C2013465B0013441B011A467B68EC
:104B8400134403F10F0097F8262013469B001344A7
:104B94009B00CB4A13440133194600F045FD0346FC
:104BA400002BC2D097F82620C54913469B00134416
:104BB4009B000B441A7897F8233039680B4442F071
:104BC4002002D2B21A7097F82620BD4913469B00E2
:104BD40013449B000B440E331B78FB75012387F8A9
:104BE4002E300FE097F82E305A0097F823301344F4
:104BF4001A463B68134400221A7097F82E3001338A
:104C040087F82E30FA7D97F82E309A42EAD264E380
:104C1400002387F825300EE097F82530013387F814
:104C2400253097F82530022B05D1A649A64800F077
:104C3400FBFD00239DE397F82C2013465B001344EF
:104C44001B011A467B68134403F10F0097F82520D3
:104C54001346DB0013449D4A1344194600F0E4FC58
:104C64000346002BD8D097F823303A68134497F8BA
:104C7400252042F05002D2B21A7097F82C20134625
:104C84005B0013441B011A467B6813441A3307F173
:104C94000C021146184600F0EEFC0346002B05D129
:104CA4008B49894800F0C0FD002362E3012387F8A3
:104CB4002E3017E0FA6897F82E30C3F10303DB00B7
:104CC40022FA03F197F82E305A0097F82330134450
:104CD4001A463B681344CAB21A7097F82E3001334F
:104CE40087F82E3097F82E30032BE3D9F5E2002312
:104CF40087F825300EE097F82530013387F8253002
:104D040097F82530022B05D16E496F4800F08CFDD1
:104D140000232EE397F82C2013465B0013441B0159
:104D24001A467B68134403F10F0097F825201346B5
:104D3400DB001344654A1344194600F075FC03462E
:104D4400002BD8D097F823303A68134497F82520DD
:104D540042F05802D2B21A70BFE2002387F825301D
:104D64000EE097F82530013387F8253097F8253081
:104D7400022B05D15349544800F056FD0023F8E2B4
:104D840097F82C2013465B0013441B011A467B68DA
:104D9400134403F10F0097F825201346DB00134456
:104DA4004A4A1344194600F03FFC0346002BD8D06E
:104DB40097F823303A68134497F8252042F04002CC
:104DC400D2B21A7097F82C2013465B0013441B01CF
:104DD4001A467B6813441A3307F10C02114618462D
:104DE40000F049FC0346002B05D13949364800F050
:104DF4001BFD0023BDE2012387F82E3017E0FA687B
:104E040097F82E30C3F10303DB0022FA03F197F87D
:104E14002E305A0097F8233013441A463B68134443
:104E2400CAB21A7097F82E30013387F82E3097F8EB
:104E34002E30032BE3D950E297F823303A68134419
:104E440060221A7097F82C2013465B0013441B0150
:104E54001A467B6813440F3307F10C0211461846B7
:104E640000F009FC0346002B05D11949164800F04F
:104E7400DBFC00237DE2012387F82E3017E0FA687B
:104E840097F82E30C3F10303DB0022FA03F197F8FD
:104E94002E305A0097F8233013441A463B681344C3
:104EA400CAB21A7097F82E30013387F82E3097F86B
:104EB4002E30032BE3D910E2002387F8253018E0C5
:104EC400C06700082C62000818010020CC6A0008A2
:104ED400F461000897F82530013387F8253097F8F6
:104EE4002530022B05D1CA49CA4800F09DFC002395
:104EF4003FE297F82C2013465B0013441B011A462B
:104F04007B68134403F10F0097F825201346DB0058
:104F14001344C14A1344194600F086FB0346002B90
:104F2400D8D097F823303A68134497F8252042F0F4
:104F34006802D2B21A7097F82C2013465B0013440F
:104F44001B011A467B6813441A3307F10C021146FD
:104F5400184600F090FB0346002B05D1AF49AD483D
:104F640000F062FC002304E2012387F82E3017E0EE
:104F7400FA6897F82E30C3F10303DB0022FA03F139
:104F840097F82E305A0097F8233013441A463B689A
:104F94001344CAB21A7097F82E30013387F82E30B2
:104FA40097F82E30032BE3D997E1002387F82430B8
:104FB4000EE097F82430013387F8243097F8243032
:104FC400022B05D19649934800F02EFC0023D0E132
:104FD40097F82C2013465B0013441B011A467B6888
:104FE400134403F10F0097F8242013469B00134445
:104FF4008C4A1344194600F017FB0346002BD8D003
:1050040097F82430DB005BB263F07D0359B297F864
:1050140023303A681344CAB21A70002387F8253043
:105024000EE097F82530013387F8253097F82530BE
:10503400022B05D17649774800F0F6FB002398E16E
:1050440097F82C2013465B0013441B011A467B6817
:10505400134403F11A0097F825201346DB00134488
:105064006D4A1344194600F0DFFA0346002BD8D0EA
:1050740097F823303A681344197897F823303A683C
:10508400134497F825200A43D2B21A7097F82C20BB
:1050940013465B0013441B011A467B6813442533F3
:1050A40007F10C021146184600F0E5FA0346002BFE
:1050B40005D15A49574800F0B7FB002359E10123B1
:1050C40087F82E3017E0FA6897F82E30C3F10303FF
:1050D400DB0022FA03F197F82E305A0097F82330B8
:1050E40013441A463B681344CAB21A7097F82E3018
:1050F400013387F82E3097F82E30032BE3D9ECE0F8
:10510400002387F824300EE097F82430013387F821
:10511400243097F82430022B05D141493D4800F052
:1051240083FB002325E197F82C2013465B001344EE
:105134001B011A467B68134403F10F0097F82420DF
:1051440013469B001344374A1344194600F06CFA83
:105154000346002BD8D097F82430DB005BB263F011
:105164006D0359B297F823303A681344CAB21A70DF
:10517400002387F825300EE097F82530013387F8AF
:10518400253097F82530022B05D12149214800F01C
:105194004BFB0023EDE097F82C2013465B001344EF
:1051A4001B011A467B68134403F11A0097F8252063
:1051B4001346DB001344184A1344194600F034FA2A
:1051C4000346002BD8D097F823303A681344197853
:1051D40097F823303A68134497F825200A43D2B24B
:1051E4001A707AE097F823303A68134470221A70E0
:1051F40073E097F823303A68134478221A706CE00D
:1052040097F823303A681344D8221A7065E000BF37
:105214002C62000818010020CC6A0008F461000820
:1052240060620008E06A000897F823303A68134483
:10523400C0221A7051E097F823303A681344B02220
:105244001A704AE097F823303A681344B8221A7067
:1052540043E097F823303A681344A0221A703CE0E4
:1052640097F823303A681344A8221A7035E097F867
:1052740023303A681344D0221A70012387F82E3061
:105284000FE097F82E305A0097F8233013441A464B
:105294003B68134400221A7097F82E30013387F8C4
:1052A4002E3097F82E30022BEBD916E00022012184
:1052B4000020FBF754FDF861002200210020FBF7D9
:1052C4004EFDB861B969F86900F05CF805E02B4956
:1052D4002B4800F0A9FA00234BE097F82C30013357
:1052E40087F82C3097F82C30012B41D897F82C20D4
:1052F40013465B0013441B011A467B6813441B7856
:10530400002B7FF47AAA97F82C2013465B001344F1
:105314001B011A467B681344DB78002B7FF46DAACB
:1053240097F82C2013465B0013441B011A467B6834
:105334001344DB7B002B7FF460AA97F82C201346E0
:105344005B0013441B011A467B6813449B7E002BAD
:105354007FF453AA97F82C2013465B0013441B01D7
:105364001A467B68134493F82530002B7FF445AA32
:10537400012318463037BD4680BD00BF9062000847
:105384001801002080B586B000AF786039607B6872
:10539400FB603B683B61064B7B6107F10C03022217
:1053A4001946786900F006F800BF1837BD4680BD7D
:1053B40000000608B0B58CB000AFF860B9607A6040
:1053C400FCF74EF90023BB610223BB6207233B6257
:1053D40001237B6207F1140207F1180311461846F2
:1053E400FCF7D6FA0346002B02D0FCF753F922E06F
:1053F4000023FB6219E0FB6A9A00FB68D118FB6A80
:105404009B00BA6813441B6800221C4615462246BA
:105414002B460220FCF7B8F80346002B02D0FCF719
:1054240039F908E0FB6A0133FB62FA6A7B689A4245
:10543400E1D3FCF72FF93037BD46B0BD90B587B046
:1054440000AFF860B9607A603B60B968F868FFF74C
:1054540031F80346002B00F0CA807968B868FFF77A
:1054640095F90346002B00F0C2806549654800F0B9
:10547400DBF939687868FBF731FA0023FB75ADE096
:10548400FB7D614A002142F82310FB7D7A681344B6
:105494001B7803F0E003202B6BD10023BB7502E0E3
:1054A400BB7D0133BB75FB7D7A6813441B7803F025
:1054B4001F01BA7D554813469B0013449B000344C7
:1054C4001B789942ECD1BA7D504913469B00134492
:1054D4009B000B440E331B783B753B7D012B02D0A4
:1054E400022B03D005E001237B7505E002237B75C5
:1054F40002E003237B7500BFFC7D3A7DFB7D3968A8
:105504001846FBF739FA03463F4A42F82430FA7D3D
:1055140013465B0013449B0013443D4A134419464D
:10552400384800F081F93B49364800F07DF9BA7DEE
:1055340013469B0013449B00344A13440133194619
:10554400304800F071F934492E4800F06DF9FB7DC4
:105554002D4A52F823307A7D1146184600F0CEFACF
:1055640003461946274800F05FF92C49254800F006
:105574005BF9FB7D7A6813441B78D02B2BD1FC7D1F
:10558400FB7D022239681846FBF7F6F903461E4AEA
:1055940042F82430FA7D13465B0013449B00134405
:1055A4001B4A13441946174800F03EF91C49154894
:1055B40000F03AF9FB7D144A52F8233002211846D0
:1055C40000F09CFA034619460E4800F02DF91349E1
:1055D4000C4800F029F9FB7D0133FB75FB7D012BA1
:1055E4007FF64EAF0D49074800F01EF903E00D4960
:1055F400044800F019F9044B18461C37BD4690BD09
:10560400CC6200081801002014020020C0670008C2
:1056140058010020006300080463000814630008B4
:10562400186300082C63000880B485B000AF78606C
:1056340039600023FB73FB7B7A6813441B78BB73CC
:10564400FB7B3A6813441B787B73BA7B7B7B9A425F
:1056540001D0002309E0FB7B0133FB73BB7B002BF0
:1056640002D07B7B002BE6D1012318461437BD46BC
:105674005DF8047B704780B487B000AF7860396010
:105684000023FB7514E0FB7D7A6813441B782F2BF1
:1056940009D9FB7D7A6813441B78392B03D8FB7D29
:1056A4000133FB7504E03B6800221A60002327E005
:1056B400FB7D7A6813441B78002BE4D101233B6102
:1056C4000023FB60FB7D013BFB75FB7D7A68134483
:1056D4001B78FB72FB7A303B1A463B6902FB03F3EF
:1056E400FA681344FB603A6913469B0013445B0059
:1056F4003B61FB7D002BE5D13B68FA681A6001230E
:1057040018461C37BD465DF8047B704780B500AF72
:105714002E492F4800F088F82E492D4800F084F8CF
:105724002D492B4800F080F82B49294800F07CF8DB
:105734002A49274800F078F82949254800F074F8E8
:105744002849234800F070F82749214800F06CF8F4
:1057540026491F4800F068F825491D4800F064F800
:1057640024491B4800F060F82349194800F05CF80C
:105774002249174800F058F82149154800F054F818
:105784002049134800F050F81F49114800F04CF824
:105794001E490F4800F048F81D490D4800F044F830
:1057A4001C490B4800F040F81B49094800F03CF83C
:1057B4001A49074800F038F81949054800F034F848
:1057C4001849034800F030F800BF80BD2464000885
:1057D4001801002060640008146300087464000861
:1057E4009C640008C4640008F06400082065000894
:1057F4002C650008606500086C650008A465000855
:10580400B4650008EC650008F8650008386600080F
:105814004866000884660008BC660008FC66000848
:10582400306700083C67000880B584B000AF78603A
:1058340039600023FB7300BFFB7B5A1CFA731A46C2
:105844003B6813441B78002BF6D1FB7B013BFB73B5
:10585400FB7B9AB20A2339687868FEF74FF800BFD9
:105864001037BD4680BD000080B500AF0B4B93F8E8
:105874003930DBB2012B0ED1094B1B78002B05D03C
:10588400084B094A09490648FFF7D8FD4022044954
:105894000248FEF7DCF800BF80BD00BF18010020FD
:1058A40074010020840000207C000020B40100204A
:1058B40080B584B000AF78607B681B685B68FB735D
:1058C4007B68DB8D012B02D0FB7B0D2B41D17B68E8
:1058D400DB8D01339AB27B68DA857B689B6A5A1E3A
:1058E4007B689A627B689B6A00221A701B497868FD
:1058F400FFF79AFF00BF7B681B681B6803F0200357
:10590400002BF8D17B681B68DA687B681B6822F07F
:105914002002DA607B6893F83930DBB2322B04D191
:105924007B68122283F8392013E07B681B68DA68ED
:105934007B681B6822F48072DA607B681B685A6992
:105944007B681B6822F001025A617B68012283F89C
:10595400392000BF1037BD4680BD00BF1463000866
:1059640080B483B000AF3023BB7130237B7100233C
:10597400FB71B3E0FB79092B05D8FB7930337B71DC
:105984000023BB7119E0FB795A4AA2FB0323DB080D
:10599400DBB230337B71FB79564AA2FB0323DB086D
:1059A400DBB21A465201D21A9200D31A5B00DAB261
:1059B400FB791344DBB23033BB71FA794E49134699
:1059C4005B0013449B0013440B444C221A70FA7975
:1059D400494913465B0013449B0013440B440133B1
:1059E40036221A70FA79444913465B0013449B002B
:1059F40013440B44023334221A70FA793E49134695
:105A04005B0013449B0013440B44033337221A7086
:105A1400FA79394913465B0013449B0013440B4441
:105A2400043330221A70FA79334913465B00134465
:105A34009B0013440B44053323221A70FA792E4930
:105A440013465B0013449B0013440B4406337A79DA
:105A54001A70FA79284913465B0013449B001344D7
:105A64000B440733BA791A70FA79234913465B0059
:105A740013449B0013440B44083300221A70FA7930
:105A84001D4913465B0013449B0013440B44093324
:105A94004D221A70FA79184913465B0013449B008F
:105AA40013440B440A337A791A70FA79124913466B
:105AB4005B0013449B0013440B440B33BA791A70F4
:105AC400FA790D4913465B0013449B0013440B44BD
